:1000000000000120750300005D0300005F03000095
:1000100061030000630300006503000000000000AE
:100020000000000000000000000000006703000066
:1000300069030000000000006B0300006D03000076
:100040006F0300006F0300006F0300006F030000E8
:100050006F0300006F0300006F0300006F030000D8
:100060008D0600006F0300006F0300006F030000A7
:100070006F0300006F0300006F0300006F030000B8
:100080006F0300006F0300006F0300006F030000A8
:100090006F0300006F0300006F0300006F03000098
:1000A0006F0300006F0300006F0300006F03000088
:1000B0006F0300006F03000000000000000000005C
:1000C0006F0300006F0300006F0300006F03000068
:1000D0006F0300006F0300006F03000000000000CA
:1000E0000000000000000000000000000000000010
:1000F0000000000000000000000000000000000000
:1001000000000000000000000000000000000000EF
:1001100000000000000000000000000000000000DF
:1001200000000000000000000000000000000000CF
:1001300000000000000000000000000000000000BF
:1001400000000000000000000000000000000000AF
:10015000000000000000000000000000000000009F
:10016000000000000000000000000000000000008F
:10017000000000000000000000000000000000007F
:10018000000000000000000000000000000000006F
:10019000000000000000000000000000000000005F
:1001A000000000000000000000000000000000004F
:1001B000000000000000000000000000000000003F
:1001C000000000000000000000000000000000002F
:1001D000000000000000000000000000000000001F
:1001E000000000000000000000000000000000000F
:1001F00000000000000000000000000000000000FF
:10020000354936480A1A02D0072291438D463449AF
:1002100034480A1A06D00722914381F30988022242
:1002200082F3148830483149314A00F044F83148AB
:100230003149324A00F03FF831483249324A00F041
:100240003AF832483249334A00F035F832483349F7
:10025000334A00F030F833483349344A00F02BF881
:1002600033483449344A00F026F8344834490022EF
:1002700000F02CF833483449002200F027F83348C6
:100280003349091A082902DB002202604160314A21
:1002900090471F481F49884205D00268043003B4C4
:1002A000904703BCF7E700208646EC46002000217B
:1002B000294A9047FEE7884207D0521A05D00378B2
:1002C00001300B700131013AF9D17047884202D0F8
:1002D00002700130FAE770470000012000E00020C2
:1002E0000000012000000120480D00000000002057
:1002F00004000020D4030000D4030000180D000007
:10030000480D00000000002000000020180D000033
:10031000180D0000180D0000180D0000180D000049
:10032000180D0000180D0000180D0000460D00000B
:100330004C0D0000040000200400002004000020F8
:10034000240000202400002024000020240000209D
:10035000242000209D03000011070000FEE7FEE7B7
:10036000FEE7FEE7FEE7FEE7FEE7FEE7FEE7FEE765
:10037000704700BF1048804710484FF0070188437E
:1003800085460F4880470F48016841F470010160BD
:10039000BFF34F8FBFF36F8FFFF732BF0A480B4990
:1003A0000B4A884207D0521A05D0037801300B70EF
:1003B0000131013AF9D170477103000000000120BA
:1003C0005107000088ED00E0180D0000000000203B
:0403D0000000002009
:1003D40086B003900291019201238DF817309DF8A5
:1003E4001730204A039B13601E4A029B53601D4A28
:1003F400019B9360039B44F20102934213D0039B3D
:1004040044F20202934221D1019B164AD360154B58
:10041400DB681B881A46134B9A61124BDB685B68D6
:10042400104AD36112E0019B0E4A13610D4B1B6904
:100434009B680C4A53610B4B1B691B68094A936107
:10044400084B1B695B68074AD36100BF72B600BFE3
:100454009DF81730DBB2002BFAD162B600BF06B0AC
:10046400704700BF0400002000B587B003900291DC
:10047400019272B6039B44F20102934207D0039B9C
:1004840044F20202934205D1019B059303E0019BD0
:10049400049300E000BF084B1B6803F00103002B2A
:1004A40000D000BE019A02990398FFF791FF00BFA4
:1004B40007B05DF804FB00BFF0ED00E000B585B0C7
:1004C40003460091ADF80630BDF80630ADF80830AB
:1004D400009B039302AB1A46002144F20200FFF78B
:1004E400C3FF00BF05B05DF804FB000082B0034603
:1004F4008DF807309DF8073003F01F0205499DF978
:1005040007305B09012000FA02F241F8232000BF02
:1005140002B0704700E100E082B003468DF8073076
:100524009DF8073003F01F0206499DF907305B0967
:10053400012000FA02F2603341F8232000BF02B028
:10054400704700BF00E100E082B0034600918DF8DF
:1005540007309DF90730002B0CDA009BDAB20C4906
:100564009DF8073003F00F03043B5201D2B20B4451
:100574001A7609E0009BDAB206499DF90730520168
:10058400D2B20B4483F8002300BF02B0704700BF0F
:1005940000ED00E000E100E000B583B00190019BB4
:1005A4001B681F2B04D905494FF4E870FFF786FF39
:1005B4004FF0A043184603B05DF804FB180D00008B
:1005C40000B585B00190084611461A4603468DF8D9
:1005D40003300B468DF8023013468DF8013001AB21
:1005E4001846FFF7D9FF03909DF803209DF80230C9
:1005F4005B001A439DF801309B001A439DF81830A4
:100604001B0242EA03019DF81C301B04019A1943A2
:10061400039B02F5E07243F8221000BF05B05DF8B9
:1006240004FB00B585B003900023019300230093DD
:100634000023012201210398FFF7C2FF00BF05B088
:100644005DF804FB00B585B0019001AB1846FFF7D7
:10065400A3FF0390039BD3F804350293029BDA4370
:10066400019B012101FA03F31A40039BC3F80825F7
:10067400019B01229A40029B1A40039BC3F80C255C
:1006840000BF05B05DF804FB08B5074BD3F8403153
:10069400012B06D1044B0022C3F840211120FFF79F
:1006A400D1FF00BF08BD00BF0080004008B5112085
:1006B400FFF7B7FF134B0422C3F81025114B002298
:1006C400C3F804250F4B0322C3F808250D4B0E4A2B
:1006D400C3F840250B4B4FF48032C3F80423094B75
:1006E4000122C3F80022074B01221A6003210820CB
:1006F400FFF72AFF0820FFF70FFF0820FFF7F6FE99
:1007040000BF08BD0080004040420F0008B5FFF75D
:10071400CDFFFEE7BFF34F8F054BDB6803F4E062C8
:100724000349044B1343CB60BFF34F8F00BFFDE776
:1007340000ED00E00400FA05024B034A1A6000BF12
:10074400704700BF000000200090D00308B500F0FF
:1007540067F90346002B06D09F4B1B681B0A9F4A70
:1007640003F01F03136000F087F90346002B02D047
:100774009B4B9C4A1A6000F09BF90346002B06D061
:10078400994B1B685B0B994A03F00703136000F055
:10079400BBF90346002B05D0954BDB68944A23F044
:1007A4008073D36000F0CCF90346002B0ED04FF0D9
:1007B40080430022C3F80C214FF080430022C3F889
:1007C40010214FF080430022C3F8382500F0E4F9EB
:1007D4000346002B02D0874B03221A6000F0F8F97D
:1007E4000346002B0BD0844B05221A60834B012255
:1007F4001A60834B00221A60824B3F221A6000F079
:1008040003FA0346002B76D04FF080537E4AD3F888
:100814000434C2F820354FF080537B4AD3F80834AF
:10082400C2F824354FF08053774AD3F80C34C2F819
:1008340028354FF08053744AD3F81034C2F82C355D
:100844004FF08053704AD3F81434C2F830354FF067
:1008540080536D4AD3F81834C2F834354FF08053BE
:10086400694AD3F81C34C2F840354FF08053664AC5
:10087400D3F82034C2F844354FF08053624AD3F899
:100884002434C2F848354FF080535F4AD3F82834F3
:10089400C2F84C354FF080535B4AD3F82C34C2F87D
:1008A40050354FF08053584AD3F83034C2F8543599
:1008B4004FF08053544AD3F83434C2F860354FF0C3
:1008C4008053514AD3F83834C2F864354FF080531A
:1008D4004D4AD3F83C34C2F868354FF080534A4A45
:1008E400D3F84034C2F86C354FF08053464AD3F8FD
:1008F4004434C2F8703500F0A3F90346002B05D048
:10090400424B1B68424A03F04F03136000F0C4F9E2
:100914000346002B0DD04FF08043D3F8003403F08E
:100924000103002B05D04FF080436FF00102C3F8A0
:10093400002400F0DDF90346002B05D0354B1B687D
:10094400344A43F480631360334BD3F88830324A1B
:1009540043F47003C2F88830BFF34F8FBFF36F8F37
:100964004FF01023D3F80032002B05DB4FF0102397
:10097400D3F80432002B2BDA284B0122C3F80425C8
:1009840000BF264BD3F80034002BFAD04FF01023CD
:100994001522C3F8002200BF204BD3F80034002BEB
:1009A400FAD04FF010231522C3F8042200BF1B4BCA
:1009B400D3F80034002BFAD0184B0022C3F80425D6
:1009C40000BF164BD3F80034002BFAD0FFF7A2FE79
:1009D400FFF7B2FE00BF08BD2403001040350140FC
:1009E40074C007400DF0ADBA440200103C0500404D
:1009F400F0ED00E0A005004010560040885600408D
:100A0400185600401456004000C000405802001020
:100A1400E40E00403C17004000ED00E000E001401F
:100A2400124B1B68DBB2062B1DD1114B1B6803F064
:100A34000F03002B17D10F4B1B6803F0F003302B6F
:100A440001D1012310E00B4B1B6803F0F003402B92
:100A540001D1012308E0074B1B6803F0F003502B7E
:100A640001D1012300E0002318467047E00F00F095
:100A7400E40F00F0E80F00F00A4B1B68DBB2062B12
:100A84000DD1094B1B6803F00F03002B07D1074B53
:100A94001B6803F0F003302B01D1012300E0002395
:100AA40018467047E00F00F0E40F00F0E80F00F084
:100AB400124B1B68DBB2062B1DD1114B1B6803F0D4
:100AC4000F03002B17D10F4B1B6803F0F003302BDF
:100AD40001D1012310E00B4B1B6803F0F003402B02
:100AE40001D1012308E0074B1B6803F0F003502BEE
:100AF40001D1012300E0002318467047E00F00F005
:100B0400E40F00F0E80F00F00A4B1B68DBB2062B81
:100B14000DD1094B1B6803F00F03002B07D1074BC2
:100B24001B6803F0F003302B01D1012300E0002304
:100B340018467047E00F00F0E40F00F0E80F00F0F3
:100B4400124B1B68DBB2062B1DD1114B1B6803F043
:100B54000F03002B17D10F4B1B6803F0F003302B4E
:100B640001D1012310E00B4B1B6803F0F003402B71
:100B740001D1012308E0074B1B6803F0F003502B5D
:100B840001D1012300E0002318467047E00F00F074
:100B9400E40F00F0E80F00F00A4B1B68DBB2062BF1
:100BA4000DD1094B1B6803F00F03002B07D1074B32
:100BB4001B6803F0F003302B01D1012300E0002374
:100BC40018467047E00F00F0E40F00F0E80F00F063
:100BD4000A4B1B68DBB2062B0DD1094B1B6803F0D3
:100BE4000F03002B07D1074B1B6803F0F003302BD6
:100BF40001D1012300E0002318467047E00F00F004
:100C0400E40F00F0E80F00F00A4B1B68DBB2062B80
:100C14000DD1094B1B6803F00F03002B07D1074BC1
:100C24001B6803F0F003502B01D1012300E00023E3
:100C340018467047E00F00F0E40F00F0E80F00F0F2
:100C4400124B1B68DBB2062B1DD1114B1B6803F042
:100C54000F03002B17D10F4B1B6803F0F003302B4D
:100C640001D1012310E00B4B1B6803F0F003402B70
:100C740001D1012308E0074B1B6803F0F003502B5C
:100C840001D1012300E0002318467047E00F00F073
:100C9400E40F00F0E80F00F0124B1B68DBB2062BE8
:100CA4001DD1114B1B6803F00F03002B17D10F4B01
:100CB4001B6803F0F003302B01D1012310E00B4B30
:100CC4001B6803F0F003402B01D1012308E0074B1C
:100CD4001B6803F0F003502B01D1012300E0002333
:100CE40018467047E00F00F0E40F00F0E80F00F042
:100CF400064B1B68062B05D1054B1B68062B01D13F
:100D0400012300E000231846704700BF30010010A3
:040D14003401001096
:100D18002E2E2F2E2E2F2E2E2F2E2E2F2E2E2F2EE6
:100D28002E2F6D6F64756C65732F6E7266782F68E1
:0E0D3800616C2F6E72665F6770696F2E6800C7
:040D48000090D00344
:040000030000037581
:00000001FF
