:020000022000DC
:1060000000000420756302005D6302005F6302000C
:106010006163020063630200656302000000000028
:1060200000000000000000000000000067630200A4
:1060300069630200000000006B6302006D630200F0
:10604000D18402006F630200818902006F63020045
:106050006F6302006F630200D58702006F63020066
:106060006F6302006F6302006F6302006F630200E0
:106070006F6302006F6302006F6302006F630200D0
:106080006F630200957002006F6302006F6302008D
:10609000317102006F6302000DAF02006F630200F6
:1060A0006F6302006F6302006F6302006F630200A0
:1060B0006F6302006F630200000000000000000038
:1060C0006F6302006F6302006F6302006F63020080
:1060D0006F6302006F6302006F6302006F63020070
:1060E0006F6302006F6302006F6302000000000034
:1060F000000000006F630200000000006F630200F8
:10610000000000000000000000000000000000008F
:10611000000000000000000000000000000000007F
:10612000000000000000000000000000000000006F
:10613000000000000000000000000000000000005F
:10614000000000000000000000000000000000004F
:10615000000000000000000000000000000000003F
:10616000000000000000000000000000000000002F
:10617000000000000000000000000000000000001F
:10618000000000000000000000000000000000000F
:1061900000000000000000000000000000000000FF
:1061A00000000000000000000000000000000000EF
:1061B00000000000000000000000000000000000DF
:1061C00000000000000000000000000000000000CF
:1061D00000000000000000000000000000000000BF
:1061E00000000000000000000000000000000000AF
:1061F000000000000000000000000000000000009F
:10620000354936480A1A02D0072291438D4634494F
:1062100034480A1A06D00722914381F309880222E2
:1062200082F3148830483149314A00F044F831484B
:106230003149324A00F03FF831483249324A00F0E1
:106240003AF832483249334A00F035F83248334997
:10625000334A00F030F833483349344A00F02BF821
:1062600033483449344A00F026F83448344900228F
:1062700000F02CF833483449002200F027F8334866
:106280003349091A082902DB002202604160314AC1
:1062900090471F481F49884205D00268043003B464
:1062A000904703BCF7E700208646EC46002000211B
:1062B000294A9047FEE7884207D0521A05D0037852
:1062C00001300B700131013AF9D17047884202D098
:1062D00002700130FAE770470000042000E003205C
:1062E000000004200000042058CE0200E029002015
:1062F000E42C0020D4630200D463020024BD020019
:1063000058CE0200E0290020E029002014BE02003F
:1063100014BE020014BE020014BE020014BE02002D
:1063200014BE020014BE020014BE020058CE0200C9
:106330005CD10200E42C0020E42C0020E42C00209E
:10634000503C0020503C0020503C0020503C00209D
:10635000505C00209D630200959C0200FEE7FEE772
:10636000FEE7FEE7FEE7FEE7FEE7FEE7FEE7FEE705
:10637000704700BF1048804710484FF0070188431E
:1063800085460F4880470F48016841F4700101605D
:10639000BFF34F8FBFF36F8FFFF732BF0A480B4930
:1063A0000B4A884207D0521A05D0037801300B708F
:1063B0000131013AF9D170477163020000000420F5
:1063C000F97E020088ED00E014BE0200E029002002
:0463D000E0290020A0
:1063D4007047000007B5044B0093044A402300F0C3
:1063E40030F803B05DF804FBF5630200E52C0020EF
:1063F4002DE9F84389461446B2B10F4B0F4E0325DD
:10640400002743F00108224609EB0701002003F0AE
:1064140025FD0744241A48B933782BB14FF47A4048
:10642400C047013D02D13570BDE8F88301233370C4
:10643400002CE8D1F8E700BF20BE0200E42C0020C5
:106444007047F0B595B01C46164608460D4601F057
:1064540061FC1A9B0D93CDE90864002423460822AD
:1064640005A928460A948DF82C400C9401F06FFC81
:10647400079B0293069B03939DF814308DF81140FB
:1064840003F00302012A1DD1BDF81440059EC3F395
:10649400C203C4F383148DF81030A20008230EA99C
:1064A400284601F054FCC6F3952608AB0093224617
:1064B40002AB0EA9304600F01DFB284601F02EFC6D
:1064C40015B0F0BD022AF8D1BDF81640C3F3C203DB
:1064D400A4098DF810300827082C264628BF082662
:1064E4003B4632460EA9284601F031FCA41B08ABFA
:1064F40002AA31460EA8374400F060FB002CEBD111
:10650400DBE7037813F0040216D003F00303012B36
:1065140003D0022B09D0012070470A680088023298
:10652400C0F3831002440A60F5E70B684288023323
:1065340003EB92130B60EEE7104670472DE9F04F22
:1065440087B000230446851C0DF107000F469046D2
:106554008DF8073001F0E8F8454806683E60D0E958
:106564000132134401339B1B824600F21C4600F5A2
:10657400836900F21447AB421BD30022B8F1000F29
:1065840070D0052363F3070264F38912DAF800106C
:10659400DAF808309DF807000B4003330D444AF83D
:1065A4002320CAF8005001F0E3F8012007B0BDE849
:1065B400F08F0121304601F011F9484601F024F929
:1065C400384601F021F9DAF80400DAF808B002904C
:1065D40000EA0B0003300AEB800002A9FFF791FFE9
:1065E400029B50BB0BEA03020AEB820203F1020C8A
:1065F400D2680392013303EA0B0B0AEB8B0B02F014
:106604000302012ACDF808C0DBF80C1022D0022ABC
:1066140016D08346384601F0FAF810B1029BCAF846
:1066240004305946304601F0D9F8DAE9012313441D
:10663400DAF8002001339B1A9DE70BEA0300C9E74F
:10664400BDF80E309B0903334FEA114B0CEB930357
:106654000293DFE7BDF80C30C3F383134FEA114B09
:106664006344F5E7062363F3070264F39F528DE75F
:10667400F82D002030B50A4C71B10A4A0A49121BA0
:10668400D20800239A4201D1002030BD31F82350B2
:10669400854202D00133F5E7034654F83300F4E7AA
:1066A40030BD0200A8BD0200E0290020094B0139D9
:1066B40003EBC000032909D8DFE801F00A0204064D
:1066C4000420704700797047407970470020704774
:1066D4000220704730BD0200034BD3E90030C31AD7
:1066E40058425841704700BFF82D00202DE9F0436F
:1066F40087B0FFF7F1FF0646002840F0FB807E4D8F
:10670400C5F81804BFF34F8F6868AC680290204046
:10671400033005EB800002A9FFF7F3FE029B18B1DA
:10672400D5F81824002A5FD004EA0302991C013327
:1067340005EB8202234005EB8303D268DB680493F4
:1067440002F00303022B0392029162D1BDF80E30D2
:106754006A484FEA9318B8F1500FC14628BF4FF06A
:10676400500969F38F1309F10801ADF80E3001F0F7
:10677400A2FA0746002800F0A88001F0CBFA03A98A
:1067840000230822384601F0D8FA029924EA0106C7
:106794000136B600B14535D95FFA89F97EB3F6B250
:1067A400A9EB0609214003315FFA89F4B146544E3E
:1067B40005EB810108234A46384601F0BEFA36B19A
:1067C40009F1080322463146384601F0B6FA029B25
:1067D40008F1030803EB98030293D5F81834002B4F
:1067E4004BD1D5F810445BE02A689A4204D86A6019
:1067F400304607B0BDE8F08304EA030088E7404967
:106804003446D7E72140033108234A4605EB81018A
:10681400DAE7012B59D1BDF80C303848C3F38311A2
:10682400062928BF062161F3891302318900ADF8D6
:106834000C3001F040FA0746002846D001F06AFA0D
:106844000023082203A9384601F077FA0026BDF890
:106854000C20C2F38312B300964203F10803BCD2A6
:1068640002994A1C21400331029205EB8101042262
:10687400384601F062FA0136E9E7384601F04EFA8B
:10688400FFF72AFF80F00100C6B2B1E7E3685B7945
:1068940023B1236839461B6820469847E3681C687F
:1068A400002CF3D1384601F039FA0DF107008DF8C8
:1068B400074000F039FFD5F818340BB9029B6B6020
:1068C4009DF8070000F054FFDAE7D5F8104454B9F6
:1068D4000C4B0D480D49C01AC008000440F00200DA
:1068E40000F06EF8CCE7236820469B689847E3687D
:1068F4001C68ECE700267BE7F82D0020A8BD020009
:10690400042E002030BD020058BD020044BE020027
:106914002DE9F74F284C80460F46924601A90122E3
:1069240018469B46D4F80890FFF708FE80B3019DF3
:106934000026A91C5E4506EB010233D100211F4845
:1069440000F02CFF80F310006A1C02EA090204EB39
:106954008202000405EA0903033340EA1840D060C8
:1069640014F8232068F3C50204F8232034F8232004
:1069740066F3891224F8232054F8232067F39F2216
:1069840044F8232002F0F80242F0010204F8232024
:1069940094F820341BB1FFF7A9FE0028FBD103B003
:1069A400BDE8F08F09EA020204EB82025AF82630AD
:1069B400D3600136BEE700BFF82D0020143200205A
:1069C40000231A46FFF7A4BF07B50123019201AAC9
:1069D400FFF79EFF03B05DF804FB07B5CDE9002384
:1069E40002236A46FFF794FF03B05DF804FB7FB50A
:1069F400CDE90023089B0293099B03930A9B04930C
:106A04000B9B05936A460623FFF782FF07B05DF8E8
:106A140004FB0000094A38B50123D2F8104482F877
:106A240020341D4604B938BDE3685D7123682046EF
:106A34005B689847E3681C68F4E700BFF82D002002
:106A4400037A052B10B50C460FD0437A23B1084ABC
:106A54000849204600F027FF0749204600F023FF9D
:106A64002046BDE8104000F013BF002AF8D0F3E739
:106A74008FBE020094BE0200B4BE0200C38873B588
:106A840004460D4633B1144A00921449144A284668
:106A940000F009FF217A05291CD0637A4BB1A08844
:106AA400FFF704FE0F4B104953F82020284600F04E
:106AB400FAFE227A0D4BA08853F822600021FFF7DA
:106AC400D9FD0B4903463246284602B0BDE8704062
:106AD40000F0E9BE02B070BD8FBE02009FBE02008E
:106AE40097BE02005CBE020094BE0200C4BE020057
:106AF400B7BE02002DE9F04385B01F460C9D00236C
:106B040006460C46904695F80C902B732946384659
:106B1400FFF7B4FFB8F1060F09D8DFE808F0041254
:106B2400181F283340003146284600F0BCFE0022DE
:106B340029463846FFF784FF85F80C9005B0BDE878
:106B4400F08322683146284600F0ADFEEFE7D4E931
:106B540000233146284600F0A6FEE8E7A368009328
:106B64003146D4E90023284600F09DFEDFE7E368C0
:106B74000193A36800933146D4E90023284600F02A
:106B840092FED4E723690293E3680193A368009318
:106B94003146D4E90023284600F085FEC7E763693F
:106BA400039323690293E3680193A3680093314636
:106BB400D4E90023284600F076FEB8E708292DE939
:106BC400F84F80460E4617461C4636D8002593F8E3
:106BD4000C901D7319461046FFF750FFDFF87CA098
:106BE400DFF87CB0AE422AD918F805205946204671
:106BF40000F059FE0135082DF4D11649DFF864B0D0
:106C0400204600F050FE0025AE421DD918F805A01C
:106C1400504604F0DFFB002814BF52462E2259468A
:106C2400204600F040FE0135082DEDD10122214619
:106C34003846FFF705FF84F80C90BDE8F88F5146FD
:106C4400204600F030FED5E70349204600F02BFE35
:106C5400E9E700BF8ABE020088BE020086BE0200C9
:106C640080BE02008CBE02002DE9F04F394E87B081
:106C74004FF00009384B1B785FFA89F5AB4202D814
:106C840007B0BDE8F08F354BD3F800A01AF83500F3
:106C94000124D6E9001EA0F12002C0F1200304FA69
:106CA40002F224FA03F3134304FA00FC009301EA0A
:106CB4000C030293009B0EEA03030393DDE9022312
:106CC40013430AEBC50B41D0009B21EA0C012EEAC9
:106CD4000303C6E9001301F06DFD1AF8355020498D
:106CE400A5F12002C5F1200304FA02F224FA03F309
:106CF4001343D1E900C2AC40134004EA0C010593EC
:106D04000024C3B2CDE90034009A0491C5F12003F4
:106D1400A5F1200122FA03F302FA01F848EA030874
:106D24001346AB401F46DDE90434444508BFBB426B
:106D34000CD1DBF804304BB19BF801104A1E5142D0
:106D44005141081A414241412846984709F1010935
:106D540090E700BF503200201C320020583200203F
:106D6400483200202DE9F0418046204800F0C0FB65
:106D7400D0BB0125A8F12004C8F1200325FA03F3B0
:106D840005FA04F41C431A4BD3E9001205FA08F57A
:106D940001EA050602EA040756EA07001E461DD169
:106DA400404601F007FD134BD3E9001288B1294393
:106DB4002243C3E90012D6E900231C430E4B0B48BF
:106DC40019681543C6E900540022BDE8F04100F0FB
:106DD40049BB21EA050122EA0402EAE721EA0505A2
:106DE40022EA0404C3E90054BDE8F08124320020FF
:106DF400503200204832002020320020042A2DE99D
:106E0400F34105460C4616463AD901F003FCD8B1C5
:106E14001C4B1D491D601D4BDFF884801C701C4BEE
:106E240000221E600023C1E900231A49C1E900239E
:106E3400013CE4B200260327FF2C0CD1164A174864
:106E4400002100F0FDFA03E001F0AAFB0028DFD0E6
:106E540002B0BDE8F08123B205EBC30201A9927828
:106E64008DF8052015F833008DF8066042468DF83C
:106E7400047001F0D9FB013CE4B20028DCD0E7E760
:106E84000720E5E758320020483200201C32002059
:106E940020320020503200206D6C020024BF02001A
:106EA400696D020070B5084D084E00242B789C4291
:106EB40001D3002070BD3368012113F8340001F0C0
:106EC4002FFC0134F2E700BF1C32002058320020AE
:106ED4001FB50021039001AA44F20100CDE901117C
:106EE40000F004F805B05DF804FB000010B572B6BC
:106EF400FFF790FDFFF7FAFB0028FBD1104B114C74
:106F04001149E41AE408240444F00100FFF758FD91
:106F14000E4B1B68DB0700D500BE0D4944F0020090
:106F2400FFF74EFDBFF34F8F0A490B4BCA6802F4BB
:106F3400E0621343CB60BFF34F8F00BFFDE700BF98
:106F440030BD020058BD020028BF0200F0ED00E091
:106F540034BF020000ED00E00400FA0549B152B16B
:106F6400531E1A4007D1826001608380C2601046BC
:106F740070470E2070470920704710B58468C268B6
:106F84008388121B934208D3C26813400268D15409
:106F9400C3680133C360002010BD0420FCE782688D
:106FA400C3689A420AD08268838813400268D35C1B
:106FB4000B7083680133836000207047052070479D
:106FC400094A537891780133DBB2994208BF002310
:106FD400117899421FBF03705078182303FB0020D7
:106FE40014BF0430002070475C32002073B505469E
:106FF40000240DF107000E468DF8074000F094FBC5
:107004000DF10600FFF7DCFF90B10670094B9DF807
:10701400062045605A709DF8070000F0A9FB24B9CA
:10702400054B4FF48012C3F80021204602B070BD16
:107034000424F0E75C32002000E100E0024B4FF44E
:107044003C6043F00103184750BF020038B50C4BB5
:107054000C4C4FF40032C3F8802001254FF48033E8
:10706400C4F84833C4F808336560FFF7E7FF064BFC
:10707400A56000241C60FFF7E1FF044B1C7038BDC1
:1070840000E100E000100140783300206933002063
:10709400F8B51F4B1F491B680025C1F84051C1F8C2
:1070A4004451C1F84851C1F84C51C1F80051C1F8DC
:1070B40004514BB3D1F8044517490968641A24F004
:1070C4007F442F461A68A24209D8A41A15441A7C90
:1070D400DE691AB11F74D3E905209047AEB90F4A8F
:1070E4000F4B11781B788B4205D10133DBB2022B95
:1070F40008BF0023137012780A4B43F822500A4B3E
:107104004FF48012C3F80021F8BD3346DAE700BF1C
:107114007C330020001001407833002075330020B8
:10712400743300206C33002000E100E02DE9F04FBF
:10713400A04AA14913780978A04D994285B03CD062
:107144000133DBB2022B08BF002313709C49127871
:107154009C4B0F6853F822003B1823F07F43002216
:107164000B602B6816461446944613B942B12B6043
:1071740006E0196881420ED902B12B60091A196020
:107184004FF001082B68DFF844A201930027BEB931
:10719400DFF840B266E0401A0C44D968C3F800C076
:1071A400D3F81CE031B13A1922F07F42C3E901213E
:1071B400DE611E4601227346D7E70026B046E1E7AA
:1071C4003446F6697E4A63681268DFF80CC2A06828
:1071D400991A21F07F41614500F2A58001442160A4
:1071E400012222742A680023C4E90133E361002ADE
:1071F40040F0A2802C60CAE75A1C9BF80210D2B25D
:1072040091428BF8002004BF00228BF80020182242
:1072140002FB03B31A799C68022A1CD0032A12D0F9
:10722400012A1FD1207CE8B9D3E90312A2605A696C
:10723400E2609A69644BA2611B78002B0CBF0B4679
:1072440003466360BEE700222B681146002B66D11B
:1072540042B12B6006E029680A468946002A59D1C2
:10726400002323749BF800309BF801209A42C3D179
:107274002B682FB9019A9A4202D1B8F1000F43D07A
:10728400002B73D0D3F800A0504D4D4BD5F80475A6
:107294001C68DFF848813E1B98F8003026F07F46D2
:1072A40003369BB94FF48033C5F84433C5F804332F
:1072B400474B4FF400324FF00109C3F880211A60A4
:1072C400C5F80090FFF7BAFE88F80090B2452CBFCD
:1072D4005444A41924F07F44C5F84045D5F8043536
:1072E400DB1B23F07F43E41B033324F07F44A342DE
:1072F4000AD9D5F80435C5F84035FFF79FFE344B5D
:107304004FF40032C3F800212F4B00221A7005B04D
:10731400BDE8F08F94422CD09146D2699EE719744F
:107324000122DB6992E7D31A23F07F43834234BFFF
:10733400C31A0023236053E721681368994213D8C2
:10734400591A1160E26155E7091AD8691A4638B129
:10735400034618688842F7D3401A18601846134643
:107364002160E061DC6112E71346F2E7FFF76EFE8D
:10737400CAE74C4511D1CB692B6073B9DFF840E003
:107384000120CDE90212CAF80800CEF800300E4BF5
:107394001870FFF753FEDDE902121368D269C9F8C9
:1073A4001C2012B11068034413602B68994218BF63
:1073B400012755E774330020753300207C33002007
:1073C400783300206C330020683300200010014023
:1073D40000E100E05C320020FEFF7F006933002002
:1073E40008B5FFF733FE104B00200B2218809A706B
:1073F4000E4B18600E4B18700E4B18700E4B4FF45A
:107404008012C021C3F8802183F814131A6002F19A
:107414008042A2F56F22C2F8080583F81113074BC6
:10742400D2F804251A6008BD5C3200207C330020A9
:10743400743300207533002000E100E0783300202D
:10744400074B9B784BB132B128B10368187C20B943
:1074540059745A617047072070470820704700BF6D
:107464005C3200202DE9F7431E4FBB7805460E46DB
:107474009046A3B398B304292FD943697BB3437CC3
:107484000024012B0DF107000CBF8946A1468DF89D
:10749400074000F049F90DF10600FFF791FDD0B166
:1074A40001230370104B4560D3F80435C0E90498F8
:1074B400C0E902369DF806307B709DF8070000F0A5
:1074C40057F924B9094B4FF48012C3F80021204620
:1074D40003B0BDE8F0830424EFE70724F7E70824AA
:1074E400F5E700BF5C3200200010014000E100E03D
:1074F400064A92783AB130B1426922B1002202744C
:107504000221FFF773BD0820704700BF5C320020E2
:107514000648074A03780749D35C012213B10430B3
:1075240001F0A8BE0C3001F06DBC00BFE8290020BA
:10753400EC330020A83300200648074A03780749A3
:10754400D35C012213B1043001F044BE0C3001F0CD
:1075540003BC00BFE8290020EC330020A93300203D
:1075640037B50578012D05D0002D30D0022D23D05C
:1075740003B030BD43681C4C19782046FFF7FDFC6E
:1075840078B18DF800500190184B68461B689847F5
:10759400A168E368A2885B1A9A4209D3FFF7B8FF8F
:1075A400E6E7A268E3689A42F2D08DF80000EBE7C0
:1075B4000F4B01221A70DBE7C3688DF8005001936A
:1075C400FFF7A6FF094B68461B689847D0E70949AF
:1075D4000948FFF7E4FC10B9FFF7AEFFC8E703233F
:1075E4008DF80030EEE700BF8433002080330020A4
:1075F40094330020A933002098330020F0B51F46AF
:10760400234B89B006461A600C4600293DD08A886F
:1076140020480968FFF7A2FC002834D1A289A16898
:107624001D48FFF79BFC00282DD11C4D0FCD6C4647
:107634000FC495E80F0084E80F0073690693337C48
:10764400174A18488DF81C70003318BF01238DF8B1
:107654001430737C002B14BF0E2300238DF81530D7
:10766400F3680293B36803933368019369467368BC
:10767400009300F0B7FE30B90B4B18703368013338
:1076840001D0FFF745FF09B0F0BD0720FBE700BFBD
:1076940080330020843300209833002058BF020038
:1076A40065750200E82900209433002070B5084C69
:1076B400014608482678FFF772FC054636B10023D8
:1076C4002370FFF725FF08B1FFF702FC284670BDC1
:1076D400943300208433002010B501460E48FFF790
:1076E4004CFC0446A8B90D480D4A0378D35C63B139
:1076F400043001F0B3FD60B90A490748FFF74FFCB5
:1077040038B9BDE81040FFF717BF0C3001F06EFB2D
:10771400F1E7204610BD00BF98330020E82900207F
:10772400EC330020A933002070B5EFF3108672B655
:107734000C4A946801239CB993600B4B0B4DD3F80E
:10774400801029401160C3F88050D3F88410516030
:107754004FF0FF32C3F88420047006B962B670BDDE
:107764000370FAE7AC33002000E100E0FC06FFBD43
:10777400084B9A6810B55AB150B9EFF3108172B63C
:10778400054A1C6814605C685460986001B962B66C
:1077940010BD00BFAC33002000E100E050E8002F32
:1077A4000B4640E8003C9CF0000FF7D110467047B0
:1077B40050E8003F43EA010240E8002C9CF0000F2F
:1077C400F6D11046704750E8002F02EA010340E862
:1077D400003C9CF0000FF6D11046704750E8003F83
:1077E40003EB010240E8002C9CF0000FF6D1104698
:1077F400704750E8003FA3EB010240E8002C9CF0E6
:10780400000FF6D1104670470121FFF7D1BF0021C8
:10781400FFF7D9BF37B5054600240DF107008DF8F1
:107824000740FFF781FF2A686B68116899420ED9F7
:10783400481E106011F8014CEB68298A01FB0434DE
:10784400AB6811791B1ADBB2994238BF13719DF8EA
:107854000700FFF78DFF204603B030BD37B505465E
:1078640000230DF107000C468DF80730FFF75CFF8D
:107874002A681368591C1160E968641A298AB4FBE0
:10788400F1F41C709DF80700FFF772FF03B030BDE0
:10789400826810B504462AB14369016800699847B3
:1078A4000023A36010BD0EB403B5039921B104AB4A
:1078B40001AA019300F06CF802B05DF804EB03B088
:1078C4007047826830B40468551C8560A154D0E9BF
:1078D40001329A4202D330BCFFF7DABF30BC7047A2
:1078E4002DE9F84F9946DDE90A4317468246884652
:1078F4000A460126BA420FD24E4538BF4E4613F00F
:10790400010B01D164B900240125B9F1010F1AD981
:1079140009F1FF397D43F8E7B2FBF7F20136E9E7F5
:107924009B070ED5B9F1000F0CBF30252025A642C8
:10793400EAD2013C29465046FFF7C3FF002CF6D19A
:10794400E1E72025F3E7B8FBF5F39F42E2D9DFF83E
:107954003C90B8FBF5F3504619F8031005FB138867
:10796400FFF7AFFFB5FBF7F3BD4207D2BBF1000F42
:1079740002D00CB1A64203D3BDE8F88F1D46E8E758
:1079840020215046013CFFF79CFFF2E778BF02003C
:107994002DE9F74F054617468846002900F0318146
:1079A40018F8011B49B92B7B002B00F02A812846CB
:1079B40003B0BDE8F04FFFF76BBF252940F0C0804E
:1079C400002698F800302D2B424608F1010823D0F8
:1079D400302B24D02B2B25D000242A2B02F101019B
:1079E40023D13B681A1D1B683A601C440A4613786D
:1079F4002E2B26D101324FF0000A104610F8011B3D
:107A0400A1F1300CBCF1090F1DD80A2303FB0A13A2
:107A1400A3F1300A0246F0E746F00106D1E746F04A
:107A24000206CEE746F00406CBE711F8013CA3F1C9
:107A340030000928DBD80A2202FB0434303C0A4611
:107A4400CBE74FF0000A12F8011B01F0FB00682895
:107A54009046F8D069290ED04AD8582964D006D85F
:107A640025296DD098F80030002B99D19BE7632924
:107A740062D06429F6D13A68D2F80090111D89EADF
:107A8400E9723960A2EBE9724FF0010B092A5BDC61
:107A9400D34538BFD3462CB1B9F1000F01DB7107D0
:107AA40000D5013CB20702D5BAF1000F04D0F307A8
:107AB40002D4002C4ED10024B9F1000F52DAC9F1DE
:107AC40000092D212846FFF7FCFE06F00302022AD6
:107AD40005D1BAF1000F02D1002C47D10024CDE921
:107AE400004653460A2249462846FFF7F9FEB9E7FD
:107AF40073294CD014D87029B4D13B681A1D3A604C
:107B0400302128461C68FFF7DCFE78212846FFF761
:107B1400D8FE00220823CDE9003221461022E3E7F3
:107B240075292BD078299DD139680A1D3A60CDE991
:107B340000465346102228E03B681A1D19783A6023
:107B44002846FFF7BEFE8DE70A230BF1010BB2FBBB
:107B5400F3F29BE7A345AFD220212846013CFFF76F
:107B6400B0FEA6E77007B0D52B21ABE7A345B6D28C
:107B740030212846013CFFF7A4FEADE73968CDE982
:107B840000460A1D3A6053460A220968ACE73B687E
:107B94001A1D3A60F107D3F8009020D4B9F1000F10
:107BA40025D0484603F0E3FC0646B44200D9C4B9E4
:107BB40009F1FF3920E028460136FFF782FE19F863
:107BC40006100029F7D1A642BFF44CAF002C3FF4B5
:107BD40049AF20212846013CFFF773FEF3E7002656
:107BE400EDE720212846013CFFF76BFEDDE74E461A
:107BF400DBE72846FFF765FE19F8011F0029F8D1D5
:107C040030E703B0BDE8F08F2DE9F047B0F80690F7
:107C14004479D2F800A09DF8208009FB04F4043CC8
:107C240006460AEB0300A0420F4688BFA4EB030AF2
:107C3400191DC2F800A0B1FBF9F509FB15114DB9E6
:107C4400A9EB0104544528BF5446BAF1000F04D1EE
:107C5400BDE8F0873668013DF1E704317B197018FF
:107C64002246B8F1000F0ED001461846AAEB040ACA
:107C740003F021FCD145254436684C464FF0000101
:107C840028BF5446E1E71946F0E7F8B546790146BE
:107C9400721E0546002393422D6803D30024A64296
:107CA40002D8F8BD0133F6E70F682846FFF7D6FD82
:107CB40001343946F3E72DE9F843068ACD1C07461B
:107CC400FFF7A8FD043E35440446B5FBF6F5F0B1D4
:107CD4004FF48073EDB28380C680013D0760814616
:107CE4004FF00008A84512D23846FFF793FD064628
:107CF40048B163790133637108F10108C9F80000E0
:107D040007608146EEE72046FFF7BFFF3446204672
:107D1400BDE8F88301210430FFF760BD10B50121EF
:107D240004460430FFF765FD10F0FF0F04D1204630
:107D3400BDE81040FFF7A9BF10BD1FB50392002294
:107D4400009203AAFFF760FF05B05DF804FB1FB5BE
:107D540003920122009203AAFFF756FF05B05DF8D3
:107D640004FB33DF70470000064B10B500241C7081
:107D7400054B1C60BFF35F8F0449054800F064F8AD
:107D8400204610BDC1330020C433002088BF020048
:107D9400B833002070B5264C054601212046FFF774
:107DA400FDFCBFF35F8F264638B9042D0AD0214B62
:107DB4001A781AB1BFF35F8F206070BD1E4A157028
:107DC40001221A701D4C1C4D6368BBB9FEF722FEDC
:107DD400FEF78CFC0028FBD1174B1B78023B012BD0
:107DE40014D8BFF34F8F1649164BCA6802F4E062E9
:107DF4001343CB60BFF34F8F00BFFDE71B682878A8
:107E0400984788B1204600F029F8DDE703F062F8CE
:107E140008B1FFF7A6FF4FF080430122C3F8002505
:107E2400BFF34F8F20BFFDE7BFF35F8F3060C4E720
:107E3400C4330020C1330020C0330020B8330020F5
:107E440000ED00E00400FA050B684A6843609342C1
:107E540008BF0023016008BF43607047436843B113
:107E64000268916852680B449342436004BF002344
:107E74004360704710B50D49A1F59472914201D841
:107E840000200FE08B1ADB1003EBD3735B1002EBC3
:107E9400C30452F83330834205D802D204F10802F5
:107EA400ECE7606810BD2146E8E700BFD8C00200D7
:107EB40008B5FFF7DFFF024B002808BF184608BDCE
:107EC4009DBF020010B50446C0B2FFF705FC204672
:107ED40010BD0000054B1B68082B01BF044B18683C
:107EE400B0FA80F0400918BF00207047300100103C
:107EF4003401001008B54FF080430022C3F80C2170
:107F0400C3F81021C3F838254FF0805203F54043DD
:107F1400D2F80414C3F82015D2F80814C3F82415B1
:107F2400D2F80C14C3F82815D2F81014C3F82C1581
:107F3400D2F81414C3F83015D2F81814C3F8341551
:107F4400D2F81C14C3F84015D2F82014C3F8441511
:107F5400D2F82414C3F84815D2F82814C3F84C15E1
:107F6400D2F82C14C3F85015D2F83014C3F85415B1
:107F7400D2F83414C3F86015D2F83814C3F8641571
:107F8400D2F83C14C3F86815D2F84014C3F86C1541
:107F9400D2F84424C3F87025FFF79CFF10B1384B86
:107FA400384A1A60FFF796FF18B1374BFB22C3F823
:107FB4001825FFF78FFF48B13449354B0A681B6811
:107FC40022F00F0203F00F0313430B60FFF782FF4D
:107FD40018B1304B4FF400721A604FF08043D3F85D
:107FE4000024D20744BF6FF00102C3F800242A4AD8
:107FF400D2F8883043F47003C2F88830BFF34F8F4F
:10800400BFF36F8F4FF01023D3F80022002A03DB55
:10801400D3F80432002B2FDA204B0122C3F80425B5
:10802400D3F80024002AFBD04FF010221221C2F80A
:108034000012D3F80024002AFBD04FF010231222A0
:10804400C3F80422154B1A46D3F800140029FBD0B8
:108054000021C3F80415D2F80034002BFBD0BFF381
:108064004F8F0D490E4BCA6802F4E0621343CB6094
:10807400BFF34F8F00BFFDE70A4B0B4A1A6008BDE0
:108084008C5600404881030000F00040E40E00409C
:10809400580200104096024000ED00E000E001406C
:1080A4000400FA05FC2900200090D003074B1B5C58
:1080B4001F2B8ABF064A4FF0A04203F01F03D2F8D9
:1080C4000405D840C04300F00100704792C4020088
:1080D40000030050074B1B5C1F2B86BF03F01F03DC
:1080E40005494FF0A041012202FA03F3C1F80C350F
:1080F400704700BF92C4020000030050074B1B5C92
:108104001F2B86BF03F01F0305494FF0A041012236
:1081140002FA03F3C1F80835704700BF92C40200A5
:108124000003005008B50020FFF7E8FF0120FFF727
:10813400E5FF0220FFF7E2FF0320BDE80840FFF758
:10814400DDBF08B50020FFF7C5FF0120FFF7C2FF20
:108154000220FFF7BFFF0320BDE80840FFF7BABFC6
:108164000A4B185C1F288ABF094B4FF0A04300F04C
:108174001F00D3F804250121814021EA02000A40AE
:10818400C3F80805C3F80C25704700BF92C4020069
:1081940000030050034BD3F810056FEA901000F071
:1081A4000100704700030050263818BF4FF0FF301D
:1081B4007047262070470000C10710B5044642D519
:1081C4004FF08043D3F84036DA072ED54FF0102312
:1081D400D3F8043303F00703072B26D11D4B0122E8
:1081E400C3F80425D3F80024002AFBD04FF0102153
:1081F400D1F8042322F0070242F00402C1F8042358
:108204000022C3F80425134AD2F80034002BFBD013
:10821400BFF34F8F1049114BCA6802F4E062134355
:10822400CB60BFF34F8F00BFFDE74FF0A0420C4976
:108234000323C2F81837C2F82037C1F82437C2F82C
:108244003037FFF76FFFA30742BF054B0C22C3F87B
:10825400182710BD00E0014000ED00E00400FA051D
:108264000003005038B5074C051E04F1080318BF7D
:108274001C4623682BB11A6822605B68284698471D
:10828400F7E738BDD033002020B9054B01225A70DE
:10829400FFF7E8BF012802D1014A9070F8E7704760
:1082A400C833002020B9034B01225A70FFF7DABF0C
:1082B400704700BFC833002038B50B4C237883B90E
:1082C4000A486360A3602361E36000F0D3F80546C5
:1082D40002F000FE08B900F0D9F801232370284603
:1082E40038BD8525FBE700BFC83300208D8202001E
:1082F40037B50B4C00230DF107008DF80730FFF75D
:1083040013FAE368013BE360E56815B900F0D2F8BD
:10831400A5709DF80700FFF72BFA03B030BD00BF2E
:10832400C8330020012813B509D018B103281CD084
:1083340002B010BD0F4B0122C3F88020F8E70E4CA9
:1083440000230DF107008DF80730FFF7EDF92378CE
:108354000BB9FFF7B1FFE3689DF807000133E36051
:108364000123A370FFF704FAE2E700F08FF8FFF7A8
:10837400BFFFDDE700E100E0C83300201FB503784C
:108384008DF8003043680193037A8DF80830C36890
:108394000393054A054B684653F8213052F82110DF
:1083A400984705B05DF804FBDC330020E43300207B
:1083B4001FB503788DF800304368019383688DF806
:1083C4000830C3680393054A054B684653F82130C7
:1083D40052F82110984705B05DF804FBDC33002007
:1083E400E4330020F0B5194B0678DFF870E043F869
:1083F4002620174B94460A6943F826204B7F0EF833
:1084040006300C4607460FCC89B06D460FC594E87C
:108414000F0085E80F001EF80630049653B1BCF136
:10842400000F0C4A694608BF0022381D00F0F0FD19
:1084340009B0F0BDBCF1000F074A694608BF00222D
:1084440007F10C0000F0AEFBF2E700BFE4330020BC
:10845400DC33002081830200B5830200EC3300206A
:1084640000F18040002382B0036003680193019B04
:1084740002B07047044A137923B901211060918036
:108484001846704785207047F0330020084B1A685F
:10849400D20706D4C02283F800230122C3F8802126
:1084A4001A604FF080430122C3F81825704700BFBB
:1084B40000E100E0044B01221A604FF08042D2F840
:1084C4001834DB03FBD470470C000040124B1B68CC
:1084D40010B573B14FF48070FFF7C2FF4FF08043C3
:1084E4000122C3F808230D4B587910B95A711B683F
:1084F40098470B4B1B6873B14FF48270FFF7B0FFC2
:108504004FF080430222C3F80823044B01201B6868
:10851400BDE81040184710BD00010040F0330020B2
:108524000401004000F1804000F5C040002382B007
:10853400036003680193019B02B0704703681F2B1B
:1085440083BF03F01F03036001484FF0A04070474E
:108554000003005007B5019001A8FFF7EFFF019B4E
:1085640000EB8300D0F8002722F44032C0F8002743
:10857400D0F8003743EA0143C0F8003703B05DF890
:1085840004FB0000054B4FF0FF32072843F820207E
:1085940084BF1B1883F85820704700BFF8330020AD
:1085A40010B5184C94F86A3053BB04F130033021F1
:1085B400FF22013911F0FF0103F8012BF9D1C8B2F0
:1085C400FFF7E0FF01310C29F9D1062200210E4802
:1085D40002F09AFF0D4BC02283F806234022C3F811
:1085E40080214FF4BE701A60FFF79CFF084B4FF0D8
:1085F4000042C3F80423012384F86A30002010BD2C
:108604000820FCE7F83300205C34002000E100E09F
:1086140000600040034B93F86A00003018BF01204B
:10862400704700BFF8330020F7B53B4E33180546BA
:1086340093F93030002B6CDA8B78C3F34003002BB2
:108644000BBF082400240C200820844202D10420FB
:1086540003B0F0BD56F82470013743D1701946F8C1
:10866400242080F8304013B9331983F858508B789C
:108674005A0717D4D80737D501A80195FFF75EFF2D
:10868400019B00EB8300D0F8003723F00203C0F80D
:1086940000372248EA0805F007070123BB40875C3E
:1086A4003B43835488780A7810F0020028D0A40051
:1086B40004F1804404F5C0442D02D4F8103523F4A9
:1086C4004F3323F44073C4F810351204D4F8103532
:1086D40005F47C5502F4403215431D43C4F810558B
:1086E4000020B5E70134B0E701A84A780195FFF707
:1086F40025FF019B03F5E073920040F82320C8E7AF
:10870400083C344494F8605045EA821284F86020AE
:108714009EE708209CE700BFF83300205C3400206B
:1087240073B5224C2518064695F93020072A19DD21
:10873400224492F858309B09032B0FD1019001A8D1
:10874400FFF7FCFE019AD0F81035D340DB0707D4BD
:1087540002213046FFF7FEFE02B070BD012BF7D0B8
:108764000321F6E7D3B2072BF6D8930003F1804335
:1087740003F5C043D3F8100540F00100C3F8100519
:1087840002F14000800080B2FFF7CCFE0029E3D064
:1087940095F9303054F82330002BDDD0012303FA4F
:1087A40002F2034BC3F80423D6E700BFF8330020DA
:1087B4000060004007B5019001A8FFF7BFFE019BD0
:1087C400D0F81005D84000F0010003B05DF804FBB8
:1087D4002DE9F04F002489B0CDE90244624D4FF4F5
:1087E4008072012102F1804303F5C04390B21B68FB
:1087F400012B06D1D5F804330B4202D0FFF792FEC9
:108804000C430432B2F5907F4FEA4101EAD1574B51
:108814001B68012B0ED14FF4BE70FFF783FE4FF09F
:10882400A04344F00044D3F810350293504BD3F8DE
:108834001035039314F0FF0F1AD04E4F0025012674
:10884400344210D0AB0003F1804303F5C043D3F8A6
:108854001005D3F8101557F8253023B1C1F30141A1
:10886400C0F3052098470135082D4FEA4606E7D1A5
:10887400002C75DA0DF1100800230493C8F80430B5
:108884004FF0FF33CDE90633DFF8E8A0DFF8E890D6
:1088940000273D4619F9014B631C48D0E4B201237B
:1088A40024F0C00604F0070203FA02F2F00808AB51
:1088B400191811F8083C134239D00AEB0603A4092D
:1088C40093F930305AF823B0BBF1000F08D1032CD0
:1088D4002DD118F800C04CEA020C08F800C001E0E1
:1088E400032CF6D001A80196FFF728FE019B11F88E
:1088F400181C03F5E07C114250F82C00C0F3014031
:1089040005D0022813D1032C0BD1214604E00328FF
:108914000DD1032C05D102213046FFF71BFE013592
:10892400EDB2BBF1000F02D021463046D8470137E3
:10893400042FAFD1A5B14FF0A0430299D3F810256D
:1089440003F540739142D3F8103502D1039999424B
:1089540006D002920393049A059B0692079395E727
:1089640009B0BDE8F08F00BF006000407C610040AA
:1089740000030050F833002058340020014B1B68DA
:10898400184700BF643400200E4B984237B50D469B
:1089940002D0002003B030BD00230DF107008DF894
:1089A4000730FEF7C1FE084B1C7914B901221D6083
:1089B4001A719DF80700FEF7DBFE002CE9D01120A8
:1089C400E8E700BF00200040643400200023435047
:1089D40082B043580193019B02B070470A4610B518
:1089E4004FF48E71FFF7F2FF136A9168C95C136A42
:1089F40001331362C0F81C1510BD024608B54FF4CC
:108A040092710068FFF7E2FF4FF484711068FFF77A
:108A1400DDFF136801221A6008BD8B690A4610B590
:108A24004FF4847123B9FFF7D1FFD0F8183510BD86
:108A3400FFF7CCFF536AD168D0F81805C854536ABD
:108A440001335362F3E700001FB501238DF80030B2
:108A5400044BCDE90110D3E900126846904705B0F4
:108A64005DF804FB6C34002030B54C4AD2F8043372
:108A740013F4007F85B015464FD0D2F82431002B73
:108A84004BD04FF492711046FFF7A0FF4FF40173DF
:108A9400C2F80833424B93F8291009B901215160F7
:108AA4003E4902228DF80020D1F88024C1F88024A8
:108AB40003929A690292DA6801920022C3E90622BB
:108AC4006846D3E9001290473448D0F81C315BB1B2
:108AD40033490A6A4B699A420A464BD291F82830C4
:108AE400002B47D1FFF77AFF2C4AD2F8443193B1D7
:108AF4004FF4A2711046FFF769FF294B93F8291030
:108B040009B1012111609A692AB100229A61586A57
:108B1400D968FFF799FF05B030BDD5F804335B077A
:108B2400D2D5D5F80831002BCED01D4C1B48214698
:108B3400FFF773FF636AA2699A422346C4D1E269CC
:108B4400E1684AB12369E3600023606AA261E361DA
:108B54006362FFF779FFB7E794F829200AB9012285
:108B64006A600E4A4FF40170C2F8080300229A6149
:108B7400586AEEE74FF48E710848FFF727FF5169F2
:108B84000029B1D00023029191688DF80030019141
:108B940053616846D2E900139847A5E700200040D6
:108BA4006C3400202DE9F843664B047991462C225D
:108BB40002FB0432064692F82A200D469846002A03
:108BC40040F0BC8060490068FFF7DEFE07460028DD
:108BD40040F0B68029684A1C10D01F2987BF01F0D5
:108BE4001F035A4A0B464FF0A0420120984003F558
:108BF400E073C2F80805032042F823006868431CA8
:108C04000DD01F288BBF00F01F0303464F4A4FF0BF
:108C1400A04203F5E0734FF0000C42F823C0336820
:108C2400AA6995F814C0C3F824256A7DBCF1010F24
:108C34004CEA0202C3F86C25C3F81405C3F80C15FA
:108C44002BD1A968481C0DD01F298BBF01F01F022E
:108C54000A463E484FF0A04002F5E0724FF0000C87
:108C640040F822C0E868421C13D01F2887BF00F0D8
:108C74001F0C364A84464FF0A0424FF0010E0EFA04
:108C84000CFE0CF5E07CC2F808E54FF0030E42F848
:108C94002CE0C3F80805C3F810152C23634308EB34
:108CA4000302C2F804902A6948F80320B9F1000FBE
:108CB40031D04FF48E7130682D7FFFF787FE306816
:108CC4004FF4A271FFF782FE3268214BC2F80433DD
:108CD400120B53B2002BA8BF03F160404FEA5313A9
:108CE4004FEA4511BABF1B4802F00F0500F5614079
:108CF4004FEA8303C9B203F16043B4BF415580F81E
:108D0400001303F5614302F01F02012101FA02F28C
:108D1400C3F880211A6033680422C3F800252C2389
:108D240003FB04830022C3E9062283F829205A6145
:108D3400012283F82A203846BDE8F8830827FAE799
:108D44001127F8E76C3400206D8A020000030050FC
:108D54008000020014ED00E02DE9F843224F06796B
:108D64004FF02C0909FB067480466569002D37D144
:108D74006261A16025624FF48E71006884F8285006
:108D8400FFF724FED8F80000012383602146FFF793
:108D940025FE6368A1462BBBD8F80050226A63699C
:108DA4009A4212D3D8F80030D3F81C21002AFBD001
:108DB4000122DA6000202C2303FB06760023736172
:108DC400BDE8F88394F8283043B9D5F81C31002B5A
:108DD400F8D049462846FFF701FEDFE70F20EAE70F
:108DE4001120EDE72846EBE76C3400200379044AB0
:108DF4002C2101FB03235869003018BF0120704760
:108E04006C3400202DE9F843384E05792C2303FBFC
:108E1400056307465C6824B103684FF40170C3F826
:108E240008032C2303FB0563986950B1D869002813
:108E34003ED024B13B684FF40172C3F804231120DF
:108E440034E09A61D9605862D8612C2303FB05632E
:108E540093F829301BB910B93846FFF7CEFD4FF00F
:108E64002C0909FB05683868D8F80430002B34D184
:108E74004FF4A271FFF7AAFDC1463868D0F8243137
:108E8400D0F80821D0F84441B2B90CB9002BF4D081
:108E94002C2202FB05650022AA611BBB24BB95F8AA
:108EA40029103B680122B1B11A600020BDE8F883A3
:108EB4001961DA610120C8E7002BE9D1002CE7D160
:108EC4004946FFF7AAFDD8F82430D8F818209A426A
:108ED400D3D82346DCE75A60E7E74FF40173C0F8C0
:108EE4000433E2E70320E1E70F20DFE76C340020DE
:108EF4000023435082B043580193019B02B0704752
:108F04001FB501238DF80030054B8DF80800019141
:108F14006846D3E90012904705B05DF804FB00BF32
:108F2400983400207FB5384AD2F82461002E49D005
:108F340010464FF49271FFF7DBFF02238DF80030E7
:108F4400D2F88034C2F880340393D2F83C358DF8DB
:108F540008302E4BDA6801920022C3E906226846E3
:108F6400D3E900129047284AD2F8443173B14FF440
:108F7400A2711046FFF7BCFF244B996931B100215F
:108F84009961D2F83C05D968FFF7BAFF1E4AD2F8B6
:108F94002031ABB14FF490711046FFF7A9FF1B4B82
:108FA400596969B1D2F84C158DF8081000229968F6
:108FB4008DF8002001915A616846D3E90012904768
:108FC40004B070BDD2F81031002BCCD04FF48871AE
:108FD4001046FFF78DFF0D4BD2F83C059969884286
:108FE400C1D1DC69D96864B1D2F8005225F02005FA
:108FF400C2F800521A699C61DA60DE61FFF780FFF3
:10900400B1E79C61FAE700BF0020004098340020DB
:109014002DE9F8436A4B06799146242202FB063275
:10902400044692F820200D469846002A40F0C48059
:1090340064490068FFF7A8FC0746002840F0BE809A
:109044002868421C10D01F2887BF00F01F035E4A07
:1090540003464FF0A0420121994003F5E073C2F8A2
:109064000815032142F8231069684B1C0DD01F29F1
:109074008BBF01F01F030B46534A4FF0A04203F588
:10908400E0734FF0000C42F823C02368AA6995F8F6
:1090940014C0C3F824256A7DBCF1010F4CEA020216
:1090A400C3F86C25C3F80C05C3F814152BD1A968B3
:1090B400481C0DD01F298BBF01F01F020A464248ED
:1090C4004FF0A04002F5E0724FF0000C40F822C0CF
:1090D400E868421C13D01F2887BF00F01F0C3A4ACF
:1090E40084464FF0A0424FF0010E0EFA0CFE0CF530
:1090F400E07CC2F808E54FF0030E42F82CE0C3F818
:109104000805C3F810152423734308EB0302C2F8BF
:1091140004902A6948F80320B9F1000F3BD04FF4BA
:10912400887120682D7FFFF7E3FE4FF4907120686B
:10913400FFF7DEFE4FF492712068FFF7D9FE206836
:109144004FF4A271FFF7D4FE2268204BC2F8043317
:10915400120B53B2002BA8BF03F160404FEA531324
:109164004FEA4511BABF1A4802F00F0500F56140F5
:109174004FEA8303C9B203F16043B4BF415580F899
:10918400001303F5614302F01F02012101FA02F208
:10919400C3F880211A6023680822C3F80025242319
:1091A40003FB06830022C3E906225A61012283F8E5
:1091B40020203846BDE8F8830827FAE71127F8E7A6
:1091C40098340020298F020000030050100302008D
:1091D40014ED00E001F06043B3F1005F2DE9F041CC
:1091E400074632D11C4B0679242505FB06359846E3
:1091F4006C6964BB6A61A96000684FF49071FFF701
:1092040077FE4FF4AC713868FFF772FE3B686A6909
:10921400A968C3F84415C3F8482501229A606A680E
:10922400BAB9D3F82011D3F8582149B9002AF8D093
:109234000F20242303FB068600237361BDE8F0811D
:10924400002A14BF0F200020F3E71020F6E71120B6
:10925400F4E72046F2E700BF983400200379044A7B
:10926400242101FB03235869003018BF01207047F3
:1092740098340020F8B501F06043B3F1005F044670
:109284000F465FD10379304D242101FB0351486817
:1092940020B121684FF40476C1F80863242101FB4E
:1092A40003539E6956B1D96900293AD020B1236885
:1092B4004FF40472C3F80423112031E09A61DF6093
:1092C400DE614FF488712068FFF712FE4FF4A2713B
:1092D4002068FFF70DFE2368C3F83475C3F83825FA
:1092E4001EBB01221A602179242202FB015252681A
:1092F40012BBD3F81001D3F84421D3F8244110430E
:1093040002D1002CF5D00246242303FB015500238F
:109314009C4214BF032018469A42AB6118BF0F2029
:10932400F8BD1F61DA610126CBE7D3F8002242F0D1
:109334002002C3F80022D6E74FF40472C3F80423D2
:109344000020EDE71020EBE7983400200220FEF720
:1093540007BF000008B5094B1B7853B10020FEF786
:10936400CDFE0120FEF7CAFE0320BDE80840FEF74B
:10937400C5BEBDE80840FEF7D5BE00BFBD34002021
:10938400F8B57B4C237805461BB100232370FFF707
:10939400E1FF172D00F28880DFE805F00C17174372
:1093A40054657680888D888D959A9A9A9A9AC4C9BC
:1093B400D1D9E4E4FFF7CEFF6E48FEF799F86E4B7F
:1093C400002204461A702046F8BD0020FEF76EFE07
:1093D400F8B10020FEF792FE022D0CBF4FF4E161BC
:1093E4004FF47A61644B1D704FF400404FF4FA74EB
:1093F4000025E0FB01454FF47A72002320462946FC
:1094040001F0F2FE002201465A48BDE8F840FEF79A
:1094140029B8FEF75FFE022D0CBFC8214FF4C871B6
:10942400E0E70020FEF742FE40B10020FEF766FEB2
:109434004FF44871504B03221A70D5E7FEF74AFEE9
:10944400C821F7E70020FEF731FE38B10020FEF70F
:1094540055FE4FF47A61484B0422EDE7FEF73AFEDD
:109464004FF4C871F7E70020FEF720FE48B1002052
:10947400FEF744FE404B05221A7041F69A11002271
:10948400C2E7FEF727FEF5E70020FEF769FE3A4B38
:1094940006221A70002240F6CD41B5E70020FEF7FF
:1094A40019FE354B07221A7000248CE70120207026
:1094B400FEF756FEEEE701202070FEF751FE002273
:1094C4004FF48041A0E7FEF73CFE2B4B0C22EAE769
:1094D4002A482B4EFEF70CF8D5F1110504461CD092
:1094E400D8B9012D13D0C8235D434FF400474FF47E
:1094F400FA7000214FF47A720023C7FB050101F0D2
:1095040073FE224601461D48FDF7ACFF04460220C7
:10951400FEF7E0FD0123337055E70220FEF7EEFD70
:109524000023F8E7FFF716FF134B1222BBE7FFF700
:1095340011FF0020FEF7CEFD0F4B1322B3E7FFF718
:1095440009FF0120FEF7C6FD0B4B1422ABE7FFF722
:1095540001FF0020FEF7BEFD0120FEF7BBFD064B18
:109564001522A0E7FEF7EDFD034B1D709CE700BF3D
:10957400283500200035002030350020C03400207C
:10958400BD340020044B1B68DB0703D5034B18785C
:10959400FFF7F6BE704700BF2435002030350020A9
:1095A4002DE9F04107460C46FEF7FEFD20B9012CDB
:1095B40004D0ECB1022C25D0BDE8F081134D6A78BB
:1095C4002C7842B1124E134832464FF40041FDF755
:1095D40049FF00B93770104BAA781A70002CEBD0F1
:1095E4000E4B1B68002BE7D02046BDE8F04118471E
:1095F4000848FDF77DFF054B9C78074B1B78A34279
:10960400DAD1EBE7014B5C78E8E700BF20350020B6
:10961400BC340020E0340020313500202C350020FB
:1096240002210078FFF7BCBF002810B54FF00000FE
:1096340014BF03240024FEF7BCFD1F288ABF0A4B75
:109644004FF0A04300F01F0003EB8000D0F8002788
:1096540022F44032C0F80027D0F8003743EA04432C
:10966400C0F80037002010BD0003005008B9FEF711
:1096740091BD002070470000044B1B6813F00103E8
:1096840001D0FFF77DBE1846704700BF2435002087
:1096940038B5194B1860194B10F0020405461960CF
:1096A40014D0174B17480E221A70012140F266623B
:1096B400FDF7A4FB044648B9FDF7F4FB044628B9BA
:1096C4000146114A1148FDF7BBFE0446EB0711D5CC
:1096D4000120FEF771FD6CB921460D4A0D48FDF7D6
:1096E400AFFE044630B90C4A0C480121BDE83840AD
:1096F400FDF7A6BE204638BD243500202C350020B9
:1097040020350020B8C4020025960200C4C402001B
:1097140089950200C8C4020051930200C0C402002B
:1097240048B9012A02D1012907D00246012905D0EE
:1097340051B1022905D0072070470E22044B1A703C
:109744007047034B5A707047014B9A70704700BFC3
:109754002035002010B90120FFF766BF06207047AE
:1097640008B5012202210020FFF7DAFF08B107281B
:1097740010D1072202210120FFF7D2FF08B10728E8
:1097840008D100210A220846FFF7CAFF10B10728B2
:1097940008BF002008BD00000388102B10B502D0BC
:1097A400112B1ED010BD1A4C2168B1B901220846F4
:1097B400FFF7B6FF08B1072824D1072202210120B0
:1097C400FFF7AEFF08B107281CD1042202210020B4
:1097D400FFF7A6FF08B1072814D1236801332360DB
:1097E400E0E70B4A1368013B1360002BDAD1FFF763
:1097F400B7FF0028D6D0074B1B68002BD2D0BDE89A
:1098040010401847034B1B68002BE6D09847E4E749
:10981400383500203435002008B50020FFF79AFFC2
:1098240008B1062806D10120FFF794FF10B10628DD
:1098340008BF002008BD00000D4B10B518600C4691
:1098440029B10120FFF712FF40B102232370094B15
:109854001B6853B9BDE81040FFF782BFFFF706FF4E
:1098640008B10B23F2E72070F1E7002010BD00BF20
:10987400343500203835002075DF704776DF7047B7
:109884007FDF70478FDF70470146014801F079B9E7
:109894003436002003881B2B13B5044639D01BD85B
:1098A400112B29D0132B42D0102B1AD181882A488E
:1098B400002201F079FA08B1FDF70AFB0720FFF74F
:1098C400DBFE08B1FDF704FBA188244800F014FD79
:1098D40038B1FDF7FDFA04E0212B35D003D81F2B56
:1098E4002CD002B010BD3B2B01D0562BF9D1132143
:1098F400A088FFF7C3FFEBE7194B1A48A2881A495F
:10990400C01AC0080004237A40F00300FDF765F88C
:10991400E7E7037A022BE4D1114B12481349C01A2A
:10992400C008000440F00300FDF74AF8D9E700231B
:109934001A4685218088FFF7A3FFC9E700F10801D3
:109944008088FFF799FFC3E7002301A98088ADF859
:109954000430FFF797FFBBE734360020022A0020CB
:1099640030BD020058BD0200E4C4020012C502006A
:1099740008B5074800F0F8FF08B1FDF7A9FA01207F
:10998400FFF77AFE18B1BDE80840FDF7A1BA08BD9B
:10999400583600200378012B70B5044636D013B135
:1099A400022B24D070BD1D4C1D4D20882844FDF78A
:1099B4007DFE238801339BB21D44238015F8012CBE
:1099C4000A2A03D0174A12889A42EBD8144D164E2D
:1099D40022882946304601F0A9F9082804D0132822
:1099E400F6D008B1FDF774FA00232380DAE70F48B4
:1099F4000F4B1049C01AC008000440F00100FCF7E6
:109A0400DFFF6068BDE87040FDF762BA0748084BA5
:109A14000949C01AC0080004EFE700BF303600202F
:109A24003C350020002A00203436002058BD0200B6
:109A340030BD020056C6020088C6020010B50446B6
:109A44000020FFF719FE08B1FDF742FA24B9FFF729
:109A5400E3FE08B1FDF73CFA012010BD0A8840F688
:109A640077239A4270B50D4616D10C4B0C4C0D4918
:109A7400E41AE408240444F003042046FCF7A0FF9D
:109A8400AB88094A0949033B9BB2138020461A4616
:109A9400BDE87040FCF7A1BF70BD00BF30BD02003F
:109AA40058BD0200CFC50200002A0020EBC5020009
:109AB400042808B506D00A2810D10020BDE80840C3
:109AC400FEF768B9064B13215888FFF7D7FE30F02C
:109AD400080303D0BDE80840FDF7FAB908BD00BF8C
:109AE400343600200B78012B2DE9F04106460D4653
:109AF40024D01BB1022B59D0BDE8F081324B334C3A
:109B04003349E41AE408240444F003042046FCF72F
:109B140057FF05F10E026988304601F045F908B196
:109B2400FDF7D6F9304601F0DFF808B1FDF7D0F9BA
:109B340020462849BDE8F041FCF742BF234C224BA4
:109B44000D7B8E68E41AE4082404AFB244F00104E7
:109B54004FF00008A8451DD335441F4801F07AFC96
:109B640015F8013C0D2B1CD0DFF878803A463146BD
:109B7400404601F0DBF805460028BDD01128F5D099
:109B8400024616492046FCF71FFF2846BDE8F0416F
:109B9400FDF79EB916F80800FDF79EFD08F10108CF
:109BA400D8E70A20FDF798FD1128DCE7064B0748A3
:109BB4000B49C01AC008000440F00300FCF700FF82
:109BC400BDE8F041FFF7D4BE30BD020058BD02002D
:109BD40030C5020044C50200B4BE020098C50200AC
:109BE400C1C50200343600201FB50378062B12D0FD
:109BF400072B17D0042B2AD1164B17481749C01A24
:109C0400C008000440F00300FCF7DAFE04B0BDE82D
:109C14001040FFF7ADBE4068C8B104B0BDE81040C5
:109C2400FDF756B941680B4C0B488B784A78001BFA
:109C34008C7903944C7902940C790194C008C97806
:109C440000910004064940F00300FCF7D0FE04B084
:109C540010BD00BF30BD020058BD020046C6020060
:109C640018C6020008B50849084800F0E5FC08B128
:109C7400FDF72EF9F721054800F0F2FC18B1BDE814
:109C84000840FDF725B908BD619A0200443600205A
:109C940000B58BB0FDF7A4FB08B1FDF719F93B4DF6
:109CA4000FCD04AC0FC495E80300394B394A009337
:109CB4004FF4807384E80300CDE902230193364A0C
:109CC4000723694604A8FDF799FC08B1FDF700F9DC
:109CD40032490120FFF7DCFC08B1FDF7F9F804A9CB
:109CE4000020FFF7A9FD08B1FDF7F2F82C4800F0B9
:109CF400C9FA08B1FDF7ECF8FEF736F808B1FDF73C
:109D0400E7F801F0A9F808B1FDF7E2F8002304A987
:109D14000120049301F02EF908B1FDF7D9F804A845
:109D240001F0F8F908B1FDF7D3F8FFF79BFF1D4BDD
:109D34001D48049304A900F073FF08B1FDF7C8F8A7
:109D4400102200210DEB020001F0DEFB0123174A73
:109D540017488DF8143004A98DF81C3000F0AAFDC2
:109D640008B1FDF7B5F8134A1148032100F077FD57
:109D740008B1FDF7ADF8002204210D4800F086FD7E
:109D840008B1FDF7A5F8FFF7F3FDFEE7CCC4020028
:109D9400A8360020A837002099990200B59A02003D
:109DA4008D980200E99A020034360020ED9B0200EF
:109DB4005836002014C602000369C1688B429DBF57
:109DC4008268D21802F1FF3203F1FF3394BF501AB4
:109DD400581A70472DE9F041D0E9027405463E1B3C
:109DE4004068964220448846144404D901F063FB39
:109DF400EC60BDE8F0813246E41B01F05CFB2246D6
:109E040008EB06016868F1E72DE9F843C5680646E2
:109E1400894617464FF000083469B3687068A54254
:109E240028BFE418013C621B5C1BBC4228BF3C46B3
:109E3400944228BF144649462844224601F03BFB7D
:109E4400B3682544AB4208BF00253F1BA044A1448E
:109E5400F560E1D14046BDE8F8830000F8B5184C40
:109E6400182300FB033503FB00402544C46A012C7E
:109E74000F46164611D024B1022C1BD000242046D4
:109E8400F8BD2846FFF798FFB042F8D3324639466A
:109E94002846FFF79FFF3446F1E72846FFF78CFF7B
:109EA4008642344628BF0446224639462846FFF7F0
:109EB40091FFE4E72846BDE8F840FFF7A5BF00BFDF
:109EC400A838002064DF704770B5C0B14AB1168865
:109ED4000024B44203D305196D789D4208D0A142F1
:109EE40001D800200BE0055D01352C44A4B2F0E755
:109EF400A142F6D9A31C1380005D013880B270BD65
:109F0400F0B587B0002306460D461046ADF806307E
:109F140002AA10230DF105018DF80530FFF7D2FFD9
:109F240016B9002007B0F0BD0028FAD19DF805301D
:109F3400042B2CD0102B2DD0022BF3D11C46032341
:109F4400BDF806207AB90DF1060229463046FFF71E
:109F5400BBFFBDF806302BB923460DF1060230468F
:109F6400FFF7B2FF0546BDF80670002FD9D00024D4
:109F7400A542D6D9E0199DF8052002A9304401F084
:109F84002EFA50B19DF805301C44A4B2F0E71C46EB
:109F94000523D5E706240723D2E70120C2E79BDF88
:109FA40070479DDF70479EDF7047000030B50B4B54
:109FB40019680B4B0022914201D1002009E09D78E1
:109FC4008478A54206D11D880488A54202D1054B98
:109FD400186830BD01320433EDE700BF2839002092
:109FE400303C00202039002070B590F8C632164667
:109FF4007622A0B002FB03000D46FFF7D7FF04460C
:10A0040060B17C22002101A801F07EFA01238DF8C1
:10A014000430ADF80660029501A8A04720B070BDD9
:10A024002DE9F74F8B4690F8C612019276238046AD
:10A0340001FB03000091FFF7B9FF814670B3194E8D
:10A044003568052D2AD8184C0099019A4FEAC51A8B
:10A0540004EB0A07762303FB01817A80381D1A4634
:10A0640001F029FABBF1000F14BF0023022304F806
:10A074000A300E4BC7F87C901A680135954235605A
:10A084001D460BD10027E36F204698472B68013704
:10A094009F4204F18004F6D30023336003B0BDE88B
:10A0A400F08F00BF2C3C00202C39002028390020E0
:10A0B40037B590F8C53290F8C6220C46C3B1013BBF
:10A0C4007621DBB25143122505FB031303445B8A5B
:10A0D40001339BB2ADF80430762303FB020201A9DD
:10A0E4001389ADF806302046FFF75BFF03B030BD9F
:10A0F400762303FB0203DB88ECE7000038B54FF45A
:10A1040033720D460021044601F0FEF9114AA4F809
:10A11400CA5200231360104A84F8C93212682260BC
:10A1240084F8C63284F8C532224601212846FFF756
:10A1340036FF112806D020B9012384F8C73284F8E9
:10A14400C80238BD012284F8C72284F8C822184600
:10A15400F7E700BF2C3C0020303C002070B50C46D3
:10A1640090F8C922174901320968D2B28A420346DB
:10A1740080F8C9224FF0000521D290F8C61280F869
:10A18400C5520131C9B280F8C612762011FB00F025
:10A194000D4E1A1856F82110195001211571204638
:10A1A400FFF7FDFE014648B183F8C7522246184620
:10A1B400FFF71AFF054B03221A705C8070BD80F80C
:10A1C400C752F7E728390020303C00202C39002002
:10A1D4002DE9F34790F8C65290F8C542762315FB53
:10A1E40003F54619122796F804E017FB045304F10B
:10A1F400010C0A33F445034411D000F11C0A06F1A2
:10A2040022080EF1FF39AA44E5B2AE450BD9A145A7
:10A214001D891AD133899D4226D100231DE01B8953
:10A224003089834205D101230B70002002B0BDE8C0
:10A23400F0870133ADF80430ADF8060000230B704D
:10A24400104601A9FFF7AFFEF0E707FB04F3013561
:10A2540038F803C065450DD1534490F8C552013513
:10A2640080F8C5520134CFE70135ADF80450ADF89C
:10A274000630E3E70CF1FF3CADF80450ADF806C03E
:10A28400DCE7000058B1074A00231360064A0121A5
:10A294001170064A1360064A1060184670470E2073
:10A2A400704700BF28390020243900202C3C0020AE
:10A2B4002039002010B5044680B10C4B1B787BB1CB
:10A2C400FFF774FE70B90A4A1368052B0CD80949C4
:10A2D400246841F823400133136010BD0E20FCE7CD
:10A2E4000820FAE70020F8E70420F6E724390020E4
:10A2F40028390020303C002050B1084A12784AB175
:10A30400074A126832B190F8C7322BB9FFF7F6BE8C
:10A314000E20704708207047112070472439002010
:10A32400283900202DE9F7430C460546C8B1C1B1D0
:10A33400984B1B78ABB10388302B35D014D8112B34
:10A3440000F0188194F8C8325BB12B88303B1F2B86
:10A3540007D8B4F8CA32A988994202D12046FFF737
:10A36400CDFE03B0BDE8F083322B42D0332BE9D1CC
:10A374008288B1F8CA329342E4D1C68891F8C6C241
:10A3840091F8C572002E00F0BF80762101FB0C4CC1
:10A394007B1C9CF8041000268B428DF8076000F0AB
:10A3A400E38084F8C532A0E08388B1F8CA229A42D7
:10A3B400C8D1C688A6B991F8C632C068762113FB05
:10A3C40001F3E118E0502B69C1F80630204611462C
:10A3D400FFF76EFE01460028B4D084F8C7624CE053
:10A3E40000212046FFF71CFEA9882046FFF7B6FE91
:10A3F400A8E78288B1F8CA329A42A3D1C388002B55
:10A404006FD191F8C662762316FB03F701EB0709B7
:10A41400837A99F804603344062B38DC89F80430D5
:10A4240006EBC60307EB430305F10C0C234400229F
:10A4340099F8040086420CF10A0C03F112033DD38F
:10A444001223013E03FB064694F8C632762202FB31
:10A4540003433E441B89728A9A4242D2062840D062
:10A46400A98884F8C5022046FFF722FE0146002889
:10A474003FF468AF002384F8C732AA882046FFF768
:10A48400B3FD454B03221A70AA885A805AE7062363
:10A4940089F80430414A424BA3EB02084FEAD8083A
:10A4A4004FEA084848F00208CA5B3E494046FCF7B8
:10A4B4008BFA3D494046FCF783FAB1E76046A3F1C5
:10A4C400080150F80AED43F808ECD0F804E043F82A
:10A4D40004EC0089088101365A809A80DA801A8156
:10A4E400A6E7002684F8C562AA880DF10701204674
:10A4F400FFF76EFE014600287FF46FAF9DF807302A
:10A50400002B3FF41FAF32E0762303FB0CF1122340
:10A5140003FB0713B0F80AE023447645BFF435AFD4
:10A52400C189A1F52451082908D8DFE801F01417DE
:10A534000507070707071A0081899982998A39B1A3
:10A54400D98A29B1198B19B1598B00297FF41DAF10
:10A5540001360630E1E78189D982EFE781891983E1
:10A56400ECE781895983E9E701238DF80730AA884C
:10A57400012136E78288B1F8CA329A427FF4E2AE0A
:10A58400002381F8C73281F8C8324FF6FF73A1F86F
:10A59400CA32D7E6243900202C39002030BD02000D
:10A5A40060BD0200B4C60200FAC6020090DF704724
:10A5B400A5DF7047B5DF70477FB50023ADF80810FD
:10A5C400ADF80A106A4602A9064603930093ADF853
:10A5D4000430FFF7EBFF054600B3124B124CE41AAC
:10A5E400E408FDF765FC240444F001040346324604
:10A5F4000E492046FCF7F1F9BDF80020BDF8023001
:10A6040052EA030103D00A492046FCF7E6F9BDF8F3
:10A6140004201AB107492046FCF7D6F9284604B0AD
:10A6240070BD00BF30BD020080BD020060C70200E3
:10A63400AAC70200E9C7020080B14FF0F713036014
:10A64400FB230371F723C3801723038141F6FB32F5
:10A654000023016143818281184670470E207047B0
:10A6640030B1A1F11703E02B04D8418000207047DA
:10A674000E2070470720704713B5034680880C46A8
:10A68400A0B91A88232A00F0A48011D8102A22D055
:10A69400112A51D0A37A4BB1E1880020FFF788FF3B
:10A6A400002840F09C804FF48073638102B010BD99
:10A6B4003A2A4AD0552A60D0242AEBD11A7A0B6957
:10A6C4004A73002BE6D04DF67A21ADF804000091D0
:10A6D4008DF8042079E0DB7B0A790A73012B13D00F
:10A6E400022B14D0E18823898B4205D20020FFF786
:10A6F4005FFF70B90123E372217B637B8B42C9D274
:10A704000020FFF759FFC5E70B88E380EAE74B8891
:10A71400FBE7112802D10123A372EDE7FDF7C8FB83
:10A72400374A384B38499B1ADB081B04024643F06E
:10A734000100FCF749F9DFE7F723CB8017230B81EE
:10A7440041F6FB3348818B81A4E75B89CA88934235
:10A7540028BF1346172B0A6938BF17230B814AB148
:10A76400C97A39B140F677210091ADF804306946D1
:10A7740020469047002363818CE7DB88C988A07258
:10A78400172B38BF17238B4228BF0B462381FFF7B3
:10A7940011FF60B1FDF78CFB194A1A4B1B499B1A38
:10A7A400DB081B04024643F00100FCF70DF9E37AD1
:10A7B400002B7FF46FAF2369002B3FF46BAF40F69F
:10A7C400772200922289ADF80420694620469847F2
:10A7D40060E7197A237B994228BF194691E711282B
:10A7E4003FF464AFFDF764FB054A064B06499B1A28
:10A7F400DB081B04024643F00100FCF7E5F855E7CB
:10A8040030BD020080BD02003FC8020070C80200D3
:10A814008ADF70478BDF70478CDF704770B5037A2F
:10A8240086B004460D46C3B1867CFFF7F3FF1422BD
:10A83400002101A800F068FE334604F10A0204F185
:10A844001401A81CFFF7E8FF06238DF804300290DA
:10A8540018B1636A0BB101A8984706B070BD10B572
:10A86400034668B162B103290CD1007960B91C8830
:10A8740011888C4203D00121197112681A6010BD2D
:10A884000E20FCE70720FAE70420F8E750B1CB06D6
:10A894000AD011F0040116BF012341714371827182
:10A8A400002070470E20704707207047007DC0F3DA
:10A8B400C0007047F8B50D460446002852D04262E5
:10A8C4000021082200F020FE002D38D02B792372BD
:10A8D4002B7BA3742B68FBB104F1140203F108076A
:10A8E40018685968164603C60833BB423246F7D186
:10A8F400186830609B88B380AA68C2B11368C4F832
:10A904000A305368C4F80E3004F12803A3641F23EB
:10A91400A4F84C300020F8BD636903F0E30343F46A
:10A92400200343F4827363615023A361E4E70623A5
:10A9340063811823E3604FF4C8732382E4E76369F7
:10A94400257203F0E30343F4200343F48273636149
:10A954005023A361062363811823E3604FF4C87373
:10A964002382D1E70E20D6E710B5044686B048B35B
:10A974001422002101A800F0C7FDFFF74BFF204679
:10A98400FFF794FF30B1636A23B101228DF80420EC
:10A9940001A8984704F1480104F11400FFF738FFB7
:10A9A400044630F008000BD0074B08480849C01A89
:10A9B400C008000440F001002246FCF705F82046D8
:10A9C40006B010BD0E20FBE730BD020070BD0200D2
:10A9D400ACC802002DE9F04F05468BB035F8083BB2
:10A9E4001B2B80460C4600F09A8005D8102B00F0F3
:10A9F400AF800BB0BDE8F08F1D2B18D0202BF8D101
:10AA040014220DEB0200002100F07EFD626A002A90
:10AA1400EFD02868696805238DF8143006AB03C3AA
:10AA24001434297A0994197005A89047E1E714228F
:10AA340000210DEB020000F067FD04F11403204631
:10AA44000993FFF733FF04F1480B064678B102235C
:10AA54008DF8143005A8636A069598475946002076
:10AA6400FFF7D6FE29462046FFF7D8FEC1E76379F3
:10AA740094F80690002B47D02379B8F8242001924B
:10AA840004EB8302A24602920746029A924503D13E
:10AA9400B9F1000F2AD10DE052460199D8F82000EF
:10AAA4000393FFF72DFA039BE8B10137FFB2B9F125
:10AAB400000F26D1E7B9002301220695B9F1000F52
:10AAC40025D09A4227D100238DF8143029462046F8
:10AAD400FFF7A4FE636A0BB105A898475946002006
:10AAE400FFF796FE85E7B9F1000F0AD0BB42E2D129
:10AAF4009DF81C30012643F004038DF81C303346C6
:10AB0400DAE70AF1040AC0E703460246D5E716B1BC
:10AB14008DF81490DAE703238DF81430DAE7142261
:10AB24000DEB0200002100F0EFFC98F80820012A48
:10AB34007FF45FAF636A002B3FF45BAF04211434EE
:10AB44008DF8141009948DF8182005A8984750E73B
:10AB5400142200210DEB020000F0D6FC07238DF82F
:10AB64001430B8F80430ADF81C3004F11403099320
:10AB7400636A0695002BE8D13BE7A3DF704762DFE9
:10AB840070472DE9F0410C4686B005461422002199
:10AB940001A800F0B9FC23785BBBA288012A28D164
:10ABA400A1792A78914224D1277ABDF81260BDF8A0
:10ABB4001400BDF816C0122111FB074122461F469E
:10ABC4009E46914218D1BEF1000F01D0ADF816C0D7
:10ABD4000FB1ADF812600BB1ADF81400EB6843B1DE
:10ABE4006288ADF8062000228DF8042001A92846C9
:10ABF400984706B0BDE8F081B2F80E80B8F1020FB4
:10AC040004D0B8F1030F06D01232DAE7B2F816C056
:10AC14004FF0010EF8E70123D68A108B1F46F3E7A5
:10AC2400F0B5154A87B002AC03460E4602F1100C8B
:10AC3400274610685168254603C5083262452C46EC
:10AC4400F7D1BBB1B6B119463846FFF798FF78B9CA
:10AC54001A788DF806200122ADF804204FF6FF7211
:10AC64005A803268DA609880188101A8FFF722FBC5
:10AC740007B0F0BD0E20FBE7D9C802007FB503463C
:10AC84000846F9B1F3B14A884FF6FF718A4202D0FF
:10AC94009988914216D11988112916D0392911D1D0
:10ACA40082887AB1598991420CD1C26852B101218A
:10ACB4008DF8041003F11001DB8903918DF8103035
:10ACC40001A9904707B05DF804FB9B889342F9D132
:10ACD400C368002BF6D002228DF804204FF6FF72D1
:10ACE400428001A99847EDE71FB50346D0B14088DB
:10ACF4004FF6FF72904217D0DB88ABB10122ADF85A
:10AD04000020ADF8063040F201124FF4003301A9DF
:10AD1400ADF804200293CDF80CD0FFF72EFF05B058
:10AD24005DF804FB0E20FAE70820F8E71FB5034698
:10AD340080B3F42A0CD9184B18481949C01AC00812
:10AD4400000440F00200FBF73BFE072004B010BDF6
:10AD540040884FF6FF74A0420BD10F4B0F481149A6
:10AD6400C01AC008000440F00200FBF729FE0820C6
:10AD7400ECE71B89ADF806304FF48174002303918E
:10AD840001A9ADF80440ADF80830ADF80A20FFF78A
:10AD9400F4FEDBE70E20D9E730BD020068BD0200F7
:10ADA400E9C80200FBC8020048B141802AB15388B7
:10ADB400C3801388838093880381002070470E200A
:10ADC400704710DF7047000013B504460949684610
:10ADD400FDF73AF8019808B902B010BDD0E9003186
:10ADE4002046984718B16846FDF738F8F2E7112075
:10ADF400F2E700BF24C9020013B5044607496846B8
:10AE0400FDF722F8019B0BB902B010BD2046D3E92F
:10AE1400002190476846FDF721F8F3E73CC902009A
:10AE24000B4991F816335A09EC231341DB0706D575
:10AE3400084B9A683AB94FF480030B60704742F2AA
:10AE44000200FCF745B81A6842F480021A607047A1
:10AE540000E100E0AC330020F7B5194F3C7864BB47
:10AE6400184E012520463570FFF7AEFF112821D07A
:10AE74002046FFF7C1FF144B8DF80340186801907A
:10AE84000DF10300FCF750FC104901A8FFF799FFEE
:10AE94000446B0FA80F0400938709DF80300FCF7CE
:10AEA40067FC3CB90A4B34701C70FFF7B9FF2846A5
:10AEB400FFF7A2FF204603B0F0BD0824FAE700BF65
:10AEC400493C0020483C002020C90200F16E0200E9
:10AED4004A3C0020014B1878704700BF493C0020D1
:10AEE40007B508496846FCF7AFFF019B13B903B0E7
:10AEF4005DF804FBD3E9002090476846FCF7AEFFF9
:10AF0400F3E700BF30C90200FFF7EABF60DF704714
:10AF140069DF704761DF704730B5114DADF5017DD4
:10AF24004FF4FA740DF1020103A8ADF80240FFF7E3
:10AF3400F1FF70B9294601A8FCF786FF029B002B9C
:10AF4400F0D003A8D3E90021904701A8FCF786FFBD
:10AF5400F4E7052801D0FBF7BBFF0DF5017D30BDFB
:10AF6400C0CB0200024B1B780BB1FFF7D5BF704773
:10AF74004B3C002030B5054685B00C46002900F056
:10AF8400B4805B4B0B600C22002101A800F0BCFADA
:10AF940001238DF8063022688DF80450062301A998
:10AFA4002020ADF80830FFF7B3FF60B1FCF780FF55
:10AFB400504A514B51499B1ADB081B04024643F08B
:10AFC4000100FBF701FD0C22002101A800F09CFA0E
:10AFD40000238DF80530226840F2011301A94020B6
:10AFE400ADF80630FFF794FF60B1FCF761FF414A0A
:10AFF400414B43499B1ADB081B04024643F0010002
:10B00400FBF7E2FC0C22002101A800F07DFAF723F3
:10B0140022688DF8045001A92320ADF80630FFF70B
:10B0240077FF60B1FCF744FF324A334B35499B1A32
:10B03400DB081B04024643F00100FBF7C5FC0C22AD
:10B04400002101A800F060FA012022688DF80400B4
:10B0540001A9FFF75DFF60B1FCF72AFF254A264BE3
:10B0640029499B1ADB081B04024643F00100FBF745
:10B07400ABFC0C22002101A800F046FA4FF4B063A7
:10B084002268019301A9A120FFF742FF60B1FCF7F8
:10B094000FFF184A184B1D499B1ADB081B04024674
:10B0A40043F00100FBF790FC0C22002101A800F002
:10B0B4002BFA9DF8043022686FF3000301A9A02045
:10B0C4008DF80430FFF724FF68B1FCF7F1FE094A5C
:10B0D400094B0F499B1ADB081B04024643F001008D
:10B0E400FBF772FC002005B030BD0E20FBE700BF6B
:10B0F400E029002030BD020090BD020050C90200CA
:10B1040096C90200E2C9020029CA020075CA0200F7
:10B11400C6CA0200F8B506460768FFF7F7FE3368AB
:10B12400BB4205461DD9194B194C1A49E41AE408C7
:10B13400240444F002042046FBF742FC3368164919
:10B144003A462046FBF749FC4FF080533268D3F867
:10B154000C3112499B0203F100539A1A2046FBF763
:10B1640033FC25B90E4B01221A702846F8BD284637
:10B17400FCF79EFE054A064B0A499B1ADB081B0492
:10B18400024643F00100FBF71FFCEEE730BD02006E
:10B1940090BD020019CB020048CB020079CB02001B
:10B1A4004B3C0020A3CB02004BDF70471FB50D4C76
:10B1B40001A8FFF7F9FF70B9214602A8FCF744FE85
:10B1C400039B002BF4D00198D3E90021904702A8F7
:10B1D400FCF744FEF4E7052801D0FBF779FE04B040
:10B1E40010BD00BFD8CB020053EA020C61D02DE998
:10B1F400F04BB3FA83F51E0007BFB2FA82F502FAE8
:10B2040005F403FA05F41646C5F120051EBF22FA1B
:10B2140005F73C43203556EA044C4FEA144418BF62
:10B224000134A3464FF00009C846904271EB030C69
:10B2340039D3094207BFB0FA80F700FA07F6B1FA2A
:10B2440081F701FA07F6C7F120071EBF20FA07FCB1
:10B2540046EA0C062037B6FBFBFC7F1B103F07F0C9
:10B264001F04C4F120060CFA04F42CFA06F644BFB9
:10B2740034460026202FA4BF2646002454EA060C98
:10B2840008BF012418EB040849EB0609A4FB027C5F
:10B29400C01B06FB02CC04FB03CC71EB0C019042F7
:10B2A40071EB030CC5D20B46024649464046BDE845
:10B2B400F08BB2FBF3F200007F2805D8034B185C37
:10B2C400034B5B5C1840704700207047F0CB0200D2
:10B2D40070CC0200A0F16103192B98BF203870478D
:10B2E400A0F14103192B98BF203070477F2805D85F
:10B2F400034B185C034B5B5C18407047002070479D
:10B30400F0CB020070CC0200A0F16103192B98BFAE
:10B3140020387047A0F14103192B98BF20307047A3
:10B324007F299ABF017001206FF02E0070475AB137
:10B334000A787F2A0AD800B1026000211960596096
:10B34400501A18BF01207047002070476FF02E007C
:10B35400704738B504460846A26842B1236861685C
:10B364005D1C8D4208BF00208B4208D2D054E36894
:10B374002BB121686268914201D221469847236823
:10B384000133236038BD70B54C1E09D41646C5B2CE
:10B3940029463046FFF7DDFF013CB4F1FF3FF7D10A
:10B3A40070BD10F0100F09D108B500F4007000282A
:10B3B40014BF30202020FFF7E6FF08BD70470000CF
:10B3C40008B5034B5B689B681B68984708BD00BFC2
:10B3D400D02C002008B50921FFF7F2FF08BD002A90
:10B3E40036D070B413460F2A1AD940EA010212F07B
:10B3F400030F01D05A1E15E004680A689442F9D17B
:10B40400043B041D0A1D1146204604340432066818
:10B414000D68AE42EED120461146043B042BF2D80F
:10B424005A1E10D004780B789C420CD1431C4C1C3F
:10B43400024418462146934205D00133013406786C
:10B444000D78AE42F5D000780B78C01A70BC704706
:10B45400002070470FB410B586B008AB53F8044B06
:10B464000593002303936FF000430293084B049366
:10B4740000F0ADF8059A214601A800F0ABF80446A7
:10B4840000F0A6F8204606B0BDE8104004B07047AE
:10B49400C97E0200037853B159B10144034613F83D
:10B4A400012F12B18B42FAD10B46181A704703468A
:10B4B400FBE70346F9E7844640EA010313F0030F70
:10B4C40018D18446202A0BD32DE9F007B1E8F807F8
:10B4D400A0E8F807A2F12002202AF7D2BDE8F0077D
:10B4E400042A07D351F8043B40F8043BA2F10402B8
:10B4F400042AF7D2002A05D011F8013B00F8013BD9
:10B50400013AF9D1604670478446002A2DD010F0E4
:10B51400030F04D000F8011B013A26D0F7E7C9B2A3
:10B5240041EA012141EA0141202A12D3A2F1200279
:10B534002DE9F0030B460C460D460E460F46884691
:10B544008946A0E8FA03203AFBD2BDE8F003203292
:10B554000BD0042A05D340F8041B043A05D0042A6E
:10B56400F9D200F8011B013AFBD16046704700F1A3
:10B57400010110F0030F11D010F8012B002A23D081
:10B5840010F0030F0AD010F8012B002A1CD010F081
:10B59400030F03D010F8012B002A15D02DE97000F9
:10B5A4004FF001324FF0803350F8044BA4EB020506
:10B5B40025EA04051D4000D1F6E7A0F1040070BCA3
:10B5C40010F8012B002AFBD1A0EB01007047704753
:10B5D400704700002DE9F04F89B007460C460392EE
:10B5E40000230360DFF83CB675E3002502E045F074
:10B5F40040051C46234613F8010BA0F120023E2A05
:10B6040000F2948001A151F822F000BFF3B50200CA
:10B6140031B7020031B702000DB7020031B70200A2
:10B6240031B7020031B7020013B7020031B702008C
:10B6340031B7020031B702001FB7020031B7020070
:10B6440025B7020031B7020031B702002BB7020060
:10B6540031B7020031B7020031B7020031B702003E
:10B6640031B7020031B7020031B7020031B702002E
:10B6740031B7020031B7020031B7020031B702001E
:10B6840031B7020031B7020031B7020031B702000E
:10B6940031B7020031B7020031B7020031B70200FE
:10B6A40031B7020031B7020031B7020031B70200EE
:10B6B40031B7020031B7020031B7020031B70200DE
:10B6C40031B7020031B7020031B7020031B70200CE
:10B6D40031B7020031B7020031B7020031B70200BE
:10B6E40031B7020031B7020031B7020031B70200AE
:10B6F40031B7020031B7020031B7020031B702009E
:10B7040031B7020019B7020045F0800571E745F42E
:10B7140000456EE745F480556BE745F0200568E782
:10B7240045F0100565E745F4007562E72A2821D144
:10B73400039A111D0391D2F800A0BAF1000FBCBF07
:10B74400CAF1000A45F010051878A31C2AEAEA7A1F
:10B754002E2826D00021742847D07A2845D06C287A
:10B7640000F0C4804C2800F0C780682800F0D48022
:10B774001C463DE0A0F13002D2B2092A88BF4FF046
:10B78400000AE3D84FF0000A0AEB8A0A303800EBCB
:10B794004A0A13F8010BA0F13002D2B2092AF3D9F4
:10B7A400D4E718782A280AD1039A111D0391116845
:10B7B400587802330029CEDB45F48075CBE701339A
:10B7C400A0F13002D2B2092A88BF0021F4D80021A6
:10B7D40001EB8101303800EB410113F8010BA0F1BA
:10B7E4003002D2B2092AF3D9E4E71C4614F8010B5B
:10B7F400782800F28480DFE810F08A028200820058
:10B804008200820082008200820082008200820024
:10B814008200820082008200820082008200820014
:10B824008200820082008200820082008200820004
:10B8340082008200820082008200820082008200F4
:10B84400820082009B0082008200820082008200CB
:10B8540082008200820082008200820082008200D4
:10B8640082008200820082008200820082008200C4
:10B8740082008200820082008200820082008200B4
:10B8840082008200820082008200820082008200A4
:10B894008200820082008200820082008200820094
:10B8A40082008200820082008200120182008200F3
:10B8B4008200820082008200820082008200820074
:10B8C400A0004801820082008200820048018200B8
:10B8D400820082008200BA003201F60082008200F7
:10B8E400CB00820040018200820014011C4614F83F
:10B8F400010B45F001057BE745F001051C46C54BEE
:10B904001E68002E00F0E78103AB019300915346BB
:10B914002A463946B047DEE11878682803D05C1C13
:10B9240045F0040564E745F008059C1C58785FE77A
:10B9340025213846FFF70DFDCDE1039B1A1D039227
:10B944001E780AF1FF3A3A4651462846FFF729FD88
:10B9540031463846FFF7FDFCA94619F0100F00F0F8
:10B96400BA813A4651462020FFF70DFDB3E115F0A8
:10B97400080F06D03A68039B191D03911B681A70BF
:10B98400A9E1039B1A1D03921B683A681A60A2E19D
:10B99400039B1A1D0392D3F800809F4BB8F1000F4C
:10B9A40008BF9846464625F4007915F4807F15D0E3
:10B9B4004046FFF76FFD0546AAEB050A3A46514695
:10B9C4004846FFF7EEFC002DC7D0454416F8011B8E
:10B9D4003846FFF7BEFCAE42F8D1BEE74046FFF75B
:10B9E400C6FD0546E8E7039B1A1D03921B6805F094
:10B9F4008002002A0CBF4FF000084FF0230845F4E2
:10BA0400807608211A46002B00F02F8105AB002513
:10BA140006F4005CA64660468C460146D6E045F432
:10BA2400005515F0800F17D043F2780843F25803FD
:10BA3400782818BF984615F4807F3FD025F4007607
:10BA4400039B1A1D03921B6816F0040F45D116F0D0
:10BA5400080F43D0DBB241E04FF00008EBE705F0FC
:10BA64008003002B0CBF4FF000084FF0300815F492
:10BA7400807F25D025F40076E2E715F4807F21D07D
:10BA840025F400764FF00008DAE745F48046039B7E
:10BA94001A1D03921B6815F0040F17D115F0080F37
:10BAA40015D0DBB215F0200F68D105F04005002D4C
:10BAB4000CBF4FF000084FF020080FE02E46BFE700
:10BAC4002E46BDE72E464FF00008B9E71BB2002B07
