:1000000000000420750300005D0300005F03000092
:1000100061030000630300006503000000000000AE
:100020000000000000000000000000006703000066
:1000300069030000000000006B0300006D03000076
:100040006F0300006F0300006F0300006F030000E8
:100050006F0300006F030000A90700006F0300009A
:100060006F0300006F0300006F0300006F030000C8
:100070006F0300006F0300006F0300006F030000B8
:100080006F0300006F0300006F0300006F030000A8
:100090006F0300006F0300006F0300006F03000098
:1000A0006F0300006F0300006F0300006F03000088
:1000B0006F0300006F03000000000000000000005C
:1000C0006F0300006F0300006F0300006F03000068
:1000D0006F0300006F0300006F0300006F03000058
:1000E0006F0300006F0300006F03000000000000BA
:1000F000000000006F030000000000006F0300001C
:1001000000000000000000000000000000000000EF
:1001100000000000000000000000000000000000DF
:1001200000000000000000000000000000000000CF
:1001300000000000000000000000000000000000BF
:1001400000000000000000000000000000000000AF
:10015000000000000000000000000000000000009F
:10016000000000000000000000000000000000008F
:10017000000000000000000000000000000000007F
:10018000000000000000000000000000000000006F
:10019000000000000000000000000000000000005F
:1001A000000000000000000000000000000000004F
:1001B000000000000000000000000000000000003F
:1001C000000000000000000000000000000000002F
:1001D000000000000000000000000000000000001F
:1001E000000000000000000000000000000000000F
:1001F00000000000000000000000000000000000FF
:10020000354936480A1A02D0072291438D463449AF
:1002100034480A1A06D00722914381F30988022242
:1002200082F3148830483149314A00F044F83148AB
:100230003149324A00F03FF831483249324A00F041
:100240003AF832483249334A00F035F832483349F7
:10025000334A00F030F833483349344A00F02BF881
:1002600033483449344A00F026F8344834490022EF
:1002700000F02CF833483449002200F027F83348C6
:100280003349091A082902DB002202604160314A21
:1002900090471F481F49884205D00268043003B4C4
:1002A000904703BCF7E700208646EC46002000217B
:1002B000294A9047FEE7884207D0521A05D00378B2
:1002C00001300B700131013AF9D17047884202D0F8
:1002D00002700130FAE770470000042000E00320BC
:1002E0000000042000000420E00B000000000020BB
:1002F00004000020D4030000D4030000DE0B000043
:10030000E00B00000000002000000020E00B0000D7
:10031000E00B0000E00B0000E00B0000E00B000031
:10032000E00B0000E00B0000E00B0000E00B000021
:10033000E40B000004000020040000200400002062
:1003400060000020600000206000002060000020AD
:10035000602000209D0300004D090000FEE7FEE73D
:10036000FEE7FEE7FEE7FEE7FEE7FEE7FEE7FEE765
:10037000704700BF1048804710484FF0070188437E
:1003800085460F4880470F48016841F470010160BD
:10039000BFF34F8FBFF36F8FFFF732BF0A480B4990
:1003A0000B4A884207D0521A05D0037801300B70EF
:1003B0000131013AF9D170477103000000000420B7
:1003C000C109000088ED00E0E00B00000000002003
:0403D0000000002009
:1003D4001FB50021039001AA44F20100CDE90111E7
:1003E40000F004F805B05DF804FB000072B6094B98
:1003F4001B68DB0700D500BEBFF34F8F0649074BD0
:10040400CA6802F4E0621343CB60BFF34F8F00BFAE
:10041400FDE700BFF0ED00E000ED00E00400FA05A8
:1004240000F1804000F5C040002382B003600368FF
:100434000193019B02B0704703681F2B83BF03F035
:100444001F03036001484FF0A040704700030050B1
:1004540007B5019001A8FFF7EFFF019B00EB8300B4
:10046400D0F8002722F44032C0F80027D0F8003733
:1004740043EA0143C0F8003703B05DF804FB000011
:10048400054B4FF0FF32072843F8202084BF1B1888
:1004940083F84C20704700BF0400002010B5184CAE
:1004A40094F85B3053BB04F124033021FF2201395B
:1004B40011F0FF0103F8012BF9D1C8B2FFF7E0FFF7
:1004C40001310929F9D1062200210E4800F052FB1E
:1004D4000D4BC02283F806234022C3F880214FF439
:1004E400BE701A60FFF79CFF084B4FF00042C3F840
:1004F4000423012384F85B30002010BD0820FCE7AE
:10050400040000205900002000E100E000600040E9
:1005140037B5354B1A18044692F92400013061D1DD
:100524008878002852D01846002250F8045B013520
:1005340046D1181980F82420002043F822009200A4
:1005440002F1804202F5C0420B78D2F81055487887
:1005540025F499151B04000525F4F85500F48010C2
:1005640003F44033C2F8105503432002D2F8105567
:1005740000F47C5003432B43C2F810354A780194AD
:10058400012A01A826D1FFF757FF019B9A40C0F822
:10059400082501A80194FFF74FFF019B134903F5B8
:1005A400E073032240F8232024FA02F2012304F02A
:1005B400070003FA00F08B5C18438854002003E022
:1005C4000132082AB1D1042003B030BDFE2382F8E1
:1005D4002430D3E7FFF730FF019A01239340C0F89A
:1005E4000C35D6E70820EFE704000020590000206E
:1005F40007B5019001A8FFF71FFF0199D0F8043552
:1006040001228A4022EA03011340C0F80815C0F809
:100614000C3503B05DF804FBF7B53B4E33180546C3
:1006240093F92430002B6CDA8B78C3F34003002B4E
:100634000BBF0824002409200820844202D104208E
:1006440003B0F0BD56F82470013743D1701946F851
:10065400242080F8244013B9331983F84C508B7844
:100664005A0717D4D80737D501A80195FFF7E4FE38
:10067400019B00EB8300D0F8003723F00203C0F89D
:1006840000372248EA0805F007070123BB40875CCE
:100694003B43835488780A7810F0020028D0A400E1
:1006A40004F1804404F5C0442D02D4F8103523F439
:1006B4004F3323F44073C4F810351204D4F81035C2
:1006C40005F47C5502F4403215431D43C4F810551B
:1006D4000020B5E70134B0E701A84A780195FFF797
:1006E400ABFE019B03F5E073920040F82320C8E7BA
:1006F400083C344494F8545045EA821284F8542057
:100704009EE708209CE700BF040000205900002059
:1007140073B5224C2518064695F92420072A19DDBD
:10072400224492F84C309B09032B0FD1019001A86D
:10073400FFF782FE019AD0F81035D340DB0707D4C7
:1007440002213046FFF784FE02B070BD012BF7D0C2
:100754000321F6E7D3B2072BF6D8930003F18043C5
:1007640003F5C043D3F8100540F00100C3F81005A9
:1007740002F14000800080B2FFF752FE0029E3D06E
:1007840095F9243054F82330002BDDD0012303FAEB
:1007940002F2034BC3F80423D6E700BF0400002091
:1007A400006000402DE9F04F002489B0CDE90244F7
:1007B4005F4D4FF48072012102F1804303F5C04381
:1007C40090B21B68012B06D1D5F804330B4202D03A
:1007D400FFF726FE0C430432B2F5907F4FEA410145
:1007E400EAD1544B1B68012B0ED14FF4BE70FFF7B6
:1007F40017FE4FF0A04344F00044D3F810350293A1
:100804004D4BD3F81035039314F0FF0F1AD04B4F10
:1008140001260025264210D0AB0003F1804303F5E6
:10082400C043D3F81005D3F8101557F8253023B179
:10083400C1F30141C0F3052098470135082D4FEA63
:100844004606E7D1002C29DA04AE00230493736032
:100854004FF0FF33CDE90633384FDFF8DC904FF02B
:10086400010897F95440631C18D0E4B224F0C00581
:1008740008ABE808191804F0070211F8083C08FA54
:1008840002F213420AD07B19A40993F9243057F8D1
:1008940023A0BAF1000F0AD1032C0AD009B0BDE895
:1008A400F08F022BFAD1032C3BD1214618E0032C04
:1008B40002D1335C1343335401A80195FFF7BCFD07
:1008C400019B11F8181C03F5E073114250F8233012
:1008D400C3F30143E5D1032BE0D1032C21D1022141
:1008E4002846FFF7B5FDBAF1000F07D04FF0010B12
:1008F40021462846D047BBF1000FCFD04FF0A0438C
:100904000299D3F81025D9F81035914202D10399F0
:100914009942C3D002920393049A059B06920793CB
:100924009FE7BAF1000FB9D04FF0000BE0E700BF2A
:10093400006000407C61004000030050040000207F
:100944000D20FFF755BE000007B5FFF7A7FD08B15E
:10095400FFF73EFD0024012369460D20ADF8004059
:100964008DF802408DF80130FFF7D2FD08B1FFF792
:100974002FFD40F20333084A8DF8064001A90B20ED
:10098400ADF80430FFF748FE08B1FFF721FD01215F
:100994000B20FFF7BDFEFEE745090000054B1B6871
:1009A400082B01BF044B1868B0FA80F0400918BF47
:1009B40000207047300100103401001008B54FF0DA
:1009C40080430022C3F80C21C3F81021C3F8382552
:1009D4004FF0805203F54043D2F80414C3F82015B5
:1009E400D2F80814C3F82415D2F80C14C3F8281547
:1009F400D2F81014C3F82C15D2F81414C3F8301517
:100A0400D2F81814C3F83415D2F81C14C3F84015DE
:100A1400D2F82014C3F84415D2F82414C3F84815A6
:100A2400D2F82814C3F84C15D2F82C14C3F8501576
:100A3400D2F83014C3F85415D2F83414C3F860153E
:100A4400D2F83814C3F86415D2F83C14C3F8681506
:100A5400D2F84014C3F86C15D2F84424C3F87025B6
:100A6400FFF79CFF10B1384B384A1A60FFF796FF26
:100A740018B1374BFB22C3F81825FFF78FFF48B195
:100A84003449354B0A681B6822F00F0203F00F0348
:100A940013430B60FFF782FF18B1304B4FF4007221
:100AA4001A604FF08043D3F80024D20744BF6FF09C
:100AB4000102C3F800242A4AD2F8883043F47003B0
:100AC400C2F88830BFF34F8FBFF36F8F4FF01023FE
:100AD400D3F80022002A03DBD3F80432002B2FDAE8
:100AE400204B0122C3F80425D3F80024002AFBD0AC
:100AF4004FF010221221C2F80012D3F80024002A69
:100B0400FBD04FF010231222C3F80422154B1A46CF
:100B1400D3F800140029FBD00021C3F80415D2F83F
:100B24000034002BFBD0BFF34F8F0D490E4BCA6826
:100B340002F4E0621343CB60BFF34F8F00BFFDE7C5
:100B44000A4B0B4A1A6008BD8C56004048810300CA
:100B540000F00040E40E00405802001040960240AD
:100B640000ED00E000E001400400FA050000002070
:100B74000090D0038446002A2DD010F0030F04D037
:100B840000F8011B013A26D0F7E7C9B241EA012176
:100B940041EA0141202A12D3A2F120022DE9F003F7
:100BA4000B460C460D460E460F4688468946A0E87D
:100BB400FA03203AFBD2BDE8F00320320BD0042A1A
:100BC40005D340F8041B043A05D0042AF9D200F8EE
:0A0BD400011B013AFBD16046704797
:040BE0000090D003AE
:040000030000037581
:00000001FF
