:1000000000000420750300005D0300005F03000092
:1000100061030000630300006503000000000000AE
:100020000000000000000000000000006703000066
:1000300069030000000000006B0300006D03000076
:100040006F0300006F0300006F0300006F030000E8
:100050006F0300006F0300006F0300006F030000D8
:10006000310600006F0300006F0300006F03000003
:100070006F0300006F0300006F0300006F030000B8
:100080006F0300006F0300006F0300006F030000A8
:100090006F0300006F0300006F0300006F03000098
:1000A0006F0300006F0300006F0300006F03000088
:1000B0006F0300006F03000000000000000000005C
:1000C0006F0300006F0300006F0300006F03000068
:1000D0006F0300006F0300006F0300006F03000058
:1000E0006F0300006F0300006F03000000000000BA
:1000F000000000006F030000000000006F0300001C
:1001000000000000000000000000000000000000EF
:1001100000000000000000000000000000000000DF
:1001200000000000000000000000000000000000CF
:1001300000000000000000000000000000000000BF
:1001400000000000000000000000000000000000AF
:10015000000000000000000000000000000000009F
:10016000000000000000000000000000000000008F
:10017000000000000000000000000000000000007F
:10018000000000000000000000000000000000006F
:10019000000000000000000000000000000000005F
:1001A000000000000000000000000000000000004F
:1001B000000000000000000000000000000000003F
:1001C000000000000000000000000000000000002F
:1001D000000000000000000000000000000000001F
:1001E000000000000000000000000000000000000F
:1001F00000000000000000000000000000000000FF
:10020000354936480A1A02D0072291438D463449AF
:1002100034480A1A06D00722914381F30988022242
:1002200082F3148830483149314A00F044F83148AB
:100230003149324A00F03FF831483249324A00F041
:100240003AF832483249334A00F035F832483349F7
:10025000334A00F030F833483349344A00F02BF881
:1002600033483449344A00F026F8344834490022EF
:1002700000F02CF833483449002200F027F83348C6
:100280003349091A082902DB002202604160314A21
:1002900090471F481F49884205D00268043003B4C4
:1002A000904703BCF7E700208646EC46002000217B
:1002B000294A9047FEE7884207D0521A05D00378B2
:1002C00001300B700131013AF9D17047884202D0F8
:1002D00002700130FAE770470000042000E00320BC
:1002E0000000042000000420EC08000000000020B2
:1002F00004000020D4030000D4030000D80800004C
:10030000EC0800000000002000000020D8080000D9
:10031000D8080000D8080000D8080000D80800005D
:10032000D8080000D8080000D8080000EC08000039
:10033000F008000004000020040000200400002059
:1003400014000020140000201400002014000020DD
:10035000142000209D030000A5060000FEE7FEE734
:10036000FEE7FEE7FEE7FEE7FEE7FEE7FEE7FEE765
:10037000704700BF1048804710484FF0070188437E
:1003800085460F4880470F48016841F470010160BD
:10039000BFF34F8FBFF36F8FFFF732BF0A480B4990
:1003A0000B4A884207D0521A05D0037801300B70EF
:1003B0000131013AF9D170477103000000000420B7
:1003C0002107000088ED00E0D808000000000020B0
:0403D0000000002009
:1003D400074B1B5C1F2B86BF03F01F0305494FF01F
:1003E400A041012202FA03F3C1F80835704700BFA7
:1003F400D80800000003005008B50020FFF7E8FF0C
:100404000120FFF7E5FF0220FFF7E2FF0320BDE82C
:100414000840FFF7DDBF00000A4B185C1F288ABFA5
:10042400094B4FF0A04300F01F00D3F8042501212D
:10043400814021EA02000A40C3F80805C3F80C25EC
:10044400704700BFD808000000030050C20710B571
:1004540004460CD54FF0A0430322C3F83427C3F855
:100464003827C3F83C27C3F84027FFF7C5FFA30785
:100474000AD54FF0A0430C22C3F82C27C3F8302729
:10048400C3F86027C3F8642710BD1FB5002103908B
:1004940001AA44F20100CDE9011100F003F805B00E
:1004A4005DF804FB72B6094B1B68DB0700D500BE80
:1004B400BFF34F8F0649074BCA6802F4E062134347
:1004C400CB60BFF34F8F00BFFDE700BFF0ED00E04E
:1004D40000ED00E00400FA05F7B50579334C0C266D
:1004E4006E43A7193B7A002B5DD1A2514A687A600A
:1004F400467900681F46DAB296424BD8020B53B2D3
:10050400CE78002BA8BF03F16047D2B24FEA531351
:10051400B8BF02F00F0C4FEA4616B4BF244F07F5DC
:1005240061474FEA8303F6B203F16043B4BF07F8AF
:100534000C6087F8006303F56143012602F01F0293
:1005440006FA02F2C3F880211A60D0F804254B7829
:1005540022F0030203F003031343C0F80435D0F878
:1005640008258B7822F0030203F003031343C0F839
:100574000835D0F810250B7822F00F0203F00F0392
:100584001343C0F810350C2303FB054400202672E6
:1005940003B0F0BD9A0002F5A0720133875082586F
:1005A4000192019AA7E70820F2E700BF04000020A7
:1005B40014ED00E0036801221A600379034A0C2158
:1005C40001FB032302221A72704700BF04000020BB
:1005D40037B54FF480348C4000687BB101F150038F
:1005E4009B000025C550C3580193019BC0F80443E8
:1005F40001F5A87140F8212003B030BDC0F80843CC
:10060400F6E770B4046840F20116D4F800528E4044
:1006140025EA0605C4F80052D4F800522B43C4F866
:1006240000329DF80C3070BCFFF7D2BF2DE9F341C6
:10063400104C114F114E00254FF480382368A4F557
:10064400004080B26BB1D7F8043308FA05F21A42BD
:1006540007D00023236023680193019BD6E900316E
:1006640098470135042D04F10404E7D102B0BDE834
:10067400F08100BF40810040008000400400002061
:10068400064A1368B0F5A07F03F10101116003D19C
:1006940003F00300FFF7C0BE704700BF1000002046
:1006A4001FB50120FFF7D2FE0F4A92E8030002AB08
:1006B40083E803000D4A0E481946FFF70DFF08B101
:1006C400FFF7E3FE0B4B0C49D3F810250848012330
:1006D400D2B221FA02F200930021FFF792FF0448FC
:1006E400FFF768FF30BFFDE7DC0800008506000067
:1006F400E40800000080004000127A00054B1B68EB
:10070400082B01BF044B1868B0FA80F0400918BFE9
:1007140000207047300100103401001008B54FF07C
:1007240080430022C3F80C21C3F81021C3F83825F4
:100734004FF0805203F54043D2F80414C3F8201557
:10074400D2F80814C3F82415D2F80C14C3F82815E9
:10075400D2F81014C3F82C15D2F81414C3F83015B9
:10076400D2F81814C3F83415D2F81C14C3F8401581
:10077400D2F82014C3F84415D2F82414C3F8481549
:10078400D2F82814C3F84C15D2F82C14C3F8501519
:10079400D2F83014C3F85415D2F83414C3F86015E1
:1007A400D2F83814C3F86415D2F83C14C3F86815A9
:1007B400D2F84014C3F86C15D2F84424C3F8702559
:1007C400FFF79CFF10B1384B384A1A60FFF796FFC9
:1007D40018B1374BFB22C3F81825FFF78FFF48B138
:1007E4003449354B0A681B6822F00F0203F00F03EB
:1007F40013430B60FFF782FF18B1304B4FF40072C4
:100804001A604FF08043D3F80024D20744BF6FF03E
:100814000102C3F800242A4AD2F8883043F4700352
:10082400C2F88830BFF34F8FBFF36F8F4FF01023A0
:10083400D3F80022002A03DBD3F80432002B2FDA8A
:10084400204B0122C3F80425D3F80024002AFBD04E
:100854004FF010221221C2F80012D3F80024002A0B
:10086400FBD04FF010231222C3F80422154B1A4672
:10087400D3F800140029FBD00021C3F80415D2F8E2
:100884000034002BFBD0BFF34F8F0D490E4BCA68C9
:1008940002F4E0621343CB60BFF34F8F00BFFDE768
:1008A4000A4B0B4A1A6008BD8C560040488103006D
:1008B40000F00040E40E0040580200104096024050
:1008C40000ED00E000E001400400FA050000002013
:0408D4000090D003BD
:1008D8000D0E0F100000030600000000008000400D
:0408E8000004000008
:0408EC000090D003A5
:040000030000037581
:00000001FF
