:020000022000DC
:1060000000000420756302005D6302005F6302000C
:106010006163020063630200656302000000000028
:1060200000000000000000000000000067630200A4
:1060300069630200000000006B6302006D630200F0
:10604000BDAD02006F63020061AC02006F6302002D
:106050006F6302006F630200B5AA02006F63020063
:106060006F6302006F6302006F6302006F630200E0
:106070006F6302006F6302006F6302006F630200D0
:106080006F630200C97C02006F6302006F6302004D
:10609000657D02006F630200712A03006F630200D6
:1060A0006F6302006F6302006F6302006F630200A0
:1060B0006F6302006F630200000000000000000038
:1060C0006F6302006F6302006F6302006F63020080
:1060D0006F6302006F6302006F63020009BD02007C
:1060E0006F6302006F6302006F6302000000000034
:1060F000000000006F630200000000006F630200F8
:10610000000000000000000000000000000000008F
:10611000000000000000000000000000000000007F
:10612000000000000000000000000000000000006F
:10613000000000000000000000000000000000005F
:10614000000000000000000000000000000000004F
:10615000000000000000000000000000000000003F
:10616000000000000000000000000000000000002F
:10617000000000000000000000000000000000001F
:10618000000000000000000000000000000000000F
:1061900000000000000000000000000000000000FF
:1061A00000000000000000000000000000000000EF
:1061B00000000000000000000000000000000000DF
:1061C00000000000000000000000000000000000CF
:1061D00000000000000000000000000000000000BF
:1061E00000000000000000000000000000000000AF
:1061F000000000000000000000000000000000009F
:10620000354936480A1A02D0072291438D4634494F
:1062100034480A1A06D00722914381F309880222E2
:1062200082F3148830483149314A00F044F831484B
:106230003149324A00F03FF831483249324A00F0E1
:106240003AF832483249334A00F035F83248334997
:10625000334A00F030F833483349344A00F02BF821
:1062600033483449344A00F026F83448344900228F
:1062700000F02CF833483449002200F027F8334866
:106280003349091A082902DB002202604160314AC1
:1062900090471F481F49884205D00268043003B464
:1062A000904703BCF7E700208646EC46002000211B
:1062B000294A9047FEE7884207D0521A05D0037852
:1062C00001300B700131013AF9D17047884202D098
:1062D00002700130FAE770470000042000E003205C
:1062E0000000042000000420C0790300582B002087
:1062F000D42E0020D4630200D4630200C03D03000A
:10630000C0790300582B0020582B002024420300A2
:1063100024420300244203002442030024420300D9
:10632000244203002442030024420300C0790300F6
:106330003C7D0300D42E0020D42E0020D42E00203B
:10634000A8750020A8750020AC750020AC75002051
:10635000AC9500209D630200550D0300FEE7FEE7AB
:10636000FEE7FEE7FEE7FEE7FEE7FEE7FEE7FEE705
:10637000704700BF1048804710484FF0070188431E
:1063800085460F4880470F48016841F4700101605D
:10639000BFF34F8FBFF36F8FFFF732BF0A480B4930
:1063A0000B4A884207D0521A05D0037801300B708F
:1063B0000131013AF9D170477163020000000420F5
:1063C00095A1020088ED00E0AC400300E029002028
:0463D000582B002026
:1063D40000487047A07500207047000007B50022F0
:1063E40001A908F0BBF930B9044A019813680133D4
:1063F400136002F037FC03B05DF804FB502F00205B
:106404000148FFF7EBBF00BF483E03000148FFF718
:10641400E5BF00BF603E030030B585B0054601917D
:10642400002401A9284608F00AF910B9204605B04D
:1064340030BD002203A9284608F090F90028F0D1C5
:10644400039802F00FFC0134EBE7000073B5836896
:10645400D3F84C319B07054603D50022114607F0BB
:1064640077FC154C154A24F47F6428464FF4805673
:10647400082124F00F0406F0A7FB234628460096C3
:106484000F4A082106F0A0FB0E4B0F4A1B681C1B89
:10649400642363432846CDE900461B0B082106F01C
:1064A40093FB0A4B0A4A1B680821284602B0BDE840
:1064B400704006F089BB00BF3B8D030058420300C7
:1064C4006C420300482F002099420300502F002003
:1064D400C842030000238B540A460068194606F09C
:1064E40073BB00002DE9F043384D87B007460E46D4
:1064F400DFF8E4801BE0DDF80890059440232B606E
:106504000822234603A94846CDE9034402F0C3FB0D
:106514000C220DEB020140460CF0D4FF9DF80C3028
:1065240003F00303012B0BD0022B2CD02C60002290
:1065340002A9384608F012F904460028DBD036E0F8
:10654400BDF80C40C4F38314A40008232246204958
:10655400484602F0A0FB2A6804F10C039A42E6D3F1
:10656400029A1C4C009221681B4A1C482B6002F0C2
:10657400E9FD90B9F6B123682A68029813442360B0
:1065840002F070FBB4E7BDF80E40A409342C28BF18
:106594003424033424F00304D7E776B904280CD157
:1065A400029802F05FFB0E4A1368013313600D4832
:1065B40001F028FF07B0BDE8F083102898D10298B5
:1065C40002F050FB084B01221A7091E74C2F002077
:1065D400602F0020482F0020542F0020282A00205C
:1065E400502F0020142F0020C42F0020174A38B544
:1065F40013780446CBB90378012B25D1416879B9C6
:106604001348144A0368156811602B440360124848
:10661400FFF768FF6069B8B1BDE8384002F022BBFB
:106624000E4A136801331360F4E7012B0CD103788D
:10663400022B09D10A4B816823F47F6323F00F03F3
:10664400994204BF0023137038BD00BFC42F00203B
:10665400482F00204C2F0020483E0300502F0020DC
:106664003B8D03000D4B1B7810B50C46A3B90846AF
:1066740002F0F4FA21460A48FFF7CEFE094A1368ED
:1066840018441060084801F0B4FE014620B90448DB
:10669400BDE81040FFF726BF10BD00BFC42F002087
:1066A400483E0300502F0020142F002038B50B4C17
:1066B4002378012B0D460FD0084602F0CFFA294665
:1066C4000748FFF7A9FE2378022B05D101210448CE
:1066D400BDE83840FFF706BF38BD00BFC42F002017
:1066E400603E030070B5002286B01B491B4802F0CF
:1066F400EDFC1B4B044650BB02221A70194B1A487E
:106704001A4E0125C3F884502946FFF7EBFE04F026
:10671400C40343F0290303948DF80C30039B144AFB
:1067240031680E4862F39F23124A0393C2E900348E
:1067340094600C23009402F005FD33680E480C337A
:106744002946336006B0BDE87040FFF7CBBE012296
:106754001A7006B070BD00BFAC580300282A002090
:10676400C42F002000E100E0483E0300482F002031
:1067740024420300542F0020603E030070B50E46EF
:1067840001680446154621B9154921F47F6121F0B9
:106794000F012160134802F01BFEF0B12168316043
:1067A4000B7803F0030301F10C00012B286003D0E4
:1067B400022B09D0052070BD0B88C3F383139B0003
:1067C400034423600020F6E74B889B09342B28BF41
:1067D4003423033323F00303F2E70620EBE700BF7F
:1067E4003B8D0300282A00201FB5114B114C23F4C4
:1067F4007F6323F00F03E360014603F6FF73204633
:106804000022236102F062FC044668B9019003AAE5
:1068140002A901A8FFF7B2FF0028F8D0064B019A9D
:106824001A60064B00221A70204604B010BD00BF47
:106834003B8D0300282A0020482F0020C42F00206D
:10684400F0B58368D3F84C319B0789B0044603D56F
:106854000022114607F07CFA0023CDE90233204ED2
:10686400204D012703AA04A902A8FFF787FF0346C6
:1068740070BBDDE90301CDF81A30ADF81E308B682A
:1068840005938B88ADF818300B78346003F003025D
:10689400012A03D0022A10D00027E3E70F680A88F0
:1068A4000095C3F3C2038DF81C30014605ABC2F357
:1068B4008312B80A00F0ECFFEEE74988C3F3C20381
:1068C4008DF81C3005AA2B46890901F045F8E3E749
:1068D40027B1054A0221204606F076F909B0F0BD39
:1068E400C82F0020582B00204642030010B5084C46
:1068F400084B094824F47F64012224F00F041A7021
:106904002146002302F0DEFC044B1C6010BD00BFD6
:106914003B8D0300C42F0020282A0020482F00208C
:1069240008B58368D3F84C319B0703D50022114680
:1069340007F00EFABDE80840FFF7D8BFF0B595B0F0
:1069440008460D4616461C4602F088F91A9A0D921E
:106954000023082205A928460A938DF82C300C93AD
:10696400CDE9086402F097F9079B0293069B039311
:1069740001238DF811309DF8143003F00302012A2D
:106984001DD1BDF81440059EC3F3C203C4F38314A0
:106994008DF81030A20008230EA9284602F07BF9D6
:1069A400C6F3952608AB0093224602AB0EA93046E7
:1069B40000F06EFF284602F055F915B0F0BD022A2A
:1069C400F8D1BDF81640C3F3C203A4098DF8103002
:1069D4000827082C264628BF08263B4632460EA91F
:1069E400284602F058F9A41B08AB02AA31460EA8A7
:1069F400374400F0B1FF002CEBD1DBE708B501F020
:106A040067F80421034800F0BDFD034B01225A71CD
:106A140008BD00BF7C400300702B00200023042825
:106A2400CB604B6098BF044B044A98BF53F82030A6
:106A34008A600B60704700BF4C4603002846030081
:106A4400CB6800225A717047C368DB6800225A7110
:106A54007047CB6801225A717047C368DB68012212
:106A64005A7170470D4A8A6070B50D4A0D4C002367
:106A7400121BCB604B600B6012091D469A4207D073
:106A8400E6683679FF2E05D0854202D1A3680B60F3
:106A940070BD013501331034F0E700BF60460300D8
:106AA400AC4003007C4003002DE9F74F164D174C12
:106AB40052F8047C0193641B0646894692462409D5
:106AC4004FF00008444508D1114A3B4602213046A4
:106AD40003B0BDE8F04F06F077B8A96838460CF06B
:106AE4006FFDAB46103510B108F10108EAE7DDEDA2
:106AF400017A17EE90CA53464A465946304603B0C7
:106B0400BDE8F04F604700BF7C400300AC40030089
:106B140098470300014BFFF7C7BF00BFFD70020099
:106B2400014BFFF7C1BF00BF456A0200014BFFF7ED
:106B3400BBBF00BF576A0200014BFFF7B5BF00BFE0
:106B4400356F0200037813F0040216D003F0030338
:106B5400012B03D0022B09D0012070470A6800885A
:106B64000232C0F3831002440A60F5E70B684288DE
:106B7400023303EB92130B60EEE7104670470000FC
:106B84002DE9F04F87B000230446851C0DF1070062
:106B94000F4690468DF8073001F0D4FA4548066850
:106BA4003E60D0E90132134401339B1B824600F25C
:106BB4001C4600F5836900F21447AB421BD3002244
:106BC400B8F1000F70D0052363F3070264F3891250
:106BD400DAF80010DAF808309DF807000B400333A8
:106BE4000D444AF82320CAF8005001F0CFFA0120DE
:106BF40007B0BDE8F08F0121304601F0E4FB4846C0
:106C040001F0FAFB384601F0F7FBDAF80400DAF891
:106C140008B0029000EA0B0003300AEB800002A9DE
:106C2400FFF790FF029B50BB0BEA03020AEB8202C0
:106C340003F1020CD2680392013303EA0B0B0AEB53
:106C44008B0B02F00302012ACDF808C0DBF80C100C
:106C540022D0022A16D08346384601F0D0FB10B168
:106C6400029BCAF804305946304601F0ACFBDAE91D
:106C740001231344DAF8002001339B1A9DE70BEA41
:106C84000300C9E7BDF80E309B0903334FEA114BEB
:106C94000CEB93030293DFE7BDF80C30C3F38313CB
:106CA4004FEA114B6344F5E7062363F3070264F3E9
:106CB4009F528DE7A4320020012907B5034604D072
:106CC4008168D1F84C11890707D50022114618466E
:106CD40003B05DF804EB07F03BB853680193054B30
:106CE40000931368044A022105F06EFF03B05DF8B7
:106CF40004FB00BF12440300084403002DE9F347DA
:106D04008368D3F84C41C4F34004074634B10022ED
:106D1400114602B0BDE8F04707F01AB8144E154DFD
:106D2400DFF85880DFF85890DFF858A0AD1B2D0924
:106D3400AC4202D102B0BDE8F087F268B3681179C1
:106D4400FF2907D10C4A0821384605F03DFF0134DC
:106D54001036EDE75279002A14BF42464A46CDE97F
:106D6400002138465246082105F02EFFEFE700BF08
:106D74007C400300AC400300384403002744030074
:106D84002F4403005744030030B50A4B0A4A0B4909
:106D9400D21AD20800239A4201D1052006E031F824
:106DA40023500468A54202D10360002030BD0133A2
:106DB400F1E700BF743F03007C400300502A002029
:106DC4002DE9F84F224B2348FF229A600022C3F892
:106DD4001824C3E90022C3F8142483F8202401F002
:106DE400F6FE814688B91C481C4E1D4CDFF87CA079
:106DF40001F09BFFA41BE4084D46A54208D10023E3
:106E0400184A19481946A3421BD14846BDE8F88FD1
:106E14004FF00008474606EBC50BBD420AD01422CA
:106E240056F83710DBF800000CF0A5FA0028C8BFAC
:106E340008F101080137BC42EFD12AF82580013559
:106E4400DBE720F8231042F8041B0133DBE700BF23
:106E5400A4320020903E03001C460300743F03004C
:106E64007C400300D42A0020522A0020502A00200B
:106E740007B5019031B9019A064B53F8320003B0BB
:106E84005DF804FB01A8FFF77FFF0028F3D0002082
:106E9400F5E700BF743F0300002310B5CB604B60DF
:106EA400034B8B600C460121FFF7E2FF206010BD0D
:106EB40028460300094B013903EBC000032909D814
:106EC400DFE801F00A0204060420704700797047E5
:106ED400407970470020704702207047743F0300D8
:106EE40030B5114C00EB400054F821508240072388
:106EF40083406A401A400D4B6A40C2F3821044F842
:106F0400212003EB8101C2F3C203834238BF03464D
:106F1400C2F34220834202F0070238BF03469A427A
:106F240038BF1A464A8030BDD42A0020502A002097
:106F34002DE9F74F06461D469046002A4FD0CB68F0
:106F440028684B4993F8049007220CF014FAD0B93E
:106F5400B8F1010F07D1474A0221304603B0BDE81A
:106F6400F04F05F031BE444F04460A2257F8041B83
:106F740068680CF000FA002873D00134052CF4D1B1
:106F84006B683E4A13E008223D4928680CF0F3F987
:106F940058B9B8F1010F04462AD00127394A3A4BAF
:106FA4009B1A4FEAD30A934645E02B68374A0221DD
:106FB400304603B0BDE8F04F05F006BE18F8353092
:106FC400A3420FD200212846FFF752FF5246034640
:106FD4000221304605F0F8FD0135BD42EED103B083
:106FE400BDE8F08F224629464846FFF779FFF3E7CC
:106FF400244B254FDFF89CA0FF1AFF08002503F15E
:107004000608EAE7184600210193FFF731FF0099CB
:1070140020220CF0B0F9019B014608B1013310E0C5
:107024000BEBC3029279A24215D322461946484675
:10703400FFF756FF01374745D1D255F82730009363
:1070440000239A45DED155F82730114A02213046F3
:1070540005F0BAFDEEE71846FFF70AFF0D4A0346AE
:10706400F4E7B8F1020FE4B2C2D0022796E700BFFA
:10707400F1440300F8440300384603006345030069
:107084000F450300743F03007C40030017450300D1
:107094004F4503002C45030013460A46C168FFF719
:1070A40047BF000013B504460191A3B162B9019A28
:1070B4000F4B04EB4404072053F82230A04018403F
:1070C400E040C0B202B010BD01A8FFF75DFE002889
:1070D400EDD00020F6E72AB9019A064B03EBC20370
:1070E4009879EFE701A8FFF74FFE0028F1D1F3E705
:1070F400D42A0020743F0300284B294A2DE9F04F7D
:107104009B1A4FEAD309CB685B7985B005460E46D6
:107114001BB9244A022105F057FD234B234A244F6F
:107124000821284605F050FD224A0821284605F08A
:107134004BFD00244C4502D105B0BDE8F08FF36847
:1071440093F8048001231A4621464046FFF7AAFF1C
:1071540001222146834600234046FFF7A3FF03286C
:10716400034628BF03235FFA83FA804601212046A1
:10717400FFF77EFE57F82A3001930F4A0F4B57F85A
:107184002B100091D04598BF134602930C4A034636
:107194000821284605F018FD0134CBE77C400300A4
:1071A400743F03008245030095450300A145030095
:1071B40038460300BF450300C65F03008045030053
:1071C400FC45030013460A46C168FFF795BF00005B
:1071D400034BD3E90030C31A58425841704700BFEB
:1071E400A43200202DE9F04F87B0FFF7F1FF0646E7
:1071F400002840F01A818E4DC5F81804BFF34F8F54
:107204006868AC6802902040033005EB800002A956
:10721400FFF798FC029B18B1D5F81824002A66D011
:1072240004EA0302991C013305EB8202234005EBB7
:107234008303D268DB68049302F00303022B0392F6
:10724400029169D1BDF80E307A489DF80C604FEA7E
:10725400931ABAF5A07FD14628BF4FF4A07969F3F9
:107264008F1309F10801ADF80E3001F0C8FCC6F324
:10727400C2068046002800F0BF8001F0EFFC03A99D
:1072840000230822404601F0FCFC029924EA01078D
:107294000137BF00B94538D95FFA89F997B3FFB20E
:1072A400A9EB0709214003315FFA89FBB946624F14
:1072B40005EB810108234A46404601F0E2FC37B160
:1072C40009F108035A463946404601F0DAFC029BAC
:1072D4000AF1030A03EB9A030293D5F81834002B3E
:1072E40050D1D5F81044DFF8649107276FE02A687D
:1072F4009A4204D86A60304607B0BDE8F08F04EAC9
:10730400030081E74C49BB46D4E7214003310823FD
:107314004A4605EB8101D7E7012B6DD1BDF80C601E
:107324004448C6F38311062928BF062161F3891650
:1073340002318900ADF80C6001F061FCC6F3C206AD
:107344008046002858D001F089FC0023082203A9B4
:10735400404601F096FC0027BDF80C20C2F38312CE
:10736400BB00974203F10803B7D202994A1C21409B
:107374000331029205EB81010422404601F081FCB5
:107384000137E9E7404601F06DFCFFF721FF80F08B
:107394000100C6B2AFE7E3685A79B2B11B79BDF810
:1073A400101003EB430259F8211007FA02F3052EDB
:1073B40003EA010323FA02F308BF0326B34204D30A
:1073C400236841461B6820469847E3681C68002CE4
:1073D400E1D1404601F046FC0DF107008DF807406D
:1073E40000F0B0FED5F818340BB9029B6B609DF821
:1073F400070000F0CBFEC8E7D5F8104474B90F4B72
:107404005B88012BC1D90E4B0E480F49C01AC00826
:10741400000440F0020000F073F8B6E72368204649
:107424009B689847E3681C68E8E7002663E700BFA9
:10743400A4320020903E0300B0320020682A0020CD
:10744400743F0300A43F030047480300D42A0020EC
:107454002DE9F74F284C80460F46924601A9012298
:1074640018469B46D4F80890FFF78AFB80B3019D29
:107474000026A91C5E4506EB010233D100211F48FA
:1074840000F060FF80F310006A1C02EA090204EBBA
:107494008202000405EA0903033340EA1840D0607D
:1074A40014F8232068F3C50204F8232034F82320B9
:1074B40066F3891224F8232054F8232067F39F22CB
:1074C40044F8232002F0F80242F0010204F82320D9
:1074D40094F820341BB1FFF785FE0028FBD103B0DC
:1074E400BDE8F08F09EA020204EB82025AF8263062
:1074F400D3600136BEE700BFA4320020C0360020AE
:1075040000231A46FFF7A4BF07B50123019201AA7D
:10751400FFF79EFF03B05DF804FB07B5CDE9002338
:1075240002236A46FFF794FF03B05DF804FB1FB51E
:10753400CDE90123069B039301AA0323FFF788FFE8
:1075440005B05DF804FB1FB5CDE90023069B02934B
:10755400079B03936A460423FFF77AFF05B05DF89F
:1075640004FB7FB5CDE90123089B0393099B049396
:107574000A9B059301AA0523FFF76AFF07B05DF88C
:1075840004FB00001C4A2DE9F843D2F810340746E6
:1075940088460024194689B9F9680C71A3B9C2F860
:1075A40010740B60154B164DED1AED08002603F10F
:1075B4000709AE420DD12046BDE8F883C9680879B1
:1075C400A04212D00968E6E7DB681A680A601F6007
:1075D400E8E719F83620FB684245314628BF4246A1
:1075E4001879FFF77DFC0136E3E701340A2CD1D189
:1075F4004FF0FF34DFE700BFA4320020743F0300E4
:107604007C400300094A38B50123D2F8104482F8BB
:1076140020341D4604B938BDE3685D7123682046F3
:107624005B689847E3681C68F4E700BFA432002055
:1076340010B588B00023CDE902330493CDE90033BB
:107644001E4B1F4A05931F4B06929B1A9B080793D8
:1076540002AA6B4643F2274141F26E0002F07BFD21
:10766400B0B905A902A802F06FFD174B5B88022B85
:1076740004460AD91548164B1649C01AC008000416
:10768400224640F00300FFF73FFF204608B010BD3C
:107694000A2810D105A902A802F052FD0A4B5B8802
:1076A400022B0446F1D90948094B0B49C01AC008FA
:1076B40000042246E5E70324E7E700BF6E10273401
:1076C400D42A0020582B0020682A0020A43F03005D
:1076D400743F0300E54703001648030010B58368B0
:1076E400D3F84C319B07044605D500221146BDE86A
:1076F400104006F02DBBFFF79BFF30B9044A082168
:107704002046BDE8104005F05FBA024A0221F7E7BF
:10771400B4440300CC44030000B589B00023CDE990
:1077240005330793CDE9013305AA01AB43F22741A1
:1077340041F26E0002F00FFD90B9CDE9030003A9F8
:1077440005A802F0B7FC40B90F48104A0499121A70
:107754000BF0B8FE05A802F0D1FC09B05DF804FBFB
:107764000A280FD10A4B5B88012B09D909480A4B17
:107774000A49C01AC008000440F00200FFF7C0FE26
:107784000520EAE70320E8E7D42A0020582B00204C
:10779400682A0020A43F0300743F0300C04703008D
:1077A40010B58368D3F84C319B07044605D50022F5
:1077B4001146BDE8104006F0CBBAFFF7ADFF30B973
:1077C400044A08212046BDE8104005F0FDB9024AEC
:1077D4000221F7E77844030090440300037A052B61
:1077E40010B50C460FD0437A23B1084A0849204605
:1077F40000F0C4FE0749204600F0C0FE2046BDE864
:10780400104000F0B0BE002AF8D0F3E7C74A0300E6
:10781400B05F0300EC6C0300C38873B504460D46E7
:1078240033B1144A00921449144A284600F0A6FEC3
:10783400217A05291CD0637A4BB1A088FFF73AFB63
:107844000F4B104953F82020284600F097FE227A67
:107854000D4BA08853F822600021FFF709FB0B4968
:1078640003463246284602B0BDE8704000F086BEAA
:1078740002B070BDC74A0300D44A0300CC4A0300D7
:10788400944A0300B05F0300F84A0300EC4A030083
:107894002DE9F04385B01F460C9D002306460C4697
:1078A400904695F80C902B7329463846FFF7B4FFA1
:1078B400B8F1060F09D8DFE808F00412181F2833BE
:1078C40040003146284600F059FE00222946384639
:1078D400FFF784FF85F80C9005B0BDE8F0832268BB
:1078E4003146284600F04AFEEFE7D4E9002331464A
:1078F400284600F043FEE8E7A36800933146D4E944
:107904000023284600F03AFEDFE7E3680193A3680A
:1079140000933146D4E90023284600F02FFED4E733
:1079240023690293E3680193A36800933146D4E981
:107934000023284600F022FEC7E763690393236906
:107944000293E3680193A36800933146D4E90023CA
:10795400284600F013FEB8E708292DE9F84F8046C1
:107964000E4617461C463AD8002593F80C901D7312
:1079740019461046FFF750FFDFF884A0DFF884B003
:10798400AE422ED918F805205946204600F0F6FDDF
:107994000135082DF4D11849DFF86CB0204600F009
:1079A400EDFD4FF0000A564520D918F80A507E2DF7
:1079B40003D828460BF0B9FA00B92E252A465946B1
:1079C400204600F0DBFD0AF1010ABAF1080FEAD102
:1079D400012221463846FFF701FF84F80C90BDE8E8
:1079E400F88F5146204600F0C9FDD1E703492046EF
:1079F40000F0C4FDE7E700BFC24A0300C04A030029
:107A0400BE4A0300B84A0300C44A0300704700009A
:107A140007B5044B0093044A4023FEF78FFF03B0DD
:107A24005DF804FB897A0200ED37002070B5064644
:107A340003291BD8DFE801F0021B0F170D4D0E4C74
:107A4400304608F0EEF801222946204608F0EEF808
:107A54000028F5D00AE001220649074808F0E6F8B4
:107A6400064B012201E0054B00221A7070BD044B45
:107A7400F7E700BFEC370020444B03006D380020CB
:107A84006E38002038B50C4C002020700B4800786C
:107A9400154680B10A480BF015FD2A4608490948E5
:107AA40008F09EF808B100F053F8074B1A7812B1A9
:107AB4002378002BFBD038BD6E3800206D380020B1
:107AC4002D380020444B030060370020704700002D
:107AD40008B5054807F0A0F808B100F039F8034BE1
:107AE40001221A7008BD00BF444B03006037002018
:107AF40070B5084D084E00242B789C4201D3002019
:107B040070BD3368012113F8340002F065FF0134BD
:107B1400F2E700BF6F3800209038002070B5094D9F
:107B2400094E00242B789C4204D30848BDE87040D9
:107B340000F0F8BA336813F8340002F097FF013408
:107B4400F0E700BF6F380020903800207038002024
:107B54001FB50021039001AA44F20100CDE90111EF
:107B640000F004F805B05DF804FB000010B572B62F
:107B7400FFF748FDFFF736FB0028FBD1154C628860
:107B84004AB11548154B1649C01AC008000440F004
:107B94000100FFF7B5FC134B1B68DB0700D500BEE3
:107BA4006388012B09D90C480C4B0F49C01AC00833
:107BB400000440F00200FFF7A3FCBFF34F8F0B4912
:107BC4000B4BCA6802F4E0621343CB60BFF34F8FE0
:107BD40000BFFDE7682A0020A43F0300743F0300B0
:107BE400744B0300F0ED00E0804B030000ED00E077
:107BF4000400FA05094A537891780133DBB29942BB
:107C040008BF0023117899421FBF037050781823CE
:107C140003FB002014BF0430002070479438002078
:107C240073B5054600240DF107000E468DF8074094
:107C340000F088FA0DF10600FFF7DCFF90B1067042
:107C4400094B9DF8062045605A709DF8070000F026
:107C54009DFA24B9054B4FF48012C3F80021204645
:107C640002B070BD0424F0E79438002000E100E085
:107C7400024B4FF43C6043F001031847904B030060
:107C840038B50C4B0C4C4FF40032C3F8802001255E
:107C94004FF48033C4F84833C4F808336560FFF701
:107CA400E7FF064BA56000241C60FFF7E1FF044BCF
:107CB4001C7038BD00E100E000100140B039002024
:107CC400A1390020F8B51F4B1F491B680025C1F8D6
:107CD4004051C1F84451C1F84851C1F84C51C1F860
:107CE4000051C1F804514BB3D1F804451749096850
:107CF400641A24F07F442F461A68A24209D8A41AB1
:107D040015441A7CDE691AB11F74D3E90520904723
:107D1400AEB90F4A0F4B11781B788B4205D1013352
:107D2400DBB2022B08BF0023137012780A4B43F80E
:107D340022500A4B4FF48012C3F80021F8BD334699
:107D4400DAE700BFB439002000100140B039002048
:107D5400AD390020AC390020A439002000E100E056
:107D64002DE9F04FA04AA14913780978A04D994212
:107D740085B03CD00133DBB2022B08BF0023137063
:107D84009C4912789C4B0F6853F822003B1823F04F
:107D94007F4300220B602B6816461446944613B9A1
:107DA40042B12B6006E0196881420ED902B12B6002
:107DB400091A19604FF001082B68DFF844A20193F7
:107DC4000027BEB9DFF840B266E0401A0C44D96817
:107DD400C3F800C0D3F81CE031B13A1922F07F4255
:107DE400C3E90121DE611E4601227346D7E700265E
:107DF400B046E1E73446F6697E4A63681268DFF804
:107E04000CC2A068991A21F07F41614500F2A58057
:107E140001442160012222742A680023C4E9013349
:107E2400E361002A40F0A2802C60CAE75A1C9BF848
:107E34000210D2B291428BF8002004BF00228BF8CA
:107E44000020182202FB03B31A799C68022A1CD072
:107E5400032A12D0012A1FD1207CE8B9D3E90312E6
:107E6400A2605A69E2609A69644BA2611B78002B94
:107E74000CBF0B4603466360BEE700222B68114625
:107E8400002B66D142B12B6006E029680A46894678
:107E9400002A59D1002323749BF800309BF8012059
:107EA4009A42C3D12B682FB9019A9A4202D1B8F1F0
:107EB400000F43D0002B73D0D3F800A0504D4D4B8E
:107EC400D5F804751C68DFF848813E1B98F800302B
:107ED40026F07F4603369BB94FF48033C5F844330C
:107EE400C5F80433474B4FF400324FF00109C3F88F
:107EF40080211A60C5F80090FFF7BAFE88F8009058
:107F0400B2452CBF5444A41924F07F44C5F840451D
:107F1400D5F80435DB1B23F07F43E41B033324F043
:107F24007F44A3420AD9D5F80435C5F84035FFF794
:107F34009FFE344B4FF40032C3F800212F4B002234
:107F44001A7005B0BDE8F08F94422CD09146D269E6
:107F54009EE719740122DB6992E7D31A23F07F4369
:107F6400834234BFC31A0023236053E72168136894
:107F7400994213D8591A1160E26155E7091AD86970
:107F84001A4638B1034618688842F7D3401A186075
:107F9400184613462160E061DC6112E71346F2E7FC
:107FA400FFF76EFECAE74C4511D1CB692B6073B95C
:107FB400DFF840E00120CDE90212CAF80800CEF84B
:107FC40000300E4B1870FFF753FEDDE90212136800
:107FD400D269C9F81C2012B11068034413602B68DD
:107FE400994218BF012755E7AC390020AD3900206C
:107FF400B4390020B0390020A4390020A039002071
:108004000010014000E100E094380020FEFF7F00F2
:10801400A139002008B5FFF733FE104B00200B22D6
:1080240018809A700E4B18600E4B18700E4B187017
:108034000E4B4FF48012C021C3F8802183F814132F
:108044001A6002F18042A2F56F22C2F8080583F893
:108054001113074BD2F804251A6008BD9438002088
:10806400B4390020AC390020AD39002000E100E033
:10807400B0390020074B9B784BB132B128B103686B
:10808400187C20B959745A6170470720704708203A
:10809400704700BF943800202DE9F7431E4FBB788A
:1080A40005460E469046A3B398B304292FD94369D5
:1080B4007BB3437C0024012B0DF107000CBF8946E0
:1080C400A1468DF8074000F03DF80DF10600FFF7DA
:1080D40091FDD0B101230370104B4560D3F80435F2
:1080E400C0E90498C0E902369DF806307B709DF81B
:1080F400070000F04BF824B9094B4FF48012C3F881
:108104000021204603B0BDE8F0830424EFE70724F0
:10811400F7E70824F5E700BF943800200010014079
:1081240000E100E0064A92783AB130B1426922B1E6
:10813400002202740221FFF773BD0820704700BFBC
:108144009438002070B5EFF3108672B60C4A946828
:1081540001239CB993600B4B0B4DD3F8801029403D
:108164001160C3F88050D3F8841051604FF0FF328F
:10817400C3F88420047006B962B670BD0370FAE7D0
:10818400B839002000E100E0FC06FFBD084B9A6806
:1081940010B55AB150B9EFF3108172B6054A1C6894
:1081A40014605C685460986001B962B610BD00BF89
:1081B400B839002000E100E010B561B1B2FBF3F47E
:1081C40003FB1424A4B244B9C0E90014846082817E
:1081D400C381204610BD0E20FCE70920FAE782B0D7
:1081E40050E8022FC188B2EB324F4FF0000317BFA3
:1081F40092B241EA014142EA014104E04268B2EB31
:10820400324F08BF012340E80212002AE8D18DF85A
:1082140007309DF80730002B0CBF1120002002B05E
:10822400704737B550E8013F9DB2C489254484891D
:10823400A54228BF2D1B0489A54202BFBFF32F8F7F
:10824400002207E0C5EA030540E80154002CE9D107
:108254004FF001028DF803200193019B9DF8032048
:108264000B6002F0FF0322B10B880068184403B0CE
:1082740030BD1846FBE70A884B889A4209D150E87A
:10828400012FC2EA024240E80123002BF7D101206A
:1082940070470020704737B550E8023F1FFAA3F536
:1082A400C488A54202BFBFF32F8F00220DE0C4890A
:1082B40025448489A54228BF2D1BC3EA054540E80F
:1082C4000254002CE8D14FF001028DF803200193F1
:1082D400019B9DF803200B6002F0FF0322B14B8841
:1082E4000068184403B030BD1846FBE70A884B8881
:1082F4009A4209D150E8022FC2EA224240E80223FE
:10830400002BF7D1012070470020704701F01F02B5
:108314004B090121914000EB830000F028B801F0E3
:108324001F0301229A404B0900EB8300D14300F064
:1083340034B84B0901F01F0150F82300C84000F085
:108344000100704750E8002F0B4640E8003C9CF0C9
:10835400000FF7D11046704750E8002F42EA01039E
:1083640040E8003C9CF0000FF6D11046704750E8FE
:10837400003F43EA010240E8002C9CF0000FF6D1D4
:108384001046704750E8002F02EA010340E8003C21
:108394009CF0000FF6D11046704750E8003F03EA06
:1083A400010240E8002C9CF0000FF6D11046704703
:1083B40050E8002F02EB010340E8003C9CF0000F62
:1083C400F6D11046704750E8003F03EB010240E845
:1083D400002C9CF0000FF6D11046704750E8003F87
:1083E400A3EB010240E8002C9CF0000FF6D11046EC
:1083F40070470121FFF7B0BF0121FFF7B8BF00218B
:10840400FFF7C0BF0021FFF7C8BF00002DE9F04708
:108414008368D3F84C41C4F3400488B0074634B1B0
:108424000022114608B0BDE8F04705F091BC0129CF
:1084340006D91E4A022108B0BDE8F04704F0C4BBC7
:108444001B4D1C4EDFF870A04FF06408A146761B4C
:108454001C23B6FBF3F6A64205F11C0502D108B0B5
:10846400BDE8F08755F81C0C55E90623017900682E
:108474009A1A1B1ADBB2039308FB03F3B3FBF2F360
:10848400CDE9019335F8043C0093CDE9061255F883
:10849400083C11FB08F13846B1FBF2F1CDE90421A7
:1084A4005246082104F090FB0134D4E780500300C5
:1084B400903E0300E43E03009350030010B590B1D6
:1084C400D0E9012301689B1ADBB20A60013BDBB2ED
:1084D400FF2B026802D10020107110BD11684C1CE2
:1084E40014600B70F2E70E20F7E737B50546002459
:1084F4000DF107008DF80740FFF724FE2A686B682A
:10850400116899420ED9481E106011F8014CEB68AD
:10851400298B01FB0434AB6811791B1ADBB2994235
:1085240038BF13719DF80700FFF730FE204603B0F3
:1085340030BD37B5054600230DF107000C468DF814
:108544000730FFF7FFFD2A681368591C1160E968BA
:10855400641A298BB4FBF1F41C709DF80700FFF733
:1085640015FE03B030BD826810B504462AB14369D4
:108574000168006998470023A36010BD0EB403B5D9
:10858400039921B104AB01AA019300F06DF802B084
:108594005DF804EB03B07047826830B40468551C7E
:1085A4008560A154D0E901329A4202D330BCFFF76E
:1085B400DABF30BC704700002DE9F84F9946DDE979
:1085C4000A431746824688460A460126BA420FD213
:1085D4004E4538BF4E4613F0010B01D164B9002457
:1085E4000125B9F1010F1AD909F1FF397D43F8E7E3
:1085F400B2FBF7F20136E9E79B070ED5B9F1000F9C
:108604000CBF30252025A642EAD2013C294650461B
:10861400FFF7C2FF002CF6D1E1E72025F3E7B8FB12
:10862400F5F39F42E2D9DFF83C90B8FBF5F35046EE
:1086340019F8031005FB1388FFF7AEFFB5FBF7F33A
:10864400BD4207D2BBF1000F02D00CB1A64203D346
:10865400BDE8F88F1D46E8E720215046013CFFF7AE
:108664009BFFF2E77C5103002DE9F74F05461746BF
:108674008846002900F0318118F8011B49B92B7B89
:10868400002B00F02A81284603B0BDE8F04FFFF725
:108694006ABF252940F0C080002698F800302D2BB1
:1086A400424608F1010823D0302B24D02B2B25D0AF
:1086B40000242A2B02F1010123D13B681A1D1B68F7
:1086C4003A601C440A4613782E2B26D101324FF00F
:1086D400000A104610F8011BA1F1300CBCF1090F7F
:1086E4001DD80A2303FB0A13A3F1300A0246F0E75C
:1086F40046F00106D1E746F00206CEE746F004064E
:10870400CBE711F8013CA3F130000928DBD80A2299
:1087140002FB0434303C0A46CBE74FF0000A12F85F
:10872400011B01F0FB0068289046F8D069290ED09F
:108734004AD8582964D006D825296DD098F8003035
:10874400002B99D19BE7632962D06429F6D13A685A
:10875400D2F80090111D89EAE9723960A2EBE9723E
:108764004FF0010B092A5BDCD34538BFD3462CB14B
:10877400B9F1000F01DB710700D5013CB20702D546
:10878400BAF1000F04D0F30702D4002C4ED1002418
:10879400B9F1000F52DAC9F100092D212846FFF77B
:1087A400FBFE06F00302022A05D1BAF1000F02D142
:1087B400002C47D10024CDE9004653460A224946FD
:1087C4002846FFF7F9FEB9E773294CD014D870296D
:1087D400B4D13B681A1D3A60302128461C68FFF763
:1087E400DBFE78212846FFF7D7FE00220823CDE9D7
:1087F400003221461022E3E775292BD078299DD138
:1088040039680A1D3A60CDE900465346102228E033
:108814003B681A1D19783A602846FFF7BDFE8DE7BC
:108824000A230BF1010BB2FBF3F29BE7A345AFD292
:1088340020212846013CFFF7AFFEA6E77007B0D51C
:108844002B21ABE7A345B6D230212846013CFFF7E4
:10885400A3FEADE73968CDE900460A1D3A605346E8
:108864000A220968ACE73B681A1D3A60F107D3F89D
:10887400009020D4B9F1000F25D048460AF0C7FE75
:108884000646B44200D9C4B909F1FF3920E02846AC
:108894000136FFF781FE19F806100029F7D1A64228
:1088A400BFF44CAF002C3FF449AF20212846013CD3
:1088B400FFF772FEF3E70026EDE720212846013C8E
:1088C400FFF76AFEDDE74E46DBE72846FFF764FE66
:1088D40019F8011F0029F8D130E703B0BDE8F08F83
:1088E4000B0710B5044607D50AF0E8FA20B1204674
:1088F400BDE810400AF01EBB204610BD2DE9F04F24
:1089040087B08A4615460293064618B9012007B077
:10891400BDE8F08F0029F9D0029B002B00F01181F3
:1089240002F004030C460493B046294618F8010BE0
:10893400FFF7D6FFC7B23F2F22D00ADCCFB12A2FD0
:1089440036D0294614F8010BFFF7CAFF87421FD01F
:10895400DCE75B2F7CD05C2FF3D1EB07F1D4294605
:108964007078FFF7BDFFC7B2002FEAD006F1020806
:10897400E7E7E906207838D52F2836D10020C6E766
:108984002378002BC2D02F2B04D1AA07BED40134E4
:108994004646C9E72E2BFAD1049B002BF7D0544549
:1089A400B4D0AB07F3D514F8013C2F2BEFD1ADE7CE
:1089B40070782946FFF794FFC1B22A2919D0237889
:1089C4002E2B09D1049B3BB154459FD0AF0703D54F
:1089D40014F8013C2F2B99D079B9AE07CED5ED060A
:1089E400CCD42F2120460AF0B6FC003018BF012059
:1089F4008DE7294618F8010FDCE72F2901D1A807D4
:108A04001FD4029B25F004095F1E05F0020AA34649
:108A140029469BF80000FFF763FFC6B20134002E1D
:108A24003FF474AF3B464A4659464046FFF766FF5B
:108A340001287FF46CAF2F2EE9D1BAF1000FE6D0F4
:108A440064E720460AF087FC04460028A0D15DE7CD
:108A5400207800283FF45AAF2F2802D1A9073FF508
:108A640055AF2946FFF73CFF8346B8F1000F3FF4AA
:108A74004DAF7378212B01D05E2B25D10236012313
:108A84000122019305EA02034FF0000903933746DC
:108A9400294617F8010B0592FFF722FFC3B25D2B9D
:108AA400059A14D112BB019B4B453FF42FAF002F05
:108AB4003FF42CAF7A1C04D123785B2B7FF426AFD0
:108AC40047460134B84663E746460023D8E72F2BD0
:108AD400F2D05C2B07D1039A42B929467078FFF78C
:108AE400FFFEB71CC3B2002B3FF410AF3A782D2A17
:108AF40021D1294678780593FFF7F2FEC0B2059B91
:108B0400C8B15D2817D05C2807F102060BD1039A7F
:108B14004AB92946B878FFF7E3FEC0B200283FF40B
:108B2400F5AE059BFE1C9B4503DB8345D8BF4FF088
:108B340001090022ABE73E469B4508BF4FF00109FF
:108B4400F7E70320E3E64023FFF7D8BE2DE9F0471B
:108B5400B0F806904479D2F800A09DF8208009FB73
:108B640004F4043C06460AEB0300A0420F4688BF07
:108B7400A4EB030A191DC2F800A0B1FBF9F509FB27
:108B840015114DB9A9EB0104544528BF5446BAF157
:108B9400000F04D1BDE8F0873668013DF1E70431E8
:108BA4007B1970182246B8F1000F0ED00146184602
:108BB400AAEB040A0AF086FCD145254436684C46E3
:108BC4004FF0000128BF5446E1E71946F0E7FFF7EC
:108BD40075BCF8B546790146721E054600239342DA
:108BE4002D6803D30024A64202D8F8BD0133F6E76A
:108BF4000F682846FFF79DFC01343946F3E72DE959
:108C0400F843068BCD1C0746FFF76FFC043E354442
:108C14000446B5FBF6F5F0B14FF48073EDB28380F2
:108C2400C680013D076081464FF00008A84512D276
:108C34003846FFF75AFC064648B16379013363713D
:108C440008F10108C9F8000007608146EEE72046F4
:108C5400FFF7BFFF34462046BDE8F8830121043006
:108C6400FFF7B1BB10B5012104460430FFF7B6FB92
:108C740010F0FF0F04D12046BDE81040FFF7A9BF54
:108C840010BD1FB503920022009203AAFFF75EFFF6
:108C940005B05DF804FB1FB503920122009203AAFC
:108CA400FFF754FF05B05DF804FB41DF7047000097
:108CB400064B10B500241C70054B1C60BFF35F8F7E
:108CC4000449054800F03AF8204610BDCC3900208C
:108CD400D03900208C510300C439002007B500238B
:108CE4000DF107008DF80730FFF72CFAF1EE103A7A
:108CF40023F09F03E1EE103ABFF35F8F094B40224C
:108D0400C3F884219DF80700FFF740FA09F094FEA8
:108D140020B1FFF7CAFF03B05DF804FB20BF40BFDA
:108D240020BFF8E700E100E07047836800225A6042
:108D34009A60C3E90422DA601A6070470B684A68D3
:108D44004360934208BF0023016008BF436070473B
:108D5400436843B10268916852680B44934243608C
:108D640004BF00234360704710B50D49A1F5947208
:108D7400914201D800200FE08B1ADB1003EBD37370
:108D84005B1002EBC30452F83330834205D802D29D
:108D940004F10802ECE7606810BD2146E8E700BF73
:108DA400DC52030008B5FFF7DFFF024B002808BFC1
:108DB400184608BDA151030029DF704728DF70471A
:108DC40070B503689D6886B004460E466DB11422E2
:108DD400002168460AF09FFBA36805932379019656
:108DE4002BB1012B0DD06846A84706B070BD0123F6
:108DF4008DF8003023690293E36803936369049355
:108E0400F1E702238DF80030E3681B030293F5E7D2
:108E14000846704700207047024B187A003018BF8C
:108E240001207047603A0020034B187A0122B0FAFF
:108E340080F05A7440097047603A002008B5104623
:108E44001A460AF03FFB002008BD000008B51422B2
:108E5400002104480AF05FFB0348FFF7C0F9002033
:108E640008BD00BF603A00207C2B002010B5094CDF
:108E7400094B43602046FFF7BCFA40B909F0DCFD1A
:108E84001C2320748C2205490548FFF795F900201E
:108E940010BD00BF603A002098560300D43900206A
:108EA4007C2B002070B5244D244E2B7A2C463BB9E4
:108EB40023492448FFF7EFF9306008B9686070BDB2
:108EC4000223237233681A7972B1012A24D0184616
:108ED4000321FFF775FF00232372636018491948C3
:108EE400BDE87040FFF702BAD3E90520121AB2F5C3
:108EF400805F28BF4FF48052D3E903159208012AFA
:108F0400014438BF01222844FFF756FF50B111280D
:108F1400DDD101232372D2E7D3E903021044FFF722
:108F24004DFFF3E7237C002BC9D10146BDE8704017
:108F3400022000F009B800BF603A0020783A00200F
:108F4400743A00207C2B002038B5831E012B45D8B1
:108F5400234C237A002B41D0022B09D1032830D093
:108F6400204B1B680022E2601A793AB1012A22D010
:108F7400637C7BBBBDE83840FFF794BFD3E905129F
:108F84008D1AB5F5805F94BF521902F580529A612B
:108F94009142EDD102284FF0000308BF1946237215
:108FA400104B18BF0D211868FFF70AFF0E490F4830
:108FB400FFF79CF9DCE71A6901321A615B699A428E
:108FC400E7E7E3680133082B01D8E360D0E7002327
:108FD400E360DFE7BDE8384009F01EBD38BD00BFDF
:108FE400603A0020783A0020743A00207C2B00205C
:108FF40000F0FD03012B08D1044B00225A74421ED9
:10900400504250411874FFF74DBF7047603A00203A
:1090140010B5064C201DFFF7ECF928B9637C1BB989
:10902400BDE81040FFF73EBF10BD00BF603A00200E
:109034002DE9F34180460D460F4801A916461F4607
:10904400FFF7EFF80446A8B11C2200210AF063FAE6
:109054002D0B0123237101A9C4F80080A760E560EA
:1090640066610548FFF707F9FFF7D2FF002002B059
:10907400BDE8F0810420FAE77C2B00202DE9F743BA
:1090840081468846104801A917461E46FFF7C9F8CD
:109094000446B0B11C2200210AF03DFA00250A9BC7
:1090A400A36001A92571C4F80090C4E9037866613E
:1090B4000548FFF7E0F8FFF7ABFF284603B0BDE82B
:1090C400F0830420FAE700BF7C2B002007B50B4691
:1090D400A0B9154B5B886BB1144B1548154AC01ADF
:1090E4000E23C0080093144B0004144940F00100FF
:1090F400FEF71DFA0E2003B05DF804FB6BB90A4BB2
:109104005B88002BF6D0094B09480D4AC01AC008E9
:109114000E2300930004084BE7E703601B68114625
:1091240003B05DF804EB1847A82A0020743F03003D
:10913400244003007F570300D256030084570300E2
:10914400FB5703002DE9F3419646B0B9504B5B88B9
:10915400002B00F095804F4B4F48504AC01AC0086E
:109164000E244F4B009400044E4940F00100FEF7DA
:10917400DEF9204602B0BDE8F0816AB9444B5B8851
:10918400002B7DD0434B4448474AC01AC0080E24E4
:1091940000040094424BE7E7D0F800C0BCF1000F94
:1091A4000DD13B4B5B88002B6CD03A4B3A483F4A7D
:1091B400C01AC008082400040094394BD4E76BB9E2
:1091C400334B5B88002B5FD0324B3348384AC01A8C
:1091D400C008092400040094314BC5E74768D7F858
:1091E4000480B3FBF8F708FB17376FB1284B5B8893
:1091F400002B49D0274B28482E4AC01AC0080924FE
:1092040000040094264BAFE78F070DD0204B5B88FA
:10921400002B3BD01F4B2048274AC01AC0081024FB
:10922400000400941E4B9FE712F0030F0CD0184B60
:109234005B885BB3174B1848204AC01AC008102437
:1092440000040094164B8FE7C768B9420BD34C1E39
:1092540005691C44AC4206D8DCF80C40A44602B0B4
:10926400BDE8F04160470A4B5B887BB1094B0A4873
:10927400134AC01AC008102400040094084B73E772
:109284000E2476E7082474E7092472E7102470E7B3
:10929400A82A0020743F0300244003007F570300E2
:1092A400E45603008457030001580300F5570300F4
:1092B400B45703000758030031580300495803000A
:1092C4006C580300F7B5A0B9374B5B88002B63D00B
:1092D400364B3748374AC01AC0080E24364B009420
:1092E4000004364940F00100FEF721F9204603B09E
:1092F400F0BDD0F800C0BCF1000F0DD12A4B5B8843
:10930400002B4BD0294B2A482D4AC01AC0080824E8
:1093140000040094284BE4E76AB9234B5B88002BD4
:109324003ED0224B2248274AC01AC0080924000410
:109334000094214BD5E74768D7F800E00EF1FF37DA
:109344000F420CD0184B5B8863B3184B18481E4A65
:10935400C01AC008102400040094174BC1E7C76862
:10936400B9420CD34C1E05690EFB0244AC4206D82C
:10937400DCF81040A44603B0BDE8F04060470A4B57
:109384005B887BB1094B0A48104AC01AC0081024F4
:1093940000040094084BA4E70E24A7E70824A5E7DB
:1093A4000924A3E71024A1E7A82A0020743F03009E
:1093B400244003007F570300F7560300845703003B
:1093C400F5570300B45703000A570300305703004E
:1093D40018B103680BB15B6918470020704700009F
:1093E400014B436000207047A058030008467047B3
:1093F40000207047024B1868003018BF01207047E6
:109404007C3A002008B50248FEF7FCFF002008BDA6
:109414007C3A002008B510461A460AF053F800209A
:1094240008BD00002DE9F041804686B013480E4681
:1094340015461F46FEF7DDFF044630B111200EE04D
:1094440006EB043002F048FE0134A542F8D10B4883
:10945400FEF7D8FFD8F8083000241BB9184606B028
:10946400BDE8F081022268468DF80020CDE901466E
:10947400CDE90345059798472046F0E77C3A00205C
:109484002DE9F041804686B012480F4616461D4627
:10949400FEF7AFFF0446D8B9AA083146384602F0B1
:1094A40033FE0C48FEF7AEFFD8F808301BB9184657
:1094B40006B0BDE8F08101228DF800200C9A0592D7
:1094C4006846CDE90147CDE9036598472046EFE7B3
:1094D4001120EDE77C3A002070B5064D06460024C5
:1094E40055F8043B0BB1304698470134042CF7D1AE
:1094F40070BD00BF8C3A0020033080B240F2FD33CF
:10950400984230B51FD8124B1A783AB91C895D8934
:109514002C440444A4B2B4F5806F0AD31A7DA2B9D2
:109524009A8BDC8B2244024492B2B2F5806F0CD247
:1095340001220A801446142202FB04335A8910447F
:109544005881002030BD0920FCE70720FAE700BF5E
:10955400C03A00200B4A0C4B5188142000FB013107
:10956400CB6833B904204968107001220748FFF71B
:10957400A9BE05230649137002238B800122002310
:109584000968F3E7A43A0020C03A00203C2A0020EE
:10959400783B002007B5002305490093054A096874
:1095A40005480823FFF7CEFD03B05DF804FB00BFB8
:1095B400783B0020D85803003C2A002007B500233C
:1095C400009301460823034A0348FFF7BBFD03B099
:1095D4005DF804FBD05803003C2A002013B5002397
:1095E4000C46009301460423074A0848FFF7AAFDE6
:1095F40038B9074B142202FB04340123237402B04C
:1096040010BD0E20FBE700BFCC5803003C2A00200D
:10961400C03A002037B50A480A4B42689C8819684A
:1096240053880325033305709BB2002000909B00F0
:1096340001EB84010448FFF785FD03B030BD00BF92
:10964400A43A0020783B00203C2A002010B50146B3
:109654000448FEF7E6FD1C220446002109F05BFFE6
:10966400204610BD902B002068B10268084B9A4236
:1096740009D14068074B984207D0013398420CBF88
:10968400012003207047032070470020704700BF6B
:10969400DEC0ADDEFE011EF14388033300EB83031D
:1096A400994209D382884FF6FF739A4206D0008804
:1096B400B0FA80F0400970470220704701207047DB
:1096C4002DE9F8430223DFF860800B800D4617462E
:1096D40000F5805600F108044FF00109B4420FD29E
:1096E400236801330CD031462046FFF7D5FF48B13B
:1096F4000FB187F8009002280BD14FF480632B80C0
:10970400BDE8F883A368D8F80020934201D9C8F8CB
:1097140000302B886288033313442B80638803331F
:1097240004EB8304DAE700BFB83A0020154A142397
:1097340003FB002070B50B6844680D4604F58056A1
:10974400ABB15C88033403EB8404B4420DD22368C8
:1097540001330AD031462046FFF79EFF01280BD083
:1097640010F0FF0F05D00228EFD1002003E00834E9
:10977400EBE72C60012070BD6388033304EB8304A2
:10978400E3E700BFC03A0020436873B504460D46C2
:109794006BB3244AD1688B4229D31269934226D8E9
:1097A40013F0030223D120490089098988421ED17C
:1097B4002068996888421AD11C494868834203D9B1
:1097C40000F5805083420ED38A6993420DD902F585
:1097D4008052934209D201232B800020B0FA80F0FA
:1097E400400902B070BD1346F6E70A20F6E70023ED
:1097F4002B801E46019601A92888FFF797FF30B9F0
:109804002B8801339BB2012B2B80F3D9E9E7019B11
:10981400226899689142EED16360034B1B892381CE
:10982400DFE700BF3C2A0020A43A0020C03A002011
:109834002DE9F8431C461C4B1B7806460F4615467B
:109844006BB372B36CB3DFF868804FF01409A3886C
:10985400012B01D90A2020E009FB03F318F8033097
:109864002BB92146A088FFF761FF20B92060A388A7
:109874000133A380EBE723681EB1998832889142B3
:10988400EFD11FB119883A889142EAD19A68C5E9A3
:109894000023064B1B892B810020BDE8F88302209E
:1098A400FBE70520F9E700BF9C3A0020A43A00201A
:1098B400C03A002008B5074B191D5888FFF736FF3A
:1098C40018B1BDE80840FFF7A5BEBDE80840FFF7A2
:1098D40041BE00BFA43A00202DE9F04FA04FDFF8AD
:1098E400A49289B00646B8463B6823B949469D48C8
:1098F400FEF7D1FC3860D8F8005029784B1E052BB0
:1099040000F2FA80DFE813F006005E005E00EE006D
:10991400EE005C0126B1944B00225A600124ECE075
:109924002B79032B1DD8DFE803F015022A358F4964
:109934000B78022B084619D00B7D022B4FF0010344
:1099440016D114225343C2180020C8545068FFF79C
:1099540035FE03E001232B71FFF71CFE002800F005
:10996400BC80814B00225A600E24C6E00023E8E745
:109974007D4A13700023536041F61D54BDE07C49B9
:109984007C48002302222B718A8001220968FFF798
:1099940099FCE3E7764C00262E712068734DFFF79F
:1099A4000DFE754BD4F800C05A8814235343EA18AB
:1099B400EE5451682160A188C2F804C011810222CA
:1099C400A280CBE7B5F814A0AA7DDFF8A0B1AEB1B0
:1099D400022AEB8806D9142101FB0AB1DA1C088992
:1099E40002440A81142202FB0ABAC3F57F43BAF87F
:1099F4000A20FD331344AAF80A308FE7142303FB2B
:109A04000AB318895C6804EB8004062A68D8DFE886
:109A140002F0274D35431D59040041F61D54AA7D1B
:109A2400EB88022A06D9142101FB0AB1DA1C088941
:109A340002440A81142202FB0ABAC3F57F43BAF82E
:109A44000A20FD331344AAF80A3056E04B484C4927
:109A540000234360AB690360FFF796FE002871D0D2
:109A64000223AB75002300930423EA1821464148DE
:109A7400FFF768FB002830D00E24D0E72B69002BB9
:109A840014BF03230123AB750023009305F10C02DB
:109A9400042304F10801EAE70123AB750022EB88F3
:109AA40000929B002A6904F10C01E0E703290CBF32
:109AB40005230623AB7500230093042305F1080254
:109AC400E118D4E70623AB752D4B19882B4B586846
:109AD400FFF784FD04460028A1D109B0BDE8F08F4A
:109AE4000F249CE7002E7FF419AF2B79012B4BD068
:109AF400E3B1022B3FF440AF0F241422002103A84A
:109B040009F009FD41F61D539C4208BF0024D8F812
:109B1400003004941A78023A042A00F20581DFE83E
:109B240012F0E600F20015011D01240102232B713D
:109B34000DF10A01EB68039303A8CDE90466FFF76E
:109B440023FE08B90A24D8E70498BDF80A108388CC
:109B5400EB8003882B81FFF741FD044627E000BF1B
:109B6400BC3A0020902B00209C3A0020C03A0020F0
:109B7400783B00203C2A0020A43A0020803A0020B0
:109B8400803B0020B43A0020DFF8FCA103AA53462E
:109B94003146A81DFFF74CFE044658B9BAF8041024
:109BA4000498FFF71BFD04460A2C3FF4E5AE002C95
:109BB400A3D192E708223146504609F0ACFCF3E702
:109BC400002E7FF4ABAE6B4B1A7BAAB11E731A78CE
:109BD400013A062A90D801A151F822F0879C02008C
:109BE400AD9C0200CB9C0200D19C0200FD9A0200B5
:109BF400D79C0200E99C02001A78072AE7D801A141
:109C040051F822F0299C0200D39B0200D39B02004E
:109C14004F9C0200639C0200839C0200839C020010
:109C24004B9C02001A89544901321A8100225A803D
:109C34001A730A78B2FA82F252099A720A7DB2FA57
:109C440082F25209DA72012207E04C4958688A8884
:109C54004088033202448A8002221A70B7E7464CD5
:109C64005A884649142505FB024208685468506026
:109C74008888108102228A800C600622EDE7072280
:109C8400EBE79A7A32B9DA7A8AB900221A705A80E2
:109C94005A6071E6384900229A72CA68002AF2D1E1
:109CA400097C0029EFD05A80FFF704FE55E7002213
:109CB400DA72314A116A0029E7D192F82420002A85
:109CC400E3D00122EFE7FFF7A5FC46E7FFF742FCEC
:109CD40043E7294A5B88142101FB03235868FFF7F3
:109CE4006DFC3AE700225A60FFF754FC35E7012285
:109CF4008DF80C201A89ADF818209A88DB68ADF825
:109D04001A20059310E002228DF80C201A89ADF870
:109D140018209A88ADF81A20DA689B7D05929A1F5C
:109D2400534253418DF81C3003A8FFF7D5FB00269E
:109D340049461348C8F80060FEF7D8FA01211148D3
:109D4400FEF74CFB00287FF4CFADC6E603228DF866
:109D54000C20DA88ADF818201A89CFE70422DB88B2
:109D64008DF80C20ADF81830DEE705238DF80C30A3
:109D7400DAE700BFA43A0020C03A0020783B002074
:109D8400902B0020743B0020843B00204068FFF7A8
:109D9400A3BD000008B501210448FEF709FB18B96A
:109DA400BDE80840FFF798BD08BD00BF743B002024
:109DB4002DE9F3419846354B1B7806460D46002B9A
:109DC4005BD000295BD009884FF6FF73994258D0C5
:109DD4006B88002B55D06B689B0754D14AB92F89E7
:109DE4000DF102013846FFF787FB30B102B0BDE840
:109DF400F08113885788ADF8023001A8FFF726FCDC
:109E0400044658B9BDF80230214A142101FB03234A
:109E140058890338C01B58810820E7E7002383755D
:109E2400BDF8023083826B68036180F800800121F1
:109E34001848FEF7C8FA2B882381B8F1030F6B8802
:109E4400A38004BF0423A3754FF0000508BF336843
:109E5400E06008BFA361E780658101A90E48FEF7B1
:109E64000AFA36B1E36833600C4B75601B89B5722E
:109E74003381FFF78FFF0020B8E70220B6E7052003
:109E8400B4E70420B2E70320B0E700BF9C3A002007
:109E9400C03A0020B83A0020902B0020A43A0020B9
:109EA4002DE9F04F14228BB000210DEB020009F0D4
:109EB40032FB764A137803F0FF01CDE901123BB17E
:109EC40005A8FFF709FB002738460BB0BDE8F08F63
:109ED400029B181DFEF78DFA0028F4D140F6F873A2
:109EE4004FF080521B685C1C08BF694B694C08BF6B
:109EF4001B6811695269581C08BF02FB01F32361F6
:109F04000022A3F540536449E3602046FFF7DEF8DE
:109F1400039407460028D7D11C238C225F4960484C
:109F2400DFF88891DFF88881FEF746F93D46BA46A6
:109F34004FF0030B3C46039BDE68564430463146E3
:109F4400FFF792FB01284DD042B2002A36D00328F5
:109F540022D106F580520868013040F08A8004312D
:109F64008A42F8D1D9F800203AB902220123C9F86B
:109F74000060A9F8042001930CE01422624302203B
:109F840008EB020108F80200464A4E60548001348E
:109F94000881A4B245F001050AF5805ABAF5405F7C
:109FA400C9D1BBF1010F98BF0025EDB2022D03D03A
:109FB400062D35D0002D3CD10B2785E714216143B4
:109FC40008EB010008F8012001F110020831466095
:109FD400424441443046FFF773FB45F00205013427
:109FE400A4B2D9E7019B63B11422624308EB0201D6
:109FF400022008F802000134D9F800204A600881E0
:10A00400A4B200222849C9F800603046FFF758FB83
:10A01400B9F80420022A0CBF042208221543BBE726
:10A02400029A0123137005A800235360FFF754FA22
:10A034004AE704A8FFF70AFBC8B10123013D0370F6
:10A044000A2D09D8DFE805F00608060807080708FE
:10A054000F110F000023037104A91148FEF70BF937
:10A06400FFF798FE30E70323F5E70223F3E7082719
:10A074002AE70BF1FF321FFA82FB1422624308EB3A
:10A0840002014E60032108F80210A8E79C3A002060
:10A09400141000103C2A0020A4560300E83A0020C3
:10A0A400902B0020A43A00207C3B0020783B002029
:10A0B400C03A002073B50D460446C8B1C1B10DF1D4
:10A0C4000601FFF761FBA8B10B4BBDF806006668FB
:10A0D400142202FB003001210C30FEF774F963688E
:10A0E4002E600C336B600123A372002002B070BD9C
:10A0F4000520FBE70A20F9E7C03A002013B504461F
:10A10400A8B10DF10601FFF73FFB90B10B4ABDF872
:10A114000630142101FB0323DA6862B1A27A52B13A
:10A12400DA680020013ADA60A07202B010BD05209E
:10A13400FBE70A20F9E70620F7E700BFC03A002052
:10A1440002230022FFF734BE18B103230022FFF7D5
:10A154002FBE0520704707B5ADF80600ADF8041012
:10A164000DF1060001A9FFF763FB03B05DF804FBE2
:10A17400054B1B68082B01BF044B1868B0FA80F02C
:10A18400400918BF0020704730010010340100104E
:10A1940008B54FF080430022C3F80C21C3F8102106
:10A1A400C3F838254FF0805203F54043D2F8041425
:10A1B400C3F82015D2F80814C3F82415D2F80C14E7
:10A1C400C3F82815D2F81014C3F82C15D2F81414B7
:10A1D400C3F83015D2F81814C3F83415D2F81C1487
:10A1E400C3F84015D2F82014C3F84415D2F8241447
:10A1F400C3F84815D2F82814C3F84C15D2F82C1417
:10A20400C3F85015D2F83014C3F85415D2F83414E6
:10A21400C3F86015D2F83814C3F86415D2F83C14A6
:10A22400C3F86815D2F84014C3F86C15D2F8442466
:10A23400C3F87025FFF79CFF10B1384B384A1A60F9
:10A24400FFF796FF18B1374BFB22C3F81825FFF729
:10A254008FFF48B13449354B0A681B6822F00F025E
:10A2640003F00F0313430B60FFF782FF18B1304B69
:10A274004FF400721A604FF08043D3F80024D207E1
:10A2840044BF6FF00102C3F800242A4AD2F8883090
:10A2940043F47003C2F88830BFF34F8FBFF36F8F5E
:10A2A4004FF01023D3F80022002A03DBD3F8043242
:10A2B400002B2FDA204B0122C3F80425D3F8002405
:10A2C400002AFBD04FF010221221C2F80012D3F85A
:10A2D4000024002AFBD04FF010231222C3F80422DA
:10A2E400154B1A46D3F800140029FBD00021C3F8FB
:10A2F4000415D2F80034002BFBD0BFF34F8F0D4967
:10A304000E4BCA6802F4E0621343CB60BFF34F8F75
:10A3140000BFFDE70A4B0B4A1A6008BD8C5600408B
:10A324004881030000F00040E40E00405802001091
:10A334004096024000ED00E000E001400400FA0510
:10A34400A42B00200090D003074B1B5C1F2B86BF5F
:10A3540003F01F0305494FF0A041012202FA03F361
:10A36400C1F80C35704700BFEF58030000030050DC
:10A37400074B1B5C1F2B86BF03F01F0305494FF0DF
:10A38400A041012202FA03F3C1F80835704700BF67
:10A39400EF5803000003005008B50020FFF7E8FF62
:10A3A4000120FFF7E5FF0220FFF7E2FF0320BDE8ED
:10A3B4000840FFF7DDBF0000C10710B5044642D5D1
:10A3C4004FF08043D3F84036DA072ED54FF01023F0
:10A3D400D3F8043303F00703072B26D11D4B0122C6
:10A3E400C3F80425D3F80024002AFBD04FF0102131
:10A3F400D1F8042322F0070242F00402C1F8042336
:10A404000022C3F80425134AD2F80034002BFBD0F1
:10A41400BFF34F8F1049114BCA6802F4E062134333
:10A42400CB60BFF34F8F00BFFDE74FF0A0420C4954
:10A434000323C2F81837C2F82037C1F82437C2F80A
:10A444003037FFF7A9FFA30742BF054B0C22C3F81F
:10A45400182710BD00E0014000ED00E00400FA05FB
:10A464000003005042DF704743DF704738B5074CA4
:10A47400051E04F1080318BF1C4623682BB11A6893
:10A4840022605B6828469847F7E738BD943B002074
:10A4940020B9054B01225A70FFF7E8BF012802D109
:10A4A400014A9070F8E770478C3B002020B9034BB9
:10A4B40001225A70FFF7DABF704700BF8C3B0020BF
:10A4C40038B50B4C237883B90A486360A3602361D1
:10A4D400E36000F0B9F9054608F0AEFA08B900F0F7
:10A4E400BFF901232370284638BD8525FBE700BF4B
:10A4F4008C3B002095A4020037B5184CA378054680
:10A5040003F0FF029BB110B1436801209847002378
:10A514000DF107008DF80730FDF714FEE3689DF890
:10A5240007000133E360FDF731FE03B030BD0DF1E8
:10A5340007008DF80720FDF705FE25B122691346B3
:10A544003BB92A602561E368002BE7D100F09EF94E
:10A55400E4E79D42F7D01B68F2E700BF8C3B002084
:10A5640037B50B4C00230DF107008DF80730FDF7CC
:10A57400E9FDE368013BE360E56815B900F098F98B
:10A58400A5709DF80700FDF701FE03B030BD00BFC4
:10A594008C3B0020012813B509D018B103281CD026
:10A5A40002B010BD0F4B0122C3F88020F8E70E4C17
:10A5B40000230DF107008DF80730FDF7C3FD237864
:10A5C4000BB9FFF77DFFE3689DF807000133E360F3
:10A5D4000123A370FDF7DAFDE2E700F041F9FFF78C
:10A5E400BFFFDDE700E100E08C3B002037B51B4CEA
:10A5F4006378054603F0FF029BB110B14368002065
:10A60400984700230DF107008DF80730FDF79AFDF8
:10A6140063689DF8070001336360FDF7B7FD03B07D
:10A6240030BD0DF107008DF80720FDF78BFD25B136
:10A63400A268134653B92A60A5606368002BE7D16A
:10A6440008F0FAF930B1FFF70DFFE1E79D42F4D0CD
:10A654001B68EFE700F038F9DAE700BF8C3B002015
:10A6640073B50F4C00230DF107008DF80730FDF78B
:10A6740069FD6368013B6360666836B908F0DCF91C
:10A68400054640B1FFF7F0FE66709DF80700FDF740
:10A694007DFD02B070BD00F029F96570F5E700BFDB
:10A6A4008C3B002036DF70474DDF70474EDF70472C
:10A6B4004FDF704750DF704708B50346FFF7F6FFDA
:10A6C40040B91846FFF7F0FF20B91846BDE8084026
:10A6D400FFF7EEBF08BD012810B5044602D100F013
:10A6E400D3FA804700F0D6FA034668B10A2C07D0A3
:10A6F4000B2C07D0092C07D10220BDE810401847C5
:10A704000020FAE70120F8E710BD0000012813B586
:10A71400044603D003281AD002B010BD00230DF163
:10A7240007008DF80730FDF70DFD00F0ADFA10B10C
:10A734002046FFF7B7FF9DF80700FDF727FD00F05F
:10A74400A9FA0028E8D00120FFF7B6FFE4E70C4B94
:10A75400C02283F8002301221A6000F095FA20B188
:10A764004FF080430422C3F8042300F093FA002836
:10A77400D2D04FF080434FF46072C3F80423CBE788
:10A7840000E100E038B50A4C2378054663B908F0C7
:10A7940053F958B90748002D18BF284600F080FA2D
:10A7A40008B90123237038BD8520FCE70820FAE7A7
:10A7B400A03B0020F958030013B500240DF1070055
:10A7C4008DF80740FDF7BEFC08F036F950B120467D
:10A7D400FFF772FF9DF80700FDF7D8FC00F096FA2A
:10A7E40002B010BD00F08BFAF4E713B50446FFF78E
:10A7F400E3FF204600F076FA08F01EF90446A0B103
:10A804000120FFF759FF044660B901A8FFF752FF82
:10A81400044638B9019BDB0704D500F03BFA034634
:10A8240020469847204602B010BD00F061FAF9E7CF
:10A8340050E8002F02EA010340E8003C9CF0000FBE
:10A84400F6D1104670470000044A137923B9012158
:10A85400106091801846704785207047A43B002003
:10A86400084B1A68D2075FBFC02283F80023012275
:10A874001A604FF080420123C2F81835024A13705F
:10A88400704700BF00E100E0AC3B0020074B002212
:10A894001A6082B01B680193019B4FF0804302222F
:10A8A400C3F8042301229A6002B0704704010040F7
:10A8B400044B01221A604FF08042D2F81834DB03B3
:10A8C400FBD470470C000040074B00221A6082B092
:10A8D4001B680193019B4FF080430122C3F80423BA
:10A8E4001A6002B0704700BF00010040074B01220C
:10A8F4001A604FF08042D2F80C3403F00113B3F124
:10A90400011FF8D0024B00225A7170470400004026
:10A91400A43B0020154B07B51A687AB100221A60CF
:10A924001B680093009B4FF080430122C3F8082367
:10A934000F4B587910B95A711B6898470D4B1A6818
:10A9440082B100221A601B680193019B4FF080437F
:10A954000222C3F80823064B1B68012003B05DF8EC
:10A9640004EB184703B05DF804FB00BF000100408E
:10A97400A43B00200401004000F1804000F5C040E9
:10A98400002382B0036003680193019B02B0704707
:10A9940003681F2B83BF03F01F03036001484FF0BC
:10A9A400A04070470003005007B5019001A8FFF7CD
:10A9B400EFFF019B00EB8300D0F8002722F4403224
:10A9C400C0F80027D0F8003743EA0143C0F8003745
:10A9D40003B05DF804FB000073B5224C251806464D
:10A9E40095F93020072A19DD224492F858309B0942
:10A9F400032B0FD1019001A8FFF7CAFF019AD0F8E9
:10AA04001035D340DB0707D402213046FFF7CCFFD3
:10AA140002B070BD012BF7D00321F6E7D3B2072BA8
:10AA2400F6D8930003F1804303F5C043D3F810052F
:10AA340040F00100C3F8100502F14000800080B22C
:10AA4400FFF79AFF0029E3D095F9303054F823300A
:10AA5400002BDDD0012303FA02F2034BC3F80423D5
:10AA6400D6E700BFB03B0020006000400E4B03441B
:10AA740093F93020072A02DD0021FFF795BFD3B2F6
:10AA8400072B10D8930003F1804303F5C043D3F898
:10AA9400101521F00101C3F81015012303FA02F285
:10AAA400024BC3F808237047B03B0020006000400D
:10AAB4002DE9F04F002489B0CDE90244624D4FF4F2
:10AAC4008072012102F1804303F5C04390B21B68F8
:10AAD400012B06D1D5F804330B4202D0FFF74CFF0B
:10AAE4000C430432B2F5907F4FEA4101EAD1574B4F
:10AAF4001B68012B0ED14FF4BE70FFF73DFF4FF0E2
:10AB0400A04344F00044D3F810350293504BD3F8DB
:10AB14001035039314F0FF0F1AD04E4F0025012671
:10AB2400344210D0AB0003F1804303F5C043D3F8A3
:10AB34001005D3F8101557F8253023B1C1F301419E
:10AB4400C0F3052098470135082D4FEA4606E7D1A2
:10AB5400002C75DA0DF1100800230493C8F80430B2
:10AB64004FF0FF33CDE90633DFF8E8A0DFF8E890D3
:10AB740000273D4619F9014B631C48D0E4B2012378
:10AB840024F0C00604F0070203FA02F2F00808AB4E
:10AB9400191811F8083C134239D00AEB0603A4092A
:10ABA40093F930305AF823B0BBF1000F08D1032CCD
:10ABB4002DD118F800C04CEA020C08F800C001E0DE
:10ABC400032CF6D001A80196FFF7E2FE019B11F8D1
:10ABD400181C03F5E07C114250F82C00C0F301402E
:10ABE40005D0022813D1032C0BD1214604E00328FD
:10ABF4000DD1032C05D102213046FFF7D5FE0135D6
:10AC0400EDB2BBF1000F02D021463046D8470137E0
:10AC1400042FAFD1A5B14FF0A0430299D3F810256A
:10AC240003F540739142D3F8103502D10399994248
:10AC340006D002920393049A059B0692079395E724
:10AC440009B0BDE8F08F00BF006000407C610040A7
:10AC540000030050B03B0020103C0020014B1B6857
:10AC6400184700BF1C3C002000F1804382B01A68E2
:10AC7400002A14BF0120002004D000221A601B689F
:10AC84000193019B02B07047014B1868704700BFE5
:10AC9400243C0020014B1868704700BF2C3C002066
:10ACA4000E4B1A78C2B902784FF08041C2F34002C9
:10ACB400C1F88025027802F00102C1F87825084A1B
:10ACC4001168C9075FBFC02182F800130121116018
:10ACD40001221A700020704785207047303C002004
:10ACE40000E100E0014B02681A6070472C3C002030
:10ACF4004FF080434FF46072C3F8042370474FF061
:10AD040080434FF46072C3F808237047014B00225C
:10AD14001A6070472C3C00204FF0804310B5D3F8E4
:10AD24000443620707D54FF48470FFF79DFF10B109
:10AD34001E4B1B689847A30608D54FF48A70FFF78B
:10AD440093FF18B11A4B00201B689847600608D57A
:10AD54004FF48C70FFF788FF18B1154B01201B6866
:10AD64009847210608D54FF48E70FFF77DFF18B180
:10AD7400104B00201B689847E20508D54FF49070EB
:10AD8400FFF772FF18B10B4B01201B689847A3050E
:10AD94000AD54FF49270FFF767FF28B1054B0220E4
:10ADA4001B68BDE81040184710BD00BF243C0020BC
:10ADB400283C00202C3C002008B5FFF7ADFFBDE87F
:10ADC4000840FFF7A7BD0000044A91689368CB1AB6
:10ADD40023F07F438342F9D3704700BF10E000E0C3
:10ADE400034B044A1B68B3FBF2F35843FFF7ECBF71
:10ADF400A42B002040420F0000F1804000F51C30DD
:10AE040001230360BFF36F8FBFF34F8F70470000C0
:10AE1400064A10F0800F00F00F0314BFD2F810059B
:10AE2400D2F81405D84000F00100704700700240C9
:10AE3400054B1B68082B05D1044B1868003018BF5C
:10AE440001207047002070473001001034010010C9
:10AE540030B54C680D68A34297BFC0E90053002188
:10AE6400E41AED188EBFC0E900514C600D609342A6
:10AE740003D1201C18BF012030BD0020FCE74B6823
:10AE840010B59A420C6828BF1A46C0E90042981AC5
:10AE94000B684860134400300B6018BF012010BDDC
:10AEA40030B54C680B68A24228BF2246002A14BF62
:10AEB4001D460025A4EB02041344C0E900524C6073
:10AEC4000B6014BF0120002030BD0000054B10F0C2
:10AED400800FA3F1900208BF134600F00F0003EBAC
:10AEE40000107047A43D002010F0800F14BF002311
:10AEF400102300F00F00184470470000024A00239A
:10AF04001360024A137070471C7C0240323C0020DC
:10AF140007B5084A00231370074A019313700123ED
:10AF24008DF80430054B01A81B68984703B05DF801
:10AF340004FB00BF313C0020383E0020343E00209A
:10AF440070470000F8B54D680B4F954228BF154671
:10AF54000C4606462A460968384608F0B3FA606883
:10AF64002368401BC6E9007560601D4400302560FD
:10AF740018BF0120F8BD00BF403E0020F8B54C6862
:10AF8400944228BF144606460D468CB1094F096801
:10AF94002246384608F096FA37606B6874601B1BCB
:10AFA4006B602B68201C23442B6018BF0120F8BD64
:10AFB4000460F2E7403E002008B5FFF79FFF084B0E
:10AFC40093F89E20032A06D16FF001010548BDE8DD
:10AFD4000840FFF72DBCD3F89030002BF4D008BD07
:10AFE400143D0020A03C002007B500238DF8043058
:10AFF4000B4BD3F82025ADF80620D3F8C034094A0A
:10B00400002B13680CBF4FF480714FF001210B43E8
:10B014001360054B01A81B68984703B05DF804FB57
:10B0240000700240103D0020343E002013B5124C45
:10B034000122236802FA01F10B4323600F4B1B68C2
:10B04400194003060DD551B906238DF804308DF847
:10B0540006008DF807100A4B01A81B68984702B038
:10B0640010BD0029FBD106238DF804308DF80600AD
:10B074008DF80720EFE700BF103D0020A03C002022
:10B08400343E002008B5054B1A781046FFF72CFF14
:10B09400BDE8084001461046FFF7C8BF383E00200F
:10B0A40008B50146FFF72AFFFFF710FF837B032B48
:10B0B4000AD10846FFF718FF01218140C94304481B
:10B0C400BDE80840FFF7B4BB0368002BF1D008BD0E
:10B0D400A03C00208720FFF7E3BF8620FFF7E0BFF6
:10B0E4008520FFF7DDBF8420FFF7DABF8320FFF759
:10B0F400D7BF8220FFF7D4BF8120FFF7D1BF000064
:10B1040007B5FFF7FBFE104B93F81E21032A07D166
:10B114006FF480710D48FFF78BFB03B05DF804FBFF
:10B12400D3F81031002BF8D16FF480710748FFF782
:10B134007FFB06238DF804308823ADF80630044BDA
:10B1440001A81B689847E8E7143D0020A03C0020B4
:10B15400343E002007B5FFF7D1FE0D4B93F88E2047
:10B16400032A11D0D3F8803073B96FF08071094885
:10B17400FFF75EFB06238DF804300823ADF8063094
:10B18400054B01A81B68984703B05DF804FB00BF9A
:10B19400143D0020A03C0020343E0020204B13B579
:10B1A400D3F80044C3F80044BFF36F8FBFF34F8F4D
:10B1B400BFF36F8FBFF34F8FE1050BD5194B0122FE
:10B1C4001A700023019302238DF80430164B01A852
:10B1D4001B689847A2050AD5124A002301931370ED
:10B1E40003238DF80430104B01A81B6898476305AE
:10B1F40013D50C4B1A7882B100221A70084B012126
:10B20400C3F808155820FFF7F7FD042301928DF8C1
:10B214000430054B01A81B68984702B010BD00BF5D
:10B2240000700240313C0020343E00202DE9F04FF4
:10B23400764B87B01A780193002A7ED1DFF8F0A10B
:10B24400DFF8CCB1724BDAF800101D68294074D0D5
:10B2540011F0012574D095FAA5F5B5FA85F50F2DF1
:10B2640086BFA5F11004E4B245F080042046FFF740
:10B274002DFE4FFA84F904F00803B9F1000F0646D5
:10B284000093828961DAD0E9003104A8984700B9B3
:10B294003060604B82221A60019B059A0498012158
:10B2A4001970A940B368DBF80050134425EA010182
:10B2B400B9F1000FCBF80010B36004F00F0400994B
:10B2C400554B7CDA002972D0C3F8A006C3F8A42633
:10B2D400FFF7AEFDA30024B26500504A5049002890
:10B2E4007DD1B9F1000FB2BF042428240A464D4E83
:10B2F4004D4F02EB05091C4405463560BFF36F8FC3
:10B30400BFF34F8F2046FFF777FD0220FFF768FD5C
:10B314003368002BF1D01E20FFF762FD3B689B06CB
:10B324005BD50120FFF75CFDB9F8003003F18043E1
:10B3340003F51C331B68002BDFD007B0BDE8F08F8A
:10B3440091FAA1F1B1FA81F589E7009B32493BB347
:10B35400D1F8C08418F4803F18BF4FF0000843466A
:10B364007168376804A8B847049B002B8FD0059BED
:10B3740043458CD201214FF00208A94086F80E8083
:10B38400C9435046FFF754FA06238DF80C30274B77
:10B394008DF80E408DF80F801B6803A8984751E77D
:10B3A40004F00F0303F5947351F82380D7E71421B5
:10B3B40001FB0433C3F80006C3F8042688E721B16F
:10B3C400C3F8A007C3F8A42782E7142101FB0433C0
:10B3D400C3F80007C3F804277AE702209CE7B9F111
:10B3E400000FB4BF042028201844FFF705FD12EA1B
:10B3F400290938BF894639F8143003F1804303F52D
:10B404001C331A68002AFCD097E700BF323C0020A6
:10B41400103D00201C7C02400070024020590300B3
:10B424003C5903000471024074740240343E00200D
:10B43400A03C002038B5174BD3F86C44C3F86C44D7
:10B44400BFF36F8FBFF34F8FFFF7F2FC38B9124A87
:10B45400136823F0011103F001130C431360012559
:10B464001CB9BDE83840FFF7E1BE94FAA4F3B3FA7F
:10B4740083F30F2BD9B2C8BFA1F1100005FA03F36F
:10B48400CCBFC0B241F0800024EA0304FFF7CEFD34
:10B49400E6E700BF007002403C3E002037B504469A
:10B4A400FFF72CFDFFF712FD837B032B0CD1204605
:10B4B400FFF71AFD01218140C9430F48FFF7B8F98E
:10B4C400FFF7B4FE03B030BD0568002DF8D1204667
:10B4D400FFF70AFD01218140C9430748FFF7A8F996
:10B4E40006238DF80430054B8DF806408DF807507F
:10B4F4001B6801A89847E3E7A03C0020343E0020E5
:10B504000720FFF7CBBF0620FFF7C8BF0520FFF7D2
:10B51400C5BF0420FFF7C2BF0320FFF7BFBF02204F
:10B52400FFF7BCBF0120FFF7B9BF0000024A0023A8
:10B534001360024A13707047343E0020333C0020ED
:10B544004E4B4FF4006273B5C3F80024BFF36F8F02
:10B55400BFF34F8FFFF76CFC494CA0B100230DF1F2
:10B5640007008DF80730FCF7EDFD2168454B0322F9
:10B5740000297BD149F2753121601A6021609DF860
:10B584000700FCF703FE00230DF107008DF80730D8
:10B59400FCF7D8FD22683C4DC023002A68D149F24B
:10B5A400753222602B6022609DF80700FCF7EEFDE7
:10B5B400324B0122C3F80025BFF36F8FBFF34F8FC7
:10B5C400D3F800241205FBD54FF40062C3F800241D
:10B5D400BFF36F8FBFF34F8F00260DF107008DF877
:10B5E4000760FCF7AFFD2268002A43D149F27533A6
:10B5F40023602A6023609DF80700FCF7C7FD234BF6
:10B6040040F2E3721A60043340221A60BFF36F8F72
:10B61400BFF34F8FA3F6040300258022C3F81C2533
:10B62400C3F830551A4B40F2FF121A60194B1D60D3
:10B63400FFF764FC184B1D70184B02221A70FFF7B9
:10B64400F7FB88B10DF107008DF80750FCF77AFD80
:10B6540021680C4B81B949F275322260196022606D
:10B664009DF80700FCF792FD02B070BD1A6086E7F2
:10B674002B6099E72E60BEE71D60F1E70070024081
:10B6840000EC064014ED064014EC0640007802403D
:10B69400103D0020A03C0020383E0020333C002018
:10B6A40008B50F4B00221A70C0B9FFF7C1FB0D4B50
:10B6B4000D4A00280CBF184610460C4B0C4AC3F820
:10B6C4000403C02182F82713802151600122C3F8AA
:10B6D4000425BFF36F8FBFF34F8F08BD0148ECE71C
:10B6E400313C00200714E0010714C001007002403F
:10B6F40000E100E0024B1878003018BF01207047C9
:10B70400333C0020034B1878012894BF002001200B
:10B71400704700BF333C002037B500250DF107000A
:10B724008DF80750FCF70EFD114B1B7803F0FF0456
:10B7340093B1104AD2F82C35BBB10F4BC2F82C553B
:10B74400186802F58F2202F21442C02158B949F256
:10B7540075301860116018609DF80700FCF716FD3D
:10B76400204603B030BD1160F6E71C46F4E700BF85
:10B77400313C00200070024000EC0640024B034ABA
:10B78400C3F80823704700BF00700240041480010E
:10B79400024B034AC3F80423704700BF0070024001
:10B7A40004148001014B00221A707047313C0020C0
:10B7B40008B5FFF78BFB818108BD00001C4B70B5F9
:10B7C4001C7894BB1B4A106001221A702546E3B210
:10B7D40013F0080F43F080060CBF40214FF40071B2
:10B7E4003046FFF7E5FF3046FFF770FB0134092CC4
:10B7F400857305608560EAD10024402125462046F2
:10B80400FFF7D6FF2046FFF761FB0134E4B2092CB1
:10B8140085730560856001D1002070BD14F0080FA8
:10B8240014BF4FF400714021E9E70820F5E700BF99
:10B83400333C0020343E002008B5FFF747FB8089E5
:10B8440008BDFFF7E5BA00002DE9F34100230446E3
:10B854000DF107000E468DF80730FCF773FC14F069
:10B864000F0103D12A4B1B78A3424DD1294B2A4FF8
:10B874001A683D68D24392B220462A43FFF734FB4C
:10B884004FF0010808FA00F812EA080F3ED12046EA
:10B89400FFF71CFB0C232206844603FB01F32FD580
:10B8A4001E4A3168134401F06041B268B1F1005F8F
:10B8B40002F001021FD1E2B9194ACCF8002096E83F
:10B8C400070083E80700CCF80430164B002445EA4F
:10B8D40008058022CCF808408CF80E403D60C3F87F
:10B8E40004219DF80700FCF751FC204602B0BDE896
:10B8F400F0810D4AE1E70AB90C4ADEE70C4ADCE7BD
:10B904000C4A13440C4AD8E71024EAE71124E8E768
:10B91400383E0020103D0020A03C0020A43C002024
:10B9240083AE020000E100E0A5AE020049AF0200D0
:10B9340081AF0200343C002055AE02002DE9F341F2
:10B94400002380460DF107000E468DF80730FCF702
:10B95400F9FB18F00F0F03D1164B1B78434525D183
:10B96400154B164F19683D68C94389B240462943AF
:10B97400FFF7BAFA01248440214019D14046FFF769
:10B98400A5FA33680360736843600D4B81602C43F0
:10B9940080223C6081730C46C3F804219DF80700A3
:10B9A400FCF7F4FB204602B0BDE8F0811024F5E773
:10B9B4001124F3E7383E0020103D0020A03C002075
:10B9C40000E100E000487047403E0020044B40F492
:10B9D4008070C3F81805BFF36F8FBFF34F8F7047A4
:10B9E40000700240020713D400F00F0310F0800F20
:10B9F400084A0BBF03F5887303F5847302EB8303D2
:10BA040052F8230008BF5868431E584258417047F3
:10BA14000020704700700240064BC3F80C05BFF3CA
:10BA24004F8F40F48070C3F80C05BFF36F8FBFF3E2
:10BA34004F8F70470070024010B508220021044661
:10BA440007F069FD0E4BD3F880242270D3F88424C8
:10BA54006270D3F88824D3F88C1442EA01226280FD
:10BA6400D3F89024D3F8941442EA0122A280D3F8A4
:10BA74009824D3F89C3442EA0323E38010BD00BF2A
:10BA84000070024008B5FFF7D3F958B9EFF31082FC
:10BA940072B64C20FFF7B0F94C20FFF7ADF982F3F2
:10BAA400108808BD4C20BDE80840FFF7A5B9000088
:10BAB40013B5FFF723FA0F4B9A7B032A06D16FF4D1
:10BAC40080310D48FEF7B4FE02B010BD1C6874B995
