:1000000000000120750300005D0300005F03000095
:1000100061030000630300006503000000000000AE
:100020000000000000000000000000006703000066
:1000300069030000000000006B0300006D03000076
:100040006F0300006F0300006F0300006F030000E8
:100050006F0300006F030000090400006F0300003D
:100060006F0300006F0300006F0300006F030000C8
:100070006F0300006F0300006F0300006F030000B8
:100080006F0300006F0300006F0300006F030000A8
:100090006F0300006F0300006F0300006F03000098
:1000A0006F0300006F0300006F0300006F03000088
:1000B0006F0300006F03000000000000000000005C
:1000C0006F0300006F0300006F0300006F03000068
:1000D0006F0300006F0300006F03000000000000CA
:1000E0000000000000000000000000000000000010
:1000F0000000000000000000000000000000000000
:1001000000000000000000000000000000000000EF
:1001100000000000000000000000000000000000DF
:1001200000000000000000000000000000000000CF
:1001300000000000000000000000000000000000BF
:1001400000000000000000000000000000000000AF
:10015000000000000000000000000000000000009F
:10016000000000000000000000000000000000008F
:10017000000000000000000000000000000000007F
:10018000000000000000000000000000000000006F
:10019000000000000000000000000000000000005F
:1001A000000000000000000000000000000000004F
:1001B000000000000000000000000000000000003F
:1001C000000000000000000000000000000000002F
:1001D000000000000000000000000000000000001F
:1001E000000000000000000000000000000000000F
:1001F00000000000000000000000000000000000FF
:10020000354936480A1A02D0072291438D463449AF
:1002100034480A1A06D00722914381F30988022242
:1002200082F3148830483149314A00F044F83148AB
:100230003149324A00F03FF831483249324A00F041
:100240003AF832483249334A00F035F832483349F7
:10025000334A00F030F833483349344A00F02BF881
:1002600033483449344A00F026F8344834490022EF
:1002700000F02CF833483449002200F027F83348C6
:100280003349091A082902DB002202604160314A21
:1002900090471F481F49884205D00268043003B4C4
:1002A000904703BCF7E700208646EC46002000217B
:1002B000294A9047FEE7884207D0521A05D00378B2
:1002C00001300B700131013AF9D17047884202D0F8
:1002D00002700130FAE770470000012000E00020C2
:1002E0000000012000000120340700000000002071
:1002F00004000020D4030000D403000034070000F1
:100300003407000000000020000000203407000037
:1003100034070000340700003407000034070000F1
:1003200034070000340700003407000034070000E1
:100330003807000004000020040000200400002012
:10034000040000200400002004000020040000201D
:10035000042000209D03000055040000FEE7FEE796
:10036000FEE7FEE7FEE7FEE7FEE7FEE7FEE7FEE765
:10037000704700BF1048804710484FF0070188437E
:1003800085460F4880470F48016841F470010160BD
:10039000BFF34F8FBFF36F8FFFF732BF0A480B4990
:1003A0000B4A884207D0521A05D0037801300B70EF
:1003B0000131013AF9D170477103000000000120BA
:1003C000D904000088ED00E03407000000000020A0
:0403D0000000002009
:1003D4004FF0A0430C22C3F83427074B074AC3F855
:1003E40010250122C3F80423054BE02283F80623D9
:1003F40040221A60704700BF00600040010D0200F7
:1004040000E100E00C4BD3F80021012A13D1D3F80A
:100414000423D2070FD50022C3F800214FF0A042D5
:10042400D2F80435D94301F4802103F48023C2F8BF
:100434000815C2F80C357047006000404FF0A04327
:100444000322C3F848274FF48022C3F80C257047D1
:1004540008B5FFF7F3FFFFF7BBFFFFF7D3FFFEE796
:100464000C4B1B78062B10D10B4B1B681A070CD1B5
:100474000A4B186800F0F003302B08D000F0E000BD
:10048400A0F14003584258417047002070470120B2
:10049400704700BFE00F00F0E40F00F0E80F00F039
:1004A400094B1B78062B0CD1084B1B681A0708D183
:1004B400074B186800F0F000A0F13003584258418F
:1004C40070470020704700BFE00F00F0E40F00F019
:1004D400E80F00F008B5FFF7C3FF28B17D4B7E4A53
:1004E4001B68C3F304231360FFF7DAFF10B17B4BDF
:1004F4007B4A1A60FFF7B4FF28B17A4B7A4A1B682B
:10050400C3F342331360FFF7CBFF20B1774AD368BC
:1005140023F08073D360FFF7A3FF40B14FF0804313
:100524000022C3F80C21C3F81021C3F83825FFF7C3
:10053400B7FF10B16E4B03221A60FFF7B1FF40B151
:100544006C4B05221A6001229A6700229A603F22AE
:100554005A60694B1B78062B50D1684B1B681907EE
:100564004CD1674B1B6803F0F003502B46D14FF07E
:100574008052644BD2F80414C3F82015D2F808143E
:10058400C3F82415D2F80C14C3F82815D2F81014A3
:10059400C3F82C15D2F81414C3F83015D2F8181473
:1005A400C3F83415D2F81C14C3F84015D2F820143B
:1005B400C3F84415D2F82414C3F84815D2F8281403
:1005C400C3F84C15D2F82C14C3F85015D2F83014D3
:1005D400C3F85415D2F83414C3F86015D2F838149B
:1005E400C3F86415D2F83C14C3F86815D2F8401463
:1005F400C3F86C15D2F84424C3F87025FFF730FF14
:1006040028B1414B414A1B6803F04F031360FFF7C5
:1006140027FF48B14FF08043D3F80024D20744BFEA
:100624006FF00102C3F80024394B1B68062B08D174
:10063400384B1B68062B01BF374A136843F48063A9
:100644001360364AD2F8883043F47003C2F8883015
:10065400BFF34F8FBFF36F8F4FF01023D3F80022F7
:10066400002A03DBD3F80432002B2FDA2C4B0122AF
:10067400C3F80425D3F80024002AFBD04FF010223D
:100684001521C2F80012D3F80024002AFBD04FF041
:1006940010231522C3F80422214B1A46D3F8001460
:1006A4000029FBD00021C3F80415D2F80034002B34
:1006B400FBD0BFF34F8F19491A4BCA6802F4E062AA
:1006C4001343CB60BFF34F8F00BFFDE7164B174AB0
:1006D4001A6008BD240300104035014074C007406F
:1006E4000DF0ADBA440200103C050040F0ED00E00E
:1006F400A005004010560040E00F00F0E40F00F0A9
:10070400E80F00F000C0004058020010E40E004062
:1007140030010010340100103C17004000ED00E0EF
:1007240000E001400400FA05000000200090D0031E
:040734000090D0035E
:040000030000037581
:00000001FF
