:020000022000DC
:1060000000000420756302005D6302005F6302000C
:106010006163020063630200656302000000000028
:1060200000000000000000000000000067630200A4
:1060300069630200000000006B6302006D630200F0
:10604000E99F02006F630200059F02006F63020078
:106050006F6302006F630200599D02006F630200CC
:106060006F6302006F6302006F6302006F630200E0
:106070006F6302006F6302006F6302006F630200D0
:106080006F630200C57A02006F6302006F63020053
:10609000617B02006F630200D9E502006F630200BA
:1060A0006F6302006F6302006F6302006F630200A0
:1060B0006F6302006F630200000000000000000038
:1060C0006F6302006F6302006F6302006F63020080
:1060D0006F6302006F6302006F63020059AB02003E
:1060E0006F6302006F6302006F6302000000000034
:1060F000000000006F630200000000006F630200F8
:10610000000000000000000000000000000000008F
:10611000000000000000000000000000000000007F
:10612000000000000000000000000000000000006F
:10613000000000000000000000000000000000005F
:10614000000000000000000000000000000000004F
:10615000000000000000000000000000000000003F
:10616000000000000000000000000000000000002F
:10617000000000000000000000000000000000001F
:10618000000000000000000000000000000000000F
:1061900000000000000000000000000000000000FF
:1061A00000000000000000000000000000000000EF
:1061B00000000000000000000000000000000000DF
:1061C00000000000000000000000000000000000CF
:1061D00000000000000000000000000000000000BF
:1061E00000000000000000000000000000000000AF
:1061F000000000000000000000000000000000009F
:10620000354936480A1A02D0072291438D4634494F
:1062100034480A1A06D00722914381F309880222E2
:1062200082F3148830483149314A00F044F831484B
:106230003149324A00F03FF831483249324A00F0E1
:106240003AF832483249334A00F035F83248334997
:10625000334A00F030F833483349344A00F02BF821
:1062600033483449344A00F026F83448344900228F
:1062700000F02CF833483449002200F027F8334866
:106280003349091A082902DB002202604160314AC1
:1062900090471F481F49884205D00268043003B464
:1062A000904703BCF7E700208646EC46002000211B
:1062B000294A9047FEE7884207D0521A05D0037852
:1062C00001300B700131013AF9D17047884202D098
:1062D00002700130FAE770470000042000E003205C
:1062E00000000420000004204C310300582B002043
:1062F000982E0020D4630200D463020070F80200DC
:106300004C310300582B0020582B0020C4FC020005
:10631000C4FC0200C4FC0200C4FC0200C4FC020075
:10632000C4FC0200C4FC0200C4FC02004C310300A7
:106330008C340300982E0020982E0020982E0020E8
:106340009C6B00209C6B0020A06B0020A06B0020A9
:10635000A08B00209D630200FDCD0200FEE7FEE75A
:10636000FEE7FEE7FEE7FEE7FEE7FEE7FEE7FEE705
:10637000704700BF1048804710484FF0070188431E
:1063800085460F4880470F48016841F4700101605D
:10639000BFF34F8FBFF36F8FFFF732BF0A480B4930
:1063A0000B4A884207D0521A05D0037801300B708F
:1063B0000131013AF9D170477163020000000420F5
:1063C0004D97020088ED00E04CFB0200E029002020
:0463D000582B002026
:1063D40000487047946B00207047000007B5002206
:1063E40001A905F04EFB30B9044A01981368013342
:1063F400136002F03BF903B05DF804FB142F002096
:106404000148FFF7EBBF00BFE8F802000148FFF7BF
:10641400E5BF00BF00F9020030B585B00546019123
:10642400002401A9284605F0CFFA10B9204605B08A
:1064340030BD002203A9284605F023FB0028F0D133
:10644400039802F013F90134EBE7000073B5836895
:10645400D3F84C319B07054603D50022114604F0BE
:1064640097FF154C154A24F47F6428464FF4805650
:10647400082124F00F0404F057FF23462846009611
:106484000F4A082104F050FF0E4B0F4A1B681C1BD7
:10649400642363432846CDE900461B0B082104F01E
:1064A40043FF0A4B0A4A1B680821284602B0BDE88C
:1064B400704004F039BF00BF8B440300F8FC0200B5
:1064C4000CFD02000C2F002039FD0200142F0020C7
:1064D40068FD020000238B540A460068194604F044
:1064E40023BF00002DE9F043384D87B007460E4620
:1064F400DFF8E4801BE0DDF80890059440232B606E
:106504000822234603A94846CDE9034402F0C7F80C
:106514000C220DEB0201404608F04EFD9DF80C30B4
:1065240003F00303012B0BD0022B2CD02C60002290
:1065340002A9384605F0A5FA04460028DBD036E067
:10654400BDF80C40C4F38314A40008232246204958
:10655400484602F0A4F82A6804F10C039A42E6D3F0
:10656400029A1C4C009221681B4A1C482B6002F0C2
:106574001DFA90B9F6B123682A680298134423607F
:1065840002F074F8B4E7BDF80E40A409342C28BF17
:106594003424033424F00304D7E776B904280CD157
:1065A400029802F063F80E4A1368013313600D4831
:1065B40001F07DFD07B0BDE8F083102898D1029862
:1065C40002F054F8084B01221A7091E7102F0020B2
:1065D400242F00200C2F0020182F0020282A002010
:1065E400142F0020D82E0020882F0020174A38B5F9
:1065F40013780446CBB90378012B25D1416879B9C6
:106604001348144A0368156811602B440360124848
:10661400FFF768FF6069B8B1BDE8384002F026B8FA
:106624000E4A136801331360F4E7012B0CD103788D
:10663400022B09D10A4B816823F47F6323F00F03F3
:10664400994204BF0023137038BD00BF882F002077
:106654000C2F0020102F0020E8F80200142F002037
:106664008B4403000D4B1B7810B50C46A3B90846A8
:1066740001F0F8FF21460A48FFF7CEFE094A1368E5
:1066840018441060084801F009FD014620B9044887
:10669400BDE81040FFF726BF10BD00BF882F0020C3
:1066A400E8F80200142F0020D82E002038B50B4C37
:1066B4002378012B0D460FD0084601F0D3FF29465D
:1066C4000748FFF7A9FE2378022B05D101210448CE
:1066D400BDE83840FFF706BF38BD00BF882F002053
:1066E40000F9020070B5002286B01B491B4802F075
:1066F40021F91B4B044650BB02221A70194B1A484D
:106704001A4E0125C3F884502946FFF7EBFE04F026
:10671400C40343F0290303948DF80C30039B144AFB
:1067240031680E4862F39F23124A0393C2E900348E
:1067340094600C23009402F039F933680E480C334A
:106744002946336006B0BDE87040FFF7CBBE012296
:106754001A7006B070BD00BF20130300282A002061
:10676400882F002000E100E0E8F802000C2F002050
:10677400C4FC0200182F002000F9020070B50E4678
:1067840001680446154621B9154921F47F6121F0B9
:106794000F012160134802F04FFAF0B12168316013
:1067A4000B7803F0030301F10C00012B286003D0E4
:1067B400022B09D0052070BD0B88C3F383139B0003
:1067C400034423600020F6E74B889B09342B28BF41
:1067D4003423033323F00303F2E70620EBE700BF7F
:1067E4008B440300282A0020F0B58368D3F84C3189
:1067F4009B0789B0044603D50022114604F0C8FD66
:106804000023CDE90233204E204D012703AA04A919
:1068140002A8FFF7B3FF034670BBDDE90301CDF81F
:106824001A30ADF81E308B6805938B88ADF818309C
:106834000B78346003F00302012A03D0022A10D03B
:106844000027E3E70F680A880095C3F3C2038DF8B5
:106854001C30014605ABC2F38312B80A00F026FFD0
:10686400EEE74988C3F3C2038DF81C3005AA2B4612
:10687400890900F07FFFE3E727B1054A022120469A
:1068840004F052FD09B0F0BD8C2F0020582B0020DD
:10689400E6FC020010B5084C084B094824F47F6458
:1068A400012224F00F041A702146002302F03EF95D
:1068B400044B1C6010BD00BF8B440300882F0020D4
:1068C400282A00200C2F002008B58368D3F84C3107
:1068D4009B0703D50022114604F05AFDBDE8084089
:1068E400FFF7D8BFF0B595B008460D4616461C46CE
:1068F40001F0B8FE1A9A0D920023082205A9284631
:106904000A938DF82C300C93CDE9086401F0C7FE8E
:10691400079B0293069B039301238DF811309DF886
:10692400143003F00302012A1DD1BDF81440059E62
:10693400C3F3C203C4F383148DF81030A2000823F8
:106944000EA9284601F0ABFEC6F3952608AB0093CA
:10695400224602AB0EA9304600F0A8FE284601F0FC
:1069640085FE15B0F0BD022AF8D1BDF81640C3F378
:10697400C203A4098DF810300827082C264628BF26
:1069840008263B4632460EA9284601F088FEA41B81
:1069940008AB02AA31460EA8374400F0EBFE002CE7
:1069A400EBD1DBE700230428CB604B6098BF044B9A
:1069B400044A98BF53F820308A600B60704700BFC8
:1069C400E0000300BC000300CB6800225A7170474A
:1069D400C368DB6800225A717047CB6801225A7180
:1069E4007047C368DB6801225A7170470D4A8A6098
:1069F40070B50D4A0D4C0023121BCB604B600B602D
:106A040012091D469A4207D0E6683679FF2E05D052
:106A1400854202D1A3680B6070BD01350133103487
:106A2400F0E700BFF40003004CFB02001CFB020073
:106A34002DE9F74F164D174C52F8047C0193641B53
:106A440006468946924624094FF00008444508D179
:106A5400114A3B460221304603B0BDE8F04F04F032
:106A640063BCA968384608F003FBAB46103510B187
:106A740008F10108EAE7DDED017A17EE90CA534602
:106A84004A465946304603B0BDE8F04F604700BF60
:106A94001CFB02004CFB02002C020300014BFFF71D
:106AA400C7BF00BFD56F0200014BFFF7C1BF00BFD6
:106AB400CD690200014BFFF7BBBF00BFDF690200D5
:106AC400014BFFF7B5BF00BF0D6E0200037813F052
:106AD400040216D003F00303012B03D0022B09D0C8
:106AE400012070470A6800880232C0F38310024410
:106AF4000A60F5E70B684288023303EB92130B60DC
:106B0400EEE71046704700002DE9F04F87B00023F0
:106B14000446851C0DF107000F4690468DF807309A
:106B240001F0B6F9454806683E60D0E901321344E5
:106B340001339B1B824600F21C4600F5836900F278
:106B44001447AB421BD30022B8F1000F70D00523C9
:106B540063F3070264F38912DAF80010DAF80830F4
:106B64009DF807000B4003330D444AF82320CAF86C
:106B7400005001F0B1F9012007B0BDE8F08F012108
:106B8400304601F075FA484601F08BFA384601F0B8
:106B940088FADAF80400DAF808B0029000EA0B0088
:106BA40003300AEB800002A9FFF790FF029B50BB61
:106BB4000BEA03020AEB820203F1020CD26803928D
:106BC400013303EA0B0B0AEB8B0B02F00302012ADD
:106BD400CDF808C0DBF80C1022D0022A16D0834668
:106BE400384601F061FA10B1029BCAF804305946E4
:106BF400304601F03DFADAE901231344DAF80020C3
:106C040001339B1A9DE70BEA0300C9E7BDF80E3078
:106C14009B0903334FEA114B0CEB93030293DFE719
:106C2400BDF80C30C3F383134FEA114B6344F5E70B
:106C3400062363F3070264F39F528DE76832002052
:106C4400012907B5034604D08168D1F84C1189079E
:106C540007D500221146184603B05DF804EB04F092
:106C640097BB53680193054B00931368044A0221B0
:106C740004F05AFB03B05DF804FB00BFB2FE02004F
:106C8400A8FE02002DE9F3478368D3F84C41C4F30E
:106C94004004074634B10022114602B0BDE8F04773
:106CA40004F076BB144E154DDFF85880DFF8589089
:106CB400DFF858A0AD1B2D09AC4202D102B0BDE8EB
:106CC400F087F268B3681179FF2907D10C4A0821CB
:106CD400384604F029FB01341036EDE75279002AD6
:106CE40014BF42464A46CDE900213846524608219F
:106CF40004F01AFBEFE700BF1CFB02004CFB020090
:106D0400D8FE0200C7FE0200CFFE0200F7FE02001A
:106D140030B50A4B0A4A0B49D21AD20800239A42C8
:106D240001D1052006E031F823500468A54202D1C0
:106D34000360002030BD0133F1E700BF14FA020004
:106D44001CFB0200502A002007B5019031B9019ABA
:106D5400064B53F8320003B05DF804FB01A8FFF7BB
:106D6400D7FF0028F3D00020F5E700BF14FA020093
:106D7400002310B5CB604B60034B8B600C460121A4
:106D8400FFF7E2FF206010BDBC000300094B01398E
:106D940003EBC000032909D8DFE801F00A02040666
:106DA400042070470079704740797047002070478D
:106DB4000220704714FA020030B5114C00EB400079
:106DC40054F821508240072383406A401A400D4BF7
:106DD4006A40C2F3821044F8212003EB8101C2F31C
:106DE400C203834238BF0346C2F34220834202F007
:106DF400070238BF03469A4238BF1A464A8030BD5C
:106E0400D42A0020502A00202DE9F74F06461D46BB
:106E14009046002A4FD0CB6828684B4993F80490D9
:106E2400072208F042F8D0B9B8F1010F07D1474A58
:106E34000221304603B0BDE8F04F04F075BA444F68
:106E440004460A2257F8041B686808F02EF8002844
:106E540073D00134052CF4D16B683E4A13E0082248
:106E64003D49286808F021F858B9B8F1010F0446E3
:106E74002AD00127394A3A4B9B1A4FEAD30A934640
:106E840045E02B68374A0221304603B0BDE8F04F95
:106E940004F04ABA18F83530A3420FD2002128462C
:106EA400FFF752FF524603460221304604F03CFAF3
:106EB4000135BD42EED103B0BDE8F08F224629462C
:106EC4004846FFF779FFF3E7244B254FDFF89CA0F2
:106ED400FF1AFF08002503F10608EAE71846002117
:106EE4000193FFF731FF0099202207F0DEFF019B99
:106EF400014608B1013310E00BEBC3029279A242C0
:106F040015D3224619464846FFF756FF0137474531
:106F1400D1D255F82730009300239A45DED155F895
:106F24002730114A0221304604F0FEF9EEE71846F4
:106F3400FFF70AFF0D4A0346F4E7B8F1020FE4B283
:106F4400C2D0022796E700BF91FF020098FF02001B
:106F5400CC00030003000300AFFF020014FA020098
:106F64001CFB0200B7FF0200EFFF0200CCFF02008F
:106F740013460A46C168FFF747BF000013B504462D
:106F84000191A3B162B9019A0F4B04EB44040720A9
:106F940053F82230A0401840E040C0B202B010BD07
:106FA40001A8FFF7B5FE0028EDD00020F6E72AB9C6
:106FB400019A064B03EBC2039879EFE701A8FFF7A8
:106FC400A7FE0028F1D1F3E7D42A002014FA020026
:106FD400284B294A2DE9F04F9B1A4FEAD309CB6875
:106FE4005B7985B005460E461BB9244A022104F09C
:106FF4009BF9234B234A244F0821284604F094F993
:10700400224A0821284604F08FF900244C4502D175
:1070140005B0BDE8F08FF36893F8048001231A46A5
:1070240021464046FFF7AAFF01222146834600235A
:107034004046FFF7A3FF0328034628BF03235FFA54
:1070440083FA804601212046FFF77EFE57F82A3056
:1070540001930F4A0F4B57F82B100091D04598BF5E
:10706400134602930C4A03460821284604F05CF9AF
:107074000134CBE71CFB020014FA020022000300D7
:107084003500030041000300CC0003005F0003004F
:107094008C240300200003009C00030013460A46CE
:1070A400C168FFF795BF0000034BD3E90030C31A52
:1070B40058425841704700BF683200202DE9F04F14
:1070C40087B0FFF7F1FF0646002840F01A818E4D85
:1070D400C5F81804BFF34F8F6868AC68029020406D
:1070E400033005EB800002A9FFF7F0FC029B18B106
:1070F400D5F81824002A66D004EA0302991C013347
:1071040005EB8202234005EB8303D268DB6804931A
:1071140002F00303022B0392029169D1BDF80E30F1
:107124007A489DF80C604FEA931ABAF5A07FD146CD
:1071340028BF4FF4A07969F38F1309F10801ADF862
:107144000E3001F060FAC6F3C2068046002800F053
:10715400BF8001F087FA03A900230822404601F00A
:1071640094FA029924EA01070137BF00B94538D9D6
:107174005FFA89F997B3FFB2A9EB070921400331FC
:107184005FFA89FBB946624F05EB810108234A4641
:10719400404601F07AFA37B109F108035A463946F4
:1071A400404601F072FA029B0AF1030A03EB9A03C8
:1071B4000293D5F81834002B50D1D5F81044DFF8D9
:1071C400649107276FE02A689A4204D86A603046BF
:1071D40007B0BDE8F08F04EA030081E74C49BB46E1
:1071E400D4E72140033108234A4605EB8101D7E760
:1071F400012B6DD1BDF80C604448C6F383110629F8
:1072040028BF062161F3891602318900ADF80C60AC
:1072140001F0F9F9C6F3C2068046002858D001F0FF
:1072240021FA0023082203A9404601F02EFA002780
:10723400BDF80C20C2F38312BB00974203F108038C
:10724400B7D202994A1C21400331029205EB810115
:107254000422404601F019FA0137E9E7404601F0FB
:1072640005FAFFF721FF80F00100C6B2AFE7E3683B
:107274005A79B2B11B79BDF8101003EB430259F8E7
:10728400211007FA02F3052E03EA010323FA02F39D
:1072940008BF0326B34204D3236841461B68204633
:1072A4009847E3681C68002CE1D1404601F0DEF900
:1072B4000DF107008DF8074000F0EAFDD5F8183409
:1072C4000BB9029B6B609DF8070000F005FEC8E750
:1072D400D5F8104474B90F4B5B88012BC1D90E4B00
:1072E4000E480F49C01AC008000440F0020000F024
:1072F40073F8B6E7236820469B689847E3681C68E0
:10730400E8E7002663E700BF6832002030F9020096
:1073140074320020682A002014FA020044FA0200A1
:10732400DB020300D42A00202DE9F74F284C8046C5
:107334000F46924601A9012218469B46D4F80890AC
:10734400FFF7E2FB80B3019D0026A91C5E4506EB16
:10735400010233D100211F4800F049FE80F31000E0
:107364006A1C02EA090204EB8202000405EA09032A
:10737400033340EA1840D06014F8232068F3C502B0
:1073840004F8232034F8232066F3891224F82320F8
:1073940054F8232067F39F2244F8232002F0F802D4
:1073A40042F0010204F8232094F820341BB1FFF7C3
:1073B40085FE0028FBD103B0BDE8F08F09EA020284
:1073C40004EB82025AF82630D3600136BEE700BFD0
:1073D400683200208436002000231A46FFF7A4BF39
:1073E40007B50123019201AAFFF79EFF03B05DF8E0
:1073F40004FB07B5CDE9002302236A46FFF794FF97
:1074040003B05DF804FB1FB5CDE90123069B03938C
:1074140001AA0323FFF788FF05B05DF804FB000011
:10742400094A38B50123D2F8104482F820341D46A5
:1074340004B938BDE3685D71236820465B689847EA
:10744400E3681C68F4E700BF6832002010B588B018
:107454000023CDE902330493CDE900331E4B1F4AC8
:1074640005931F4B06929B1A9B08079302AA6B462F
:1074740043F2274141F26E0002F049F9B0B905A97F
:1074840002A802F03DF9174B5B88022B04460AD987
:107494001548164B1649C01AC0080004224640F08D
:1074A4000300FFF79DFF204608B010BD0A2810D145
:1074B40005A902A802F020F90A4B5B88022B0446B6
:1074C400F1D90948094B0B49C01AC00800042246E7
:1074D400E5E70324E7E700BF6E102734D42A002031
:1074E400582B0020682A002044FA020014FA0200F3
:1074F40079020300AA02030010B58368D3F84C3163
:107504009B07044605D500221146BDE8104003F050
:107514003FBFFFF79BFF30B9044A08212046BDE86E
:10752400104003F001BF024A0221F7E754FF0200B2
:107534006CFF020000B589B00023CDE90533079341
:10754400CDE9013305AA01AB43F2274141F26E00B4
:1075540002F0DDF890B9CDE9030003A905A802F013
:1075640085F840B90F48104A0499121A07F024FD0F
:1075740005A802F09FF809B05DF804FB0A280FD1B2
:107584000A4B5B88012B09D909480A4B0A49C01ADE
:10759400C008000440F00200FFF71EFF0520EAE7E0
:1075A4000320E8E7D42A0020582B0020682A002072
:1075B40044FA020014FA02005402030010B583686E
:1075C400D3F84C319B07044605D500221146BDE88B
:1075D400104003F0DDBEFFF7ADFF30B9044A0821C7
:1075E4002046BDE8104003F09FBE024A0221F7E79F
:1075F40018FF020030FF0200037A052B10B50C4679
:107604000FD0437A23B1084A0849204600F0F3FD1D
:107614000749204600F0EFFD2046BDE8104000F089
:10762400DFBD002AF8D0F3E75B050300F01903007F
:107634008A240300C38873B504460D4633B1144A43
:1076440000921449144A284600F0D5FD217A0529F0
:107654001CD0637A4BB1A088FFF798FB0F4B1049FD
:1076640053F82020284600F0C6FD227A0D4BA0884E
:1076740053F822600021FFF767FB0B4903463246AB
:10768400284602B0BDE8704000F0B5BD02B070BD40
:107694005B0503006805030060050300280503007B
:1076A400F01903008C050300800503002DE9F04365
:1076B40085B01F460C9D002306460C46904695F85F
:1076C4000C902B7329463846FFF7B4FFB8F1060F28
:1076D40009D8DFE808F00412181F283340003146A7
:1076E400284600F088FD002229463846FFF784FF2B
:1076F40085F80C9005B0BDE8F08322683146284631
:1077040000F079FDEFE7D4E900233146284600F084
:1077140072FDE8E7A36800933146D4E900232846C4
:1077240000F069FDDFE7E3680193A3680093314645
:10773400D4E90023284600F05EFDD4E723690293D0
:10774400E3680193A36800933146D4E900232846F3
:1077540000F051FDC7E76369039323690293E3686B
:107764000193A36800933146D4E90023284600F02E
:1077740042FDB8E708292DE9F84F80460E46174622
:107784001C463AD8002593F80C901D7319461046F0
:10779400FFF750FFDFF884A0DFF884B0AE422ED9A3
:1077A40018F805205946204600F025FD0135082D1E
:1077B400F4D11849DFF86CB0204600F01CFD4FF0FE
:1077C400000A564520D918F80A507E2D03D82846B9
:1077D40007F05FF900B92E252A465946204600F0E5
:1077E4000AFD0AF1010ABAF1080FEAD10122214681
:1077F4003846FFF701FF84F80C90BDE8F88F514636
:10780400204600F0F8FCD1E70349204600F0F3FCE1
:10781400E7E700BF560503005405030052050300C3
:107824004C050300580503007047000007B5044BDE
:107834000093044A4023FFF755F803B05DF804FBB6
:10784400A57802001937002070B5064603291BD815
:10785400DFE801F0021B0F170D4D0E4C304604F00B
:107864006AFF01222946204604F06AFF0028F5D069
:107874000AE001220649074804F062FF064B012290
:1078840001E0054B00221A7070BD044BF7E700BFFE
:1078940018370020D8050300993700209A370020B4
:1078A40038B50C4C002020700B480078154680B188
:1078B4000A4807F081FB2A460849094804F01AFFE0
:1078C40008B100F043F8074B1A7812B12378002B63
:1078D400FBD038BD9A370020993700205937002053
:1078E400D80503008C3600207047000070B5084DA1
:1078F400084E00242B789C4201D3002070BD3368CD
:10790400012113F8340002F0B9F90134F2E700BFA1
:107914009B370020BC37002070B5094D094E002468
:107924002B789C4204D30848BDE8704000F0A0BA0C
:10793400336813F8340002F0EBF90134F0E700BFC8
:107944009B370020BC3700209C3700201FB5002146
:10795400039001AA44F20100CDE9011100F004F8FA
:1079640005B05DF804FB000010B572B6FFF758FDD2
:10797400FFF7A4FB0028FBD1154C62884AB11548D7
:10798400154B1649C01AC008000440F00100FFF767
:1079940023FD134B1B68DB0700D500BE6388012B56
:1079A40009D90C480C4B0F49C01AC008000440F018
:1079B4000200FFF711FDBFF34F8F0B490B4BCA6851
:1079C40002F4E0621343CB60BFF34F8F00BFFDE7C7
:1079D400682A002044FA020014FA02000806030090
:1079E400F0ED00E01406030000ED00E00400FA05E9
:1079F400094A537891780133DBB2994208BF0023D6
:107A0400117899421FBF03705078182303FB00209C
:107A140014BF043000207047C037002073B50546FA
:107A240000240DF107000E468DF8074000F030FAEF
:107A34000DF10600FFF7DCFF90B10670094B9DF8CD
:107A4400062045605A709DF8070000F045FA24B9F5
:107A5400054B4FF48012C3F80021204602B070BDDC
:107A64000424F0E7C037002000E100E0024B4FF4AB
:107A74003C6043F0010318473006030038B50C4B53
:107A84000C4C4FF40032C3F8802001254FF48033AE
:107A9400C4F84833C4F808336560FFF7E7FF064BC2
:107AA400A56000241C60FFF7E1FF044B1C7038BD87
:107AB40000E100E000100140DC380020CD38002057
:107AC400F8B51F4B1F491B680025C1F84051C1F888
:107AD4004451C1F84851C1F84C51C1F80051C1F8A2
:107AE40004514BB3D1F8044517490968641A24F0CA
:107AF4007F442F461A68A24209D8A41A15441A7C56
:107B0400DE691AB11F74D3E905209047AEB90F4A54
:107B14000F4B11781B788B4205D10133DBB2022B5A
:107B240008BF0023137012780A4B43F822500A4B03
:107B34004FF48012C3F80021F8BD3346DAE700BFE2
:107B4400E038002000100140DC380020D938002043
:107B5400D8380020D038002000E100E02DE9F04FB3
:107B6400A04AA14913780978A04D994285B03CD028
:107B74000133DBB2022B08BF002313709C49127837
:107B84009C4B0F6853F822003B1823F07F430022DC
:107B94000B602B6816461446944613B942B12B6009
:107BA40006E0196881420ED902B12B60091A1960E6
:107BB4004FF001082B68DFF844A201930027BEB9F7
:107BC400DFF840B266E0401A0C44D968C3F800C03C
:107BD400D3F81CE031B13A1922F07F42C3E9012104
:107BE400DE611E4601227346D7E70026B046E1E770
:107BF4003446F6697E4A63681268DFF80CC2A068EE
:107C0400991A21F07F41614500F2A5800144216069
:107C1400012222742A680023C4E90133E361002AA3
:107C240040F0A2802C60CAE75A1C9BF80210D2B222
:107C340091428BF8002004BF00228BF80020182208
:107C440002FB03B31A799C68022A1CD0032A12D0BF
:107C5400012A1FD1207CE8B9D3E90312A2605A6932
:107C6400E2609A69644BA2611B78002B0CBF0B463F
:107C740003466360BEE700222B681146002B66D1E1
:107C840042B12B6006E029680A468946002A59D188
:107C9400002323749BF800309BF801209A42C3D13F
:107CA4002B682FB9019A9A4202D1B8F1000F43D040
:107CB400002B73D0D3F800A0504D4D4BD5F804756C
:107CC4001C68DFF848813E1B98F8003026F07F4698
:107CD40003369BB94FF48033C5F84433C5F80433F5
:107CE400474B4FF400324FF00109C3F880211A606A
:107CF400C5F80090FFF7BAFE88F80090B2452CBF93
:107D04005444A41924F07F44C5F84045D5F80435FB
:107D1400DB1B23F07F43E41B033324F07F44A342A3
:107D24000AD9D5F80435C5F84035FFF79FFE344B22
:107D34004FF40032C3F800212F4B00221A7005B013
:107D4400BDE8F08F94422CD09146D2699EE7197415
:107D54000122DB6992E7D31A23F07F43834234BFC5
:107D6400C31A0023236053E721681368994213D888
:107D7400591A1160E26155E7091AD8691A4638B1EF
:107D8400034618688842F7D3401A18601846134609
:107D94002160E061DC6112E71346F2E7FFF76EFE53
:107DA400CAE74C4511D1CB692B6073B9DFF840E0C9
:107DB4000120CDE90212CAF80800CEF800300E4BBB
:107DC4001870FFF753FEDDE902121368D269C9F88F
:107DD4001C2012B11068034413602B68994218BF29
:107DE400012755E7D8380020D9380020E038002092
:107DF400DC380020D0380020CC38002000100140AE
:107E040000E100E0C0370020FEFF7F00CD380020F5
:107E140008B5FFF733FE104B00200B2218809A7030
:107E24000E4B18600E4B18700E4B18700E4B4FF41F
:107E34008012C021C3F8802183F814131A6002F160
:107E44008042A2F56F22C2F8080583F81113074B8C
:107E5400D2F804251A6008BDC0370020E03800209D
:107E6400D8380020D938002000E100E0DC380020B8
:107E7400064A92783AB130B1426922B100220274C2
:107E84000221FFF7CBBD0820704700BFC037002098
:107E940070B5EFF3108672B60C4A946801239CB94E
:107EA40093600B4B0B4DD3F8801029401160C3F83D
:107EB4008050D3F8841051604FF0FF32C3F884200F
:107EC400047006B962B670BD0370FAE7E4380020A6
:107ED40000E100E0FC06FFBD084B9A6810B55AB1FA
:107EE40050B9EFF3108172B6054A1C6814605C68DF
:107EF4005460986001B962B610BD00BFE438002038
:107F040000E100E037B550E8013F9DB2C489254443
:107F14008489A54228BF2D1B0489A54202BFBFF353
:107F24002F8F002207E0C5EA030540E80154002C26
:107F3400E9D14FF001028DF803200193019B9DF8D4
:107F440003200B6002F0FF0322B10B880068184481
:107F540003B030BD1846FBE70A884B889A4209D122
:107F640050E8012FC2EA024240E80123002BF7D176
:107F7400012070470020704737B550E8023F1FFAD0
:107F8400A3F5C488A54202BFBFF32F8F00220DE0E2
:107F9400C48925448489A54228BF2D1BC3EA05450D
:107FA40040E80254002CE8D14FF001028DF8032080
:107FB4000193019B9DF803200B6002F0FF0322B1A3
:107FC4004B880068184403B030BD1846FBE70A88A4
:107FD4004B889A4209D150E8022FC2EA224240E873
:107FE4000223002BF7D1012070470020704750E88E
:107FF400002F0B4640E8003C9CF0000FF7D11046E0
:10800400704750E8002F42EA010340E8003C9CF02E
:10801400000FF6D11046704750E8003F43EA0102D2
:1080240040E8002C9CF0000FF6D11046704750E851
:10803400002F02EA010340E8003C9CF0000FF6D157
:108044001046704750E8003F03EA010240E8002C64
:108054009CF0000FF6D11046704750E8002F02EB59
:10806400010340E8003C9CF0000FF6D11046704735
:1080740050E8003F03EB010240E8002C9CF0000FA5
:10808400F6D11046704750E8003FA3EB010240E8E8
:10809400002C9CF0000FF6D1104670470121FFF729
:1080A400B0BF0121FFF7B8BF0021FFF7C0BF002117
:1080B400FFF7C8BF2DE9F0478368D3F84C41C4F3F8
:1080C400400488B0074634B10022114608B0BDE828
:1080D400F04703F05DB9012906D91E4A022108B010
:1080E400BDE8F04703F020B91B4D1C4EDFF870A02B
:1080F4004FF06408A146761B1C23B6FBF3F6A64298
:1081040005F11C0502D108B0BDE8F08755F81C0C38
:1081140055E90623017900689A1A1B1ADBB2039306
:1081240008FB03F3B3FBF2F3CDE9019335F8043C08
:108134000093CDE9061255F8083C11FB08F13846C6
:10814400B1FBF2F1CDE904215246082103F0ECF829
:108154000134D4E7200B030030F9020084F9020053
:10816400330B030037B5054600240DF107008DF8E5
:108174000740FFF78DFE2A686B68116899420ED993
:10818400481E106011F8014CEB68298B01FB043484
:10819400AB6811791B1ADBB2994238BF13719DF891
:1081A4000700FFF799FE204603B030BD37B50546FA
:1081B40000230DF107000C468DF80730FFF768FE29
:1081C4002A681368591C1160E968641A298BB4FB86
:1081D400F1F41C709DF80700FFF77EFE03B030BD7C
:1081E400826810B504462AB143690168006998475A
:1081F4000023A36010BD0EB403B5039921B104ABF1
:1082040001AA019300F06CF802B05DF804EB03B02E
:108214007047826830B40468551C8560A154D0E965
:1082240001329A4202D330BCFFF7DABF30BC704748
:108234002DE9F84F9946DDE90A43174682468846F8
:108244000A460126BA420FD24E4538BF4E4613F0B5
:10825400010B01D164B900240125B9F1010F1AD928
:1082640009F1FF397D43F8E7B2FBF7F20136E9E79C
:108274009B070ED5B9F1000F0CBF30252025A6426F
:10828400EAD2013C29465046FFF7C3FF002CF6D141
:10829400E1E72025F3E7B8FBF5F39F42E2D9DFF8E5
:1082A4003C90B8FBF5F3504619F8031005FB13880E
:1082B400FFF7AFFFB5FBF7F3BD4207D2BBF1000FE9
:1082C40002D00CB1A64203D3BDE8F88F1D46E8E7FF
:1082D40020215046013CFFF79CFFF2E71C0C0300F1
:1082E4002DE9F74F054617468846002900F03181ED
:1082F40018F8011B49B92B7B002B00F02A81284672
:1083040003B0BDE8F04FFFF76BBF252940F0C080F4
:10831400002698F800302D2B424608F1010823D09E
:10832400302B24D02B2B25D000242A2B02F1010141
:1083340023D13B681A1D1B683A601C440A46137813
:108344002E2B26D101324FF0000A104610F8011BE3
:10835400A1F1300CBCF1090F1DD80A2303FB0A1349
:10836400A3F1300A0246F0E746F00106D1E746F0F1
:108374000206CEE746F00406CBE711F8013CA3F170
:1083840030000928DBD80A2202FB0434303C0A46B8
:10839400CBE74FF0000A12F8011B01F0FB0068283C
:1083A4009046F8D069290ED04AD8582964D006D806
:1083B40025296DD098F80030002B99D19BE76329CB
:1083C40062D06429F6D13A68D2F80090111D89EA86
:1083D400E9723960A2EBE9724FF0010B092A5BDC08
:1083E400D34538BFD3462CB1B9F1000F01DB710777
:1083F40000D5013CB20702D5BAF1000F04D0F3074F
:1084040002D4002C4ED10024B9F1000F52DAC9F184
:1084140000092D212846FFF7FCFE06F00302022A7C
:1084240005D1BAF1000F02D1002C47D10024CDE9C7
:10843400004653460A2249462846FFF7F9FEB9E7A3
:1084440073294CD014D87029B4D13B681A1D3A60F2
:10845400302128461C68FFF7DCFE78212846FFF708
:10846400D8FE00220823CDE9003221461022E3E79A
:1084740075292BD078299DD139680A1D3A60CDE938
:1084840000465346102228E03B681A1D19783A60CA
:108494002846FFF7BEFE8DE70A230BF1010BB2FB62
:1084A400F3F29BE7A345AFD220212846013CFFF716
:1084B400B0FEA6E77007B0D52B21ABE7A345B6D233
:1084C40030212846013CFFF7A4FEADE73968CDE929
:1084D40000460A1D3A6053460A220968ACE73B6825
:1084E4001A1D3A60F107D3F8009020D4B9F1000FB7
:1084F40025D0484606F0E3FD0646B44200D9C4B987
:1085040009F1FF3920E028460136FFF782FE19F809
:1085140006100029F7D1A642BFF44CAF002C3FF45B
:1085240049AF20212846013CFFF773FEF3E70026FC
:10853400EDE720212846013CFFF76BFEDDE74E46C0
:10854400DBE72846FFF765FE19F8011F0029F8D17B
:1085540030E703B0BDE8F08F2DE9F047B0F806909E
:108564004479D2F800A09DF8208009FB04F4043C6F
:1085740006460AEB0300A0420F4688BFA4EB030A99
:10858400191DC2F800A0B1FBF9F509FB15114DB98D
:10859400A9EB0104544528BF5446BAF1000F04D195
:1085A400BDE8F0873668013DF1E704317B197018A6
:1085B4002246B8F1000F0ED001461846AAEB040A71
:1085C40006F0FAFCD145254436684C464FF00001CC
:1085D40028BF5446E1E71946F0E7F8B54679014665
:1085E400721E0546002393422D6803D30024A6423D
:1085F40002D8F8BD0133F6E70F682846FFF7D6FD29
:1086040001343946F3E72DE9F843068BCD1C0746C0
:10861400FFF7A8FD043E35440446B5FBF6F5F0B17A
:108624004FF48073EDB28380C680013D07608146BC
:108634004FF00008A84512D23846FFF793FD0646CE
:1086440048B163790133637108F10108C9F8000086
:1086540007608146EEE72046FFF7BFFF3446204619
:10866400BDE8F88301210430FFF702BD10B50121F4
:1086740004460430FFF707FD10F0FF0F04D1204635
:10868400BDE81040FFF7A9BF10BD1FB5039200223B
:10869400009203AAFFF760FF05B05DF804FB1FB565
:1086A40003920122009203AAFFF756FF05B05DF87A
:1086B40004FB0000064B10B500241C70054B1C6025
:1086C400BFF35F8F0449054800F00AF8204610BD47
:1086D400F8380020FC3800202C0C0300F03800206F
:1086E4000B684A684360934208BF0023016008BFD7
:1086F40043607047436843B10268916852680B4411
:108704009342436004BF00234360704710B50D4992
:10871400A1F59472914201D800200FE08B1ADB106E
:1087240003EBD3735B1002EBC30452F83330834280
:1087340005D802D204F10802ECE7606810BD2146B6
:10874400E8E700BF7C0D030008B5FFF7DFFF024B2D
:10875400002808BF184608BD410C030029DF7047F4
:1087640028DF704770B503689D6886B004460E46DE
:108774006DB114220021684606F047FCA3680593F6
:10878400237901962BB1012B0DD06846A84706B07A
:1087940070BD01238DF8003023690293E3680393CD
:1087A40063690493F1E702238DF80030E3681B0347
:1087B4000293F5E7034B187A0122B0FA80F05A7459
:1087C400400970470039002070B5244D244E2B7A9F
:1087D4002C463BB923492448FFF7CEFB306008B947
:1087E400686070BD0223237233681A7972B1012A5A
:1087F40024D018460321FFF7B5FF002323726360DA
:1088040018491948BDE87040FFF7E1BBD3E90520DA
:10881400121AB2F5805F28BF4FF48052D3E90315D2
:108824009208012A014438BF01222844FFF796FF29
:1088340050B11128DDD101232372D2E7D3E9030219
:108844001044FFF78DFFF3E7237C002BC9D10146C9
:10885400BDE87040022000F009B800BF00390020D4
:1088640018390020143900207C2B002038B5831ED1
:10887400012B45D8234C237A002B41D0022B09D15C
:10888400032830D0204B1B680022E2601A793AB1E9
:10889400012A22D0637C7BBBBDE83840FFF794BF3C
:1088A400D3E905128D1AB5F5805F94BF521902F50C
:1088B40080529A619142EDD102284FF0000308BF23
:1088C40019462372104B18BF0D211868FFF74AFF91
:1088D4000E490F48FFF77BFBDCE71A6901321A6186
:1088E4005B699A42E7E7E3680133082B01D8E36048
:1088F400D0E70023E360DFE7BDE8384005F040BE81
:1089040038BD00BF00390020183900201439002078
:108914007C2B002000F0FD03012B08D1044B002226
:108924005A74421E504250411874FFF74DBF7047AD
:108934000039002007B50B46A0B9154B5B886BB115
:10894400144B1548154AC01A0E23C0080093144B43
:108954000004144940F00100FEF755FD0E2003B059
:108964005DF804FB6BB90A4B5B88002BF6D0094B0E
:1089740009480D4AC01AC0080E2300930004084B8E
:10898400E7E703601B68114603B05DF804EB184782
:10899400A82A002014FA0200C4FA0200F11103000C
:1089A40044110300F61103006D1203002DE9F34195
:1089B4009646B0B9504B5B88002B00F095804F4B26
:1089C4004F48504AC01AC0080E244F4B009400046C
:1089D4004E4940F00100FEF716FD204602B0BDE806
:1089E400F0816AB9444B5B88002B7DD0434B4448EB
:1089F400474AC01AC0080E2400040094424BE7E71B
:108A0400D0F800C0BCF1000F0DD13B4B5B88002BAC
:108A14006CD03A4B3A483F4AC01AC00808240004B4
:108A24000094394BD4E76BB9334B5B88002B5FD090
:108A3400324B3348384AC01AC00809240004009451
:108A4400314BC5E74768D7F80480B3FBF8F708FB58
:108A540017376FB1284B5B88002B49D0274B284828
:108A64002E4AC01AC008092400040094264BAFE71C
:108A74008F070DD0204B5B88002B3BD01F4B204829
:108A8400274AC01AC0081024000400941E4B9FE714
:108A940012F0030F0CD0184B5B885BB3174B1848CC
:108AA400204AC01AC008102400040094164B8FE713
:108AB400C768B9420BD34C1E05691C44AC4206D8A6
:108AC400DCF80C40A44602B0BDE8F04160470A4B14
:108AD4005B887BB1094B0A48134AC01AC0081024AA
:108AE40000040094084B73E70E2476E7082474E727
:108AF400092472E7102470E7A82A002014FA02005F
:108B0400C4FA0200F111030056110300F611030028
:108B14007312030067120300261203007912030084
:108B2400A3120300BB120300DE120300F7B5A0B9C1
:108B3400374B5B88002B63D0364B3748374AC01A13
:108B4400C0080E24364B00940004364940F001005E
:108B5400FEF759FC204603B0F0BDD0F800C0BCF1CC
:108B6400000F0DD12A4B5B88002B4BD0294B2A4890
:108B74002D4AC01AC008082400040094284BE4E7D6
:108B84006AB9234B5B88002B3ED0224B2248274AEC
:108B9400C01AC008092400040094214BD5E7476893
:108BA400D7F800E00EF1FF370F420CD0184B5B886A
:108BB40063B3184B18481E4AC01AC0081024000496
:108BC4000094174BC1E7C768B9420CD34C1E056922
:108BD4000EFB0244AC4206D8DCF81040A44603B0B5
:108BE400BDE8F04060470A4B5B887BB1094B0A48FB
:108BF400104AC01AC008102400040094084BA4E7CB
:108C04000E24A7E70824A5E70924A3E71024A1E775
:108C1400A82A002014FA0200C4FA0200F111030089
:108C240069110300F6110300671203002612030002
:108C34007C110300A211030018B103680BB15B6936
:108C44001847002070470000014B43600020704724
:108C5400141303000846704700207047024B18683D
:108C6400003018BF012070471C39002008B50248A5
:108C7400FFF71DFA002008BD1C39002008B5104676
:108C84001A4606F099F9002008BD00002DE9F041CC
:108C9400804686B013480E4615461F46FFF7FEF978
:108CA400044630B111200EE006EB043002F014F853
:108CB4000134A542F8D10B48FFF7F9F9D8F8083088
:108CC40000241BB9184606B0BDE8F08102226846AC
:108CD4008DF80020CDE90146CDE903450597984775
:108CE4002046F0E71C3900202DE9F041804686B08B
:108CF40012480F4616461D46FFF7D0F90446D8B968
:108D0400AA083146384601F0FFFF0C48FFF7CFF9B7
:108D1400D8F808301BB9184606B0BDE8F081012226
:108D24008DF800200C9A05926846CDE90147CDE9FB
:108D3400036598472046EFE71120EDE71C39002032
:108D440070B5064D0646002455F8043B0BB1304679
:108D540098470134042CF7D170BD00BF2C39002092
:108D6400033080B240F2FD33984230B51FD8124B25
:108D74001A783AB91C895D892C440444A4B2B4F528
:108D8400806F0AD31A7DA2B99A8BDC8B22440244E9
:108D940092B2B2F5806F0CD201220A8014461422DA
:108DA40002FB04335A8910445881002030BD092045
:108DB400FCE70720FAE700BF603900200B4A0C4BA0
:108DC4005188142000FB0131CB6833B90420496871
:108DD400107001220748FFF7A9BE05230649137046
:108DE40002238B80012200230968F3E74439002021
:108DF400603900203C2A00208C39002007B500236C
:108E040005490093054A096805480823FFF7CEFD84
:108E140003B05DF804FB00BF8C3900204C13030041
:108E24003C2A002007B50023009301460823034A87
:108E34000348FFF7BBFD03B05DF804FB44130300D4
:108E44003C2A002013B500230C460093014604235A
:108E5400074A0848FFF7AAFD38B9074B142202FB5A
:108E640004340123237402B010BD0E20FBE700BFBD
:108E7400401303003C2A00206039002037B50A481B
:108E84000A4B42689C88196853880325033305708C
:108E94009BB2002000909B0001EB84010448FFF783
:108EA40085FD03B030BD00BF443900208C3900205B
:108EB4003C2A002010B501460448FFF723F81C2281
:108EC4000446002106F0A1F8204610BD902B002096
:108ED4004388033300EB8303994209D382884FF616
:108EE400FF739A4206D00088B0FA80F040097047B8
:108EF4000220704701207047154A142303FB002009
:108F040070B50B6844680D4604F58056ABB15C88B7
:108F1400033403EB8404B4420DD2236801330AD032
:108F240031462046FFF7D4FF01280BD010F0FF0F85
:108F340005D00228EFD1002003E00834EBE72C60D1
:108F4400012070BD6388033304EB8304E3E700BFAF
:108F540060390020436873B504460D466BB3244A58
:108F6400D1688B4229D31269934226D813F00302A5
:108F740023D120490089098988421ED12068996833
:108F840088421AD11C494868834203D900F58050AD
:108F940083420ED38A6993420DD902F580529342DB
:108FA40009D201232B800020B0FA80F0400902B0DE
:108FB40070BD1346F6E70A20F6E700232B801E4611
:108FC400019601A92888FFF797FF30B92B88013350
:108FD4009BB2012B2B80F3D9E9E7019B22689968A6
:108FE4009142EED16360034B1B892381DFE700BF0D
:108FF4003C2A002044390020603900202DE9F84340
:109004001C461C4B1B7806460F4615466BB372B3C1
:109014006CB3DFF868804FF01409A388012B01D9E1
:109024000A2020E009FB03F318F803302BB921468A
:10903400A088FFF761FF20B92060A3880133A380D3
:10904400EBE723681EB1998832889142EFD11FB1B2
:1090540019883A889142EAD19A68C5E90023064BF7
:109064001B892B810020BDE8F8830220FBE7052043
:10907400F9E700BF3C390020443900206039002062
:1090840008B5074B191D5888FFF736FF18B1BDE81E
:109094000840FFF7F3BEBDE80840FFF78FBE00BFEE
:1090A400443900202DE9F04FA04FDFF8A49289B095
:1090B4000646B8463B6823B949469D48FEF75CFF1F
:1090C4003860D8F8005029784B1E052B00F2FA803E
:1090D400DFE813F006005E005E00EE00EE005C01C7
:1090E40026B1944B00225A600124ECE02B79032B27
:1090F4001DD8DFE803F015022A358F490B78022BBF
:10910400084619D00B7D022B4FF0010316D114220F
:109114005343C2180020C8545068FFF783FE03E08D
:1091240001232B71FFF76AFE002800F0BC80814BFD
:1091340000225A600E24C6E00023E8E77D4A13703B
:109144000023536041F61D54BDE07C497C48002354
:1091540002222B718A8001220968FFF7E7FCE3E70A
:10916400764C00262E712068734DFFF75BFE754B1D
:10917400D4F800C05A8814235343EA18EE545168B3
:109184002160A188C2F804C011810222A280CBE729
:10919400B5F814A0AA7DDFF8A0B1AEB1022AEB881D
:1091A40006D9142101FB0AB1DA1C088902440A8198
:1091B400142202FB0ABAC3F57F43BAF80A20FD332E
:1091C4001344AAF80A308FE7142303FB0AB318895F
:1091D4005C6804EB8004062A68D8DFE802F0274DB7
:1091E40035431D59040041F61D54AA7DEB88022A1B
:1091F40006D9142101FB0AB1DA1C088902440A8148
:10920400142202FB0ABAC3F57F43BAF80A20FD33DD
:109214001344AAF80A3056E04B484C4900234360F3
:10922400AB690360FFF796FE002871D00223AB758B
:10923400002300930423EA1821464148FFF7B6FBB4
:10924400002830D00E24D0E72B69002B14BF032351
:109254000123AB750023009305F10C02042304F1F0
:109264000801EAE70123AB750022EB8800929B001A
:109274002A6904F10C01E0E703290CBF0523062346
:10928400AB7500230093042305F10802E118D4E729
:109294000623AB752D4B19882B4B5868FFF7D2FD6D
:1092A40004460028A1D109B0BDE8F08F0F249CE743
:1092B400002E7FF419AF2B79012B4BD0E3B1022B95
:1092C4003FF440AF0F241422002103A805F09DFEB3
:1092D40041F61D539C4208BF0024D8F80030049482
:1092E4001A78023A042A00F20581DFE812F0E60057
:1092F400F20015011D01240102232B710DF10A0155
:10930400EB68039303A8CDE90466FFF723FE08B9CD
:109314000A24D8E70498BDF80A108388EB800388F0
:109324002B81FFF78FFD044627E000BF5C39002046
:10933400902B00203C390020603900208C3900201B
:109344003C2A002044390020203900209439002090
:1093540054390020DFF8FCA103AA53463146A81D66
:10936400FFF74CFE044658B9BAF804100498FFF706
:1093740069FD04460A2C3FF4E5AE002CA3D192E724
:1093840008223146504605F040FEF3E7002E7FF4F4
:10939400ABAE6B4B1A7BAAB11E731A78013A062A3C
:1093A40090D801A151F822F053940200799402005C
:1093B400979402009D940200C9920200A3940200B3
:1093C400B59402001A78072AE7D801A151F822F0CF
:1093D400F59302009F9302009F9302001B940200E6
:1093E4002F9402004F9402004F940200179402003D
:1093F4001A89544901321A8100225A801A730A7850
:10940400B2FA82F252099A720A7DB2FA82F25209CF
:10941400DA72012207E04C4958688A88408803328E
:1094240002448A8002221A70B7E7464C5A88464999
:10943400142505FB0242086854685060888810812E
:1094440002228A800C600622EDE70722EBE79A7A73
:1094540032B9DA7A8AB900221A705A805A6071E6EF
:10946400384900229A72CA68002AF2D1097C00297C
:10947400EFD05A80FFF704FE55E70022DA72314A32
:10948400116A0029E7D192F82420002AE3D00122AE
:10949400EFE7FFF7F3FC46E7FFF790FC43E7294AC1
:1094A4005B88142101FB03235868FFF7BBFC3AE7F0
:1094B40000225A60FFF7A2FC35E701228DF80C2048
:1094C4001A89ADF818209A88DB68ADF81A2005933C
:1094D40010E002228DF80C201A89ADF818209A8821
:1094E400ADF81A20DA689B7D05929A1F53425341C6
:1094F4008DF81C3003A8FFF723FC002649461348C7
:10950400C8F80060FEF763FD01211148FEF7BBFDBA
:1095140000287FF4CFADC6E603228DF80C20DA884C
:10952400ADF818201A89CFE70422DB888DF80C20C7
:10953400ADF81830DEE705238DF80C30DAE700BF0C
:1095440044390020603900208C390020902B002001
:1095540088390020983900204068FFF7A3BD000037
:1095640008B501210448FEF778FD18B9BDE80840A4
:10957400FFF798BD08BD00BF883900202DE9F341ED
:109584009846354B1B7806460D46002B5BD00029C8
:109594005BD009884FF6FF73994258D06B88002B33
:1095A40055D06B689B0754D14AB92F890DF102013C
:1095B4003846FFF7D5FB30B102B0BDE8F08113881F
:1095C4005788ADF8023001A8FFF774FC044658B977
:1095D400BDF80230214A142101FB032358890338C2
:1095E400C01B58810820E7E700238375BDF80230CB
:1095F40083826B68036180F8008001211848FEF7BC
:1096040037FD2B882381B8F1030F6B88A38004BF37
:109614000423A3754FF0000508BF3368E06008BF5A
:10962400A361E780658101A90E48FEF795FC36B178
:10963400E36833600C4B75601B89B5723381FFF7A7
:109644008FFF0020B8E70220B6E70520B4E7042026
:10965400B2E70320B0E700BF3C39002060390020A6
:1096640058390020902B00204439002073B50D4652
:109674000446C8B1C1B10DF10601FFF76BFCA8B1F6
:109684000B4BBDF806006668142202FB0030012172
:109694000C30FEF7EDFC63682E600C336B60012325
:1096A400A372002002B070BD0520FBE70A20F9E791
:1096B4006039002013B50446A8B10DF10601FFF787
:1096C40049FC90B10B4ABDF80630142101FB032379
:1096D400DA6862B1A27A52B1DA680020013ADA603B
:1096E400A07202B010BD0520FBE70A20F9E70620AE
:1096F400F7E700BF6039002002230022FFF73EBFD6
:1097040018B103230022FFF739BF0520704707B5BE
:10971400ADF80600ADF804100DF1060001A9FFF73D
:109724006DFC03B05DF804FB054B1B68082B01BFFF
:10973400044B1868B0FA80F0400918BF0020704745
:10974400300100103401001008B54FF080430022AE
:10975400C3F80C21C3F81021C3F838254FF0805208
:1097640003F54043D2F80414C3F82015D2F80814C2
:10977400C3F82415D2F80C14C3F82815D2F8101421
:10978400C3F82C15D2F81414C3F83015D2F81814F1
:10979400C3F83415D2F81C14C3F84015D2F82014B9
:1097A400C3F84415D2F82414C3F84815D2F8281481
:1097B400C3F84C15D2F82C14C3F85015D2F8301451
:1097C400C3F85415D2F83414C3F86015D2F8381419
:1097D400C3F86415D2F83C14C3F86815D2F84014E1
:1097E400C3F86C15D2F84424C3F87025FFF79CFF26
:1097F40010B1384B384A1A60FFF796FF18B1374B4F
:10980400FB22C3F81825FFF78FFF48B13449354BC5
:109814000A681B6822F00F0203F00F0313430B6066
:10982400FFF782FF18B1304B4FF400721A604FF00B
:109834008043D3F80024D20744BF6FF00102C3F879
:1098440000242A4AD2F8883043F47003C2F88830DE
:10985400BFF34F8FBFF36F8F4FF01023D3F8002265
:10986400002A03DBD3F80432002B2FDA204B012229
:10987400C3F80425D3F80024002AFBD04FF01022AB
:109884001221C2F80012D3F80024002AFBD04FF0B2
:1098940010231222C3F80422154B1A46D3F80014DD
:1098A4000029FBD00021C3F80415D2F80034002BA2
:1098B400FBD0BFF34F8F0D490E4BCA6802F4E06230
:1098C4001343CB60BFF34F8F00BFFDE70A4B0B4A36
:1098D4001A6008BD8C5600404881030000F0004027
:1098E400E40E0040580200104096024000ED00E0F3
:1098F40000E001400400FA05A42B00200090D003EE
:10990400074B1B5C1F2B86BF03F01F0305494FF059
:10991400A041012202FA03F3C1F80C35704700BFDD
:109924006313030000030050074B1B5C1F2B86BF0F
:1099340003F01F0305494FF0A041012202FA03F38B
:10994400C1F80835704700BF6313030000030050DB
:1099540038B5074C051E04F1080318BF1C462368DC
:109964002BB11A6822605B6828469847F7E738BD30
:10997400A839002020B9054B01225A70FFF7E8BF2F
:10998400012802D1014A9070F8E77047A0390020FD
:1099940020B9034B01225A70FFF7DABF704700BFAA
:1099A400A039002038B50B4C237883B90A4863608A
:1099B400A3602361E36000F0D1F8054604F0F0FDF4
:1099C40008B900F0D7F801232370284638BD85254F
:1099D400FBE700BFA03900207999020037B50B4C92
:1099E40000230DF107008DF80730FEF751FAE36804
:1099F400013BE360E56815B900F0D2F8A5709DF865
:109A04000700FEF769FA03B030BD00BFA03900209B
:109A1400012813B509D018B103281CD002B010BD19
:109A24000F4B0122C3F88020F8E70E4C00230DF100
:109A340007008DF80730FEF72BFA23780BB9FFF7F0
:109A4400B1FFE3689DF807000133E3600123A370CD
:109A5400FEF742FAE2E700F08DF8FFF7BFFFDDE71B
:109A640000E100E0A039002036DF70474DDF704789
:109A74004EDF70474FDF704708B50346FFF7F8FF26
:109A840040B91846FFF7F2FF20B91846BDE8084070
:109A9400FFF7F0BF08BD012810B5044602D100F05D
:109AA40045FA804700F048FA034668B10A2C07D00B
:109AB4000B2C07D0092C07D10220BDE81040184711
:109AC4000020FAE70120F8E710BD0000012813B5D3
:109AD400044603D003281AD002B010BD00230DF1B0
:109AE40007008DF80730FEF7D3F900F01FFA10B124
:109AF4002046FFF7B9FF9DF80700FEF7EDF900F0E7
:109B04001BFA0028E8D00120FFF7B6FFE4E70C4B6E
:109B1400C02283F8002301221A6000F007FA20B162
:109B24004FF080430422C3F8042300F005FA002810
:109B3400D2D04FF080434FF46072C3F80423CBE7D4
:109B440000E100E050E8002F02EA010340E8003C95
:109B54009CF0000FF6D1104670470000044A1379B8
:109B640023B9012110609180184670478520704701
:109B7400B4390020084B1A68D2075FBFC02283F8AB
:109B8400002301221A604FF080420123C2F81835E5
:109B9400024A1370704700BF00E100E0BC390020A6
:109BA400044B01221A604FF08042D2F81834DB03D0
:109BB400FBD470470C000040154B07B51A687AB106
:109BC40000221A601B680093009B4FF0804301221F
:109BD400C3F808230F4B587910B95A711B6898477A
:109BE4000D4B1A6882B100221A601B680193019B15
:109BF4004FF080430222C3F80823064B1B68012060
:109C040003B05DF804EB184703B05DF804FB00BF34
:109C140000010040B43900200401004000F18040FC
:109C240000F5C040002382B0036003680193019BE8
:109C340002B0704703681F2B83BF03F01F03036048
:109C440001484FF0A04070470003005007B5019051
:109C540001A8FFF7EFFF019B00EB8300D0F800277A
:109C640022F44032C0F80027D0F8003743EA014319
:109C7400C0F8003703B05DF804FB000073B5224C54
:109C84002518064695F93020072A19DD224492F852
:109C940058309B09032B0FD1019001A8FFF7CAFF8D
:109CA400019AD0F81035D340DB0707D4022130469F
:109CB400FFF7CCFF02B070BD012BF7D00321F6E70C
:109CC400D3B2072BF6D8930003F1804303F5C043C6
:109CD400D3F8100540F00100C3F8100502F140006C
:109CE400800080B2FFF79AFF0029E3D095F9303065
:109CF40054F82330002BDDD0012303FA02F2034B86
:109D0400C3F80423D6E700BFC03900200060004038
:109D14000E4B034493F93020072A02DD0021FFF79C
:109D240095BFD3B2072B10D8930003F1804303F5FA
:109D3400C043D3F8101521F00101C3F81015012315
:109D440003FA02F2024BC3F808237047C03900201B
:109D5400006000402DE9F04F002489B0CDE90244B1
:109D6400624D4FF48072012102F1804303F5C04338
:109D740090B21B68012B06D1D5F804330B4202D0F4
:109D8400FFF74CFF0C430432B2F5907F4FEA4101D8
:109D9400EAD1574B1B68012B0ED14FF4BE70FFF76D
:109DA4003DFF4FF0A04344F00044D3F81035029334
:109DB400504BD3F81035039314F0FF0F1AD04E4FC5
:109DC40000250126344210D0AB0003F1804303F593
:109DD400C043D3F81005D3F8101557F8253023B134
:109DE400C1F30141C0F3052098470135082D4FEA1E
:109DF4004606E7D1002C75DA0DF110080023049310
:109E0400C8F804304FF0FF33CDE90633DFF8E8A09B
:109E1400DFF8E89000273D4619F9014B631C48D050
:109E2400E4B2012324F0C00604F0070203FA02F2AC
:109E3400F00808AB191811F8083C134239D00AEBA2
:109E44000603A40993F930305AF823B0BBF1000F8C
:109E540008D1032C2DD118F800C04CEA020C08F8E4
:109E640000C001E0032CF6D001A80196FFF7E2FE42
:109E7400019B11F8181C03F5E07C114250F82C00EA
:109E8400C0F3014005D0022813D1032C0BD1214685
:109E940004E003280DD1032C05D102213046FFF73D
:109EA400D5FE0135EDB2BBF1000F02D0214630469C
:109EB400D8470137042FAFD1A5B14FF0A043029981
:109EC400D3F8102503F540739142D3F8103502D12D
:109ED4000399994206D002920393049A059B069231
:109EE400079395E709B0BDE8F08F00BF006000401C
:109EF4007C61004000030050C0390020203A00205B
:109F0400014B1B68184700BF2C3A002000F1804326
:109F140082B01A68002A14BF0120002004D0002255
:109F24001A601B680193019B02B07047014B1868CB
:109F3400704700BF343A0020014B1868704700BFD7
:109F44003C3A00204FF0804310B5D3F80443620735
:109F540007D54FF48470FFF7D9FF10B11E4B1B686F
:109F64009847A30608D54FF48A70FFF7CFFF18B1BE
:109F74001A4B00201B689847600608D54FF48C7074
:109F8400FFF7C4FF18B1154B01201B689847210641
:109F940008D54FF48E70FFF7B9FF18B1104B0020AD
:109FA4001B689847E20508D54FF49070FFF7AEFFA1
:109FB40018B10B4B01201B689847A3050AD54FF431
:109FC4009270FFF7A3FF28B1054B02201B68BDE880
:109FD4001040184710BD00BF343A0020383A002022
:109FE4003C3A002008B5FFF7ADFFBDE80840FFF795
:109FF400E3BD0000044A91689368CB1A23F07F43C1
:10A004008342F9D3704700BF10E000E0034B044AD9
:10A014001B68B3FBF2F35843FFF7ECBFA42B0020FB
:10A0240040420F0000F1804000F51C300123036022
:10A03400BFF36F8FBFF34F8F70470000064A10F0D5
:10A04400800F00F00F0314BFD2F81005D2F81405E6
:10A05400D84000F00100704700700240054B1B68B7
:10A06400082B05D1044B1868003018BF0120704735
:10A0740000207047300100103401001030B54C68E6
:10A084000D68A34297BFC0E900530021E41AED18FC
:10A094008EBFC0E900514C600D60934203D1201C77
:10A0A40018BF012030BD0020FCE74B6810B59A4270
:10A0B4000C6828BF1A46C0E90042981A0B68486029
:10A0C400134400300B6018BF012010BD30B54C683C
:10A0D4000B68A24228BF2246002A14BF1D46002551
:10A0E400A4EB02041344C0E900524C600B6014BF9B
:10A0F4000120002030BD0000054B10F0800FA3F1BB
:10A10400900208BF134600F00F0003EB00107047E5
:10A11400B43B002010F0800F14BF0023102300F084
:10A124000F00184470470000024A00231360024ADB
:10A13400137070471C7C0240413A002007B5084A5E
:10A1440000231370074A0193137001238DF8043020
:10A15400054B01A81B68984703B05DF804FB00BFDA
:10A16400403A0020483C0020443C00207047000056
:10A17400F8B54D680B4F954228BF15460C46064668
:10A184002A460968384604F017FF60682368401BB4
:10A19400C6E9007560601D440030256018BF0120C9
:10A1A400F8BD00BF503C0020F8B54C68944228BF6D
:10A1B400144606460D468CB1094F096822463846B6
:10A1C40004F0FAFE37606B6874601B1B6B602B68CD
:10A1D400201C23442B6018BF0120F8BD0460F2E763
:10A1E400503C002008B5FFF79FFF084B93F89E20D2
:10A1F400032A06D16FF001010548BDE80840FFF7C6
:10A20400A1BCD3F89030002BF4D008BD243B00202F
:10A21400B03A002007B500238DF804300B4BD3F877
:10A224002025ADF80620D3F8C034094A002B136862
:10A234000CBF4FF480714FF001210B431360054BA9
:10A2440001A81B68984703B05DF804FB0070024046
:10A25400203B0020443C002013B5124C012223680B
:10A2640002FA01F10B4323600F4B1B6819400306EC
:10A274000DD551B906238DF804308DF806008DF8FC
:10A2840007100A4B01A81B68984702B010BD0029AB
:10A29400FBD106238DF804308DF806008DF80720D5
:10A2A400EFE700BF203B0020B03A0020443C0020F0
:10A2B40008B5054B1A781046FFF72CFFBDE8084097
:10A2C40001461046FFF7C8BF483C002008B50146C8
:10A2D400FFF72AFFFFF710FF837B032B0AD1084601
:10A2E400FFF718FF01218140C9430448BDE8084035
:10A2F400FFF728BC0368002BF1D008BDB03A00205A
:10A304008720FFF7E3BF8620FFF7E0BF8520FFF734
:10A31400DDBF8420FFF7DABF8320FFF7D7BF822099
:10A32400FFF7D4BF8120FFF7D1BF000007B5FFF7C7
:10A33400FBFE104B93F81E21032A07D16FF48071A2
:10A344000D48FFF7FFFB03B05DF804FBD3F81031B1
:10A35400002BF8D16FF480710748FFF7F3FB062355
:10A364008DF804308823ADF80630044B01A81B682F
:10A374009847E8E7243B0020B03A0020443C002002
:10A3840007B5FFF7D1FE0D4B93F88E20032A11D0A9
:10A39400D3F8803073B96FF080710948FFF7D2FBAE
:10A3A40006238DF804300823ADF80630054B01A8C8
:10A3B4001B68984703B05DF804FB00BF243B0020F2
:10A3C400B03A0020443C0020204B13B5D3F800449D
:10A3D400C3F80044BFF36F8FBFF34F8FBFF36F8F8A
:10A3E400BFF34F8FE1050BD5194B01221A700023DF
:10A3F400019302238DF80430164B01A81B6898477B
:10A40400A2050AD5124A00230193137003238DF881
:10A414000430104B01A81B689847630513D50C4BF7
:10A424001A7882B100221A70084B0121C3F808156A
:10A434005820FFF7F7FD042301928DF80430054BF3
:10A4440001A81B68984702B010BD00BF007002400D
:10A45400403A0020443C00202DE9F04F764B87B071
:10A464001A780193002A7ED1DFF8F0A1DFF8CCB18D
:10A47400724BDAF800101D68294074D011F00125E0
:10A4840074D095FAA5F5B5FA85F50F2D86BFA5F11B
:10A494001004E4B245F080042046FFF72DFE4FFA85
:10A4A40084F904F00803B9F1000F06460093828989
:10A4B40061DAD0E9003104A8984700B93060604BF4
:10A4C40082221A60019B059A049801211970A940FF
:10A4D400B368DBF80050134425EA0101B9F1000F19
:10A4E400CBF80010B36004F00F040099554B7CDAEC
:10A4F400002972D0C3F8A006C3F8A426FFF7AEFD66
:10A50400A30024B26500504A504900287DD1B9F116
:10A51400000FB2BF042428240A464D4E4D4F02EBCF
:10A5240005091C4405463560BFF36F8FBFF34F8F99
:10A534002046FFF777FD0220FFF768FD3368002B04
:10A54400F1D01E20FFF762FD3B689B065BD501201E
:10A55400FFF75CFDB9F8003003F1804303F51C33C9
:10A564001B68002BDFD007B0BDE8F08F91FAA1F192
:10A57400B1FA81F589E7009B32493BB3D1F8C08435
:10A5840018F4803F18BF4FF00008434671683768DD
:10A5940004A8B847049B002B8FD0059B43458CD25D
:10A5A40001214FF00208A94086F80E80C9435046A5
:10A5B400FFF7C8FA06238DF80C30274B8DF80E40B0
:10A5C4008DF80F801B6803A8984751E704F00F0328
:10A5D40003F5947351F82380D7E7142101FB043366
:10A5E400C3F80006C3F8042688E721B1C3F8A0071E
:10A5F400C3F8A42782E7142101FB0433C3F800073E
:10A60400C3F804277AE702209CE7B9F1000FB4BF2E
:10A61400042028201844FFF705FD12EA290938BF51
:10A62400894639F8143003F1804303F51C331A6862
:10A63400002AFCD097E700BF413A0020203B0020CD
:10A644001C7C0240007002408A1303009C13030028
:10A654000471024074740240443C0020B03A00206B
:10A6640038B5174BD3F86C44C3F86C44BFF36F8F01
:10A67400BFF34F8FFFF7F2FC38B9124A136823F087
:10A68400011103F001130C43136001251CB9BDE84B
:10A694003840FFF7E1BE94FAA4F3B3FA83F30F2B27
:10A6A400D9B2C8BFA1F1100005FA03F3CCBFC0B200
:10A6B40041F0800024EA0304FFF7CEFDE6E700BF83
:10A6C400007002404C3C002037B50446FFF72CFDD7
:10A6D400FFF712FD837B032B0CD12046FFF71AFDF5
:10A6E40001218140C9430F48FFF72CFAFFF7B4FE5C
:10A6F40003B030BD0568002DF8D12046FFF70AFDF0
:10A7040001218140C9430748FFF71CFA06238DF84D
:10A714000430054B8DF806408DF807501B6801A8DE
:10A724009847E3E7B03A0020443C00200720FFF7B5
:10A73400CBBF0620FFF7C8BF0520FFF7C5BF042025
:10A74400FFF7C2BF0320FFF7BFBF0220FFF7BCBF64
:10A754000120FFF7B9BF08B5FFF7CEFC808908BD1B
:10A76400FFF76CBC2DE9F341002304460DF107000B
:10A774000E468DF80730FDF78BFB14F00F0103D163
:10A784002A4B1B78A3424DD1294B2A4F1A683D68A6
:10A79400D24392B220462A43FFF7BCFC4FF0010893
:10A7A40008FA00F812EA080F3ED12046FFF7A4FC8D
:10A7B4000C232206844603FB01F32FD51E4A31687D
:10A7C400134401F06041B268B1F1005F02F001028C
:10A7D4001FD1E2B9194ACCF8002096E8070083E8B3
:10A7E4000700CCF80430164B002445EA0805802203
:10A7F400CCF808408CF80E403D60C3F804219DF865
:10A804000700FDF769FB204602B0BDE8F0810D4A60
:10A81400E1E70AB90C4ADEE70C4ADCE70C4A1344C8
:10A824000C4AD8E71024EAE71124E8E7483C002062
:10A83400203B0020B03A0020B43A0020AFA0020030
:10A8440000E100E0D1A0020075A10200ADA1020068
:10A85400443A002081A002002DE9F3410023804600
:10A864000DF107000E468DF80730FDF711FB18F0C7
:10A874000F0F03D1164B1B78434525D1154B164FAB
:10A8840019683D68C94389B240462943FFF742FC31
:10A8940001248440214019D14046FFF72DFC336840
:10A8A4000360736843600D4B81602C4380223C60DD
:10A8B40081730C46C3F804219DF80700FDF70CFBD7
:10A8C400204602B0BDE8F0811024F5E71124F3E737
:10A8D400483C0020203B0020B03A002000E100E08A
:10A8E40008B5FFF7BBFB58B9EFF3108272B64C20E2
:10A8F400FFF798FB4C20FFF795FB82F3108808BD07
:10A904004C20BDE80840FFF78DBB000013B5FFF7EE
:10A914000BFC0F4B9A7B032A06D16FF480310D4850
:10A92400FFF710F902B010BD1C6874B96FF48031E0
:10A934000848FFF707F906238DF80430064BADF8F5
:10A9440006401B6801A89847ECE7FFF7C9FFE9E751
:10A95400243B0020B03A0020443C0020014B1878EE
:10A96400704700BF483C0020F7B50446FFF776FB6C
:10A9740007462046FFF7CEFB01258540ED431B4EDD
:10A98400CFB90DF107008DF8077004F00F04FDF73F
:10A994007FFA3068164B6400284004F2C5743060B6
:10A9A400043343F8044C1F601B689DF80700FDF74F
:10A9B40093FA03B0F0BD00230DF107008DF80730C2
:10A9C400FDF766FA306814F0080200EA050030600A
:10A9D400EBD104F00F0404F59474064B43F82420DF
:10A9E400BFF36F8FBFF34F8FDFE700BF203B002023
:10A9F4000078024000700240F7B5002304460DF1D0
:10AA040003008DF80330FDF743FA2046FFF774FB8B
:10AA140005462046FFF77EFB012314F0800F03FA5E
:10AA240000F0294917D10B6830EA03020AD0204606
:10AA3400FFF79AFF0323AB739DF80300FDF74CFA6D
:10AA440003B0F0BD2A60C043204A03400B60136882
:10AA540003401360EEE7230711D4802C1C4E1D4BDA
:10AA640029D004F00F0202F2DA32520032601A687E
:10AA74001E68D2B242F0020232431A601B68134EBF
:10AA84000A68336862EA03070742D5D022EA000263
:10AA9400184300230A602B600323AB738DF807303F
:10AAA4000D4B306006228DF804208DF806401B689B
:10AAB40001A89847C0E740F2B47232601A681E6871
:10AAC400D2B242F00402D7E7B03A0020203B002083
:10AAD4000078024004780240443C0020FFF78CBF19
:10AAE400F7B5174B174CD3F880542368164EDA4346
:10AAF400164B37781B6892B238461A43FFF70AFBA5
:10AB0400012303FA00F0104202D03846FFF774FF25
:10AB14006FF0011105F080050C483570FFF712F84D
:10AB2400236843F0010323600023019305238DF878
:10AB34000430074B01A81B68984703B0F0BD00BF61
:10AB440000700240203B0020483C0020B03A002026
:10AB5400443C0020554B2DE9F041D3F80453002226
:10AB640029461646012400297CD1FFF777FA0028EC
:10AB740069D14F4B1B78002B65D1960263D54D49A3
:10AB84004C4E40F2A9730B604B4B1C6814F0FF044D
:10AB94001CBF1868044040F2AA700860186810F0DE
:10ABA400FF001CBF1968084040F2AB71316019689E
:10ABB40011F0FF01B4461CBF1E68314040F2AC7670
:10ABC400CCF800601E6834403C4E08D037682743F8
:10ABD400376040F2A977CCF800701C601C68354FD0
:10ABE40040F2AD743C601C68204008D0346844EAEC
:10ABF4000044346040F2AA743C60186018682D4820
:10AC040040F2AE740460186801400DD0CC0748BF10
:10AC140042F40002C806274840F2AB74046019608D
:10AC24001B6848BF42F00102336833F001111CBFB6
:10AC340005F08070024313F0011F04D06B0544BF7C
:10AC4400316042F480621E4F02F4000622F40004D4
:10AC54004FF00108E4B9FFF7FFFB2EB3BDE8F04164
:10AC6400FFF73EBF91FAA1F31648B3FA83F39F00AE
:10AC7400384407683FB10660BFF36F8FBFF34F8F4F
:10AC840004FA03F0024304FA03F321EA03016AE736
:10AC940094FAA4F5B5FA85F557F8253008FA05F5C0
:10ACA400984724EA0504D5E7BDE8F0810070024026
:10ACB400413A002000780240047802404C3C0020D5
:10ACC400B013030000710240024AD2F80034002B92
:10ACD400FBD0704700E001400A4908B50223C1F8DF
:10ACE4000435BFF36F8FBFF34F8FC1F80805FFF72B
:10ACF400EBFF0023C1F80435BFF36F8FBFF34F8F11
:10AD040008BD00BF00E001400E4B10B50124C3F89C
:10AD14000445BFF36F8FBFF34F8F01EB8204401ADA
:10AD2400A14208D1074B0022C3F80425BFF36F8F5B
:10AD3400BFF34F8F10BD431851F8042B1A60FFF76F
:10AD4400C3FFEDE700E001408368D3F84C319B0773
:10AD540003D50022114600F01BBBBFF34F8F0549FA
:10AD6400054BCA6802F4E0621343CB60BFF34F8F14
:10AD740000BFFDE700ED00E00400FA0570B583684C
:10AD8400D3F84C41C4F3400415462CB100221146BB
:10AD9400BDE8704000F0FCBA0139274B01295B88FB
:10ADA40019D051B102292AD0012B43D92348244B6D
:10ADB4002449C01AC008000407E0012B3AD91F48EF
:10ADC4001F4B2149C01AC008000440F00200BDE82E
:10ADD4007040FCF701BB012B2CD921460A2268687C
:10ADE40004F094F8164A154B18499B1ADB081B0407
:10ADF4000246BDE8704043F00200FCF7F1BA012BB3
:10AE040018D921460A22686804F080F821460646CB
:10AE14000A22A868094C04F079F8094B0C49E41A91
:10AE2400E40824040346324644F00200BDE87040BE
:10AE3400FCF7DFBA70BD00BF682A002044FA0200A4
:10AE440014FA02000A150300C0140300D514030009
:10AE5400EE14030070B58368D3F84C41C4F3400486
:10AE640015462CB100221146BDE8704000F090BA9E
:10AE74000139264B01295B8819D051B1022929D007
:10AE8400002B41D02248234B2349C01AC008000498
:10AE940007E0002B38D01E481E4B2049C01AC008BA
:10AEA400000440F00100BDE87040FCF795BA5BB3C4
:10AEB40021460A22686804F029F8164A144B1849F6
:10AEC4009B1ADB081B040246BDE8704043F00100F6
:10AED400FCF786BAC3B121460A22686804F016F862
:10AEE400214606460A22A868094C04F00FF8094BCB
:10AEF4000C49E41AE40824040346324644F00100F1
:10AF0400BDE87040FCF775BA70BD00BF682A002028
:10AF140044FA020014FA0200921403004E140300CF
:10AF240061140300781403001FB58368D3F84C310F
:10AF34009B0706D50022114605B05DF804EB00F02E
:10AF440027BA064B064A0093D21ACDE901220821FA
:10AF5400044A00F0E9F905B05DF804FB0060020062
:10AF64008C340300191403008368D3F84C319B0715
:10AF740003D50022114600F00BBA0320FCF7E6BC0F
:10AF840008B104F09CB870472DE9F843089C1E46AC
:10AF94000F46E1B9184D194C641BE408944204D9D6
:10AFA400174800EB8208BC4201D100230AE06B6819
:10AFB400D8F80000196804F05BF8A946083520B9F0
:10AFC400D9F804303360BDE8F8830137EBE7002893
:10AFD400EBD00178436839B121461046984723687D
:10AFE400002BE2D03460EEE7120199189B58002B35
:10AFF400DBD03160E7E700BF84F9020014FA0200F5
:10B00400E029002007B58368B9B1DA7E8A4211D0FD
:10B014000B4A009233228DF8042001F12F028DF89F
:10B0240005206D22ADF80620D9766A4605490069E7
:10B03400FDF7E1F803B05DF804FBD976024AF5E7C1
:10B044001B5B313BF01903006B160300836807B5E3
:10B054001A7F8A4213D045F61B32ADF80020342201
:10B064008DF8022001F12F028DF803206D22ADF836
:10B07400042019776A4603490069FDF7BCF803B058
:10B084005DF804FBF01903000149FDF7B4B800BFF3
:10B094008B2403000A4600680149FDF7ACB800BFE1
:10B0A4009316030009B1FFF7F5BF70472DE9F3418B
:10B0B40006460F461446002514B902B0BDE8F081D7
:10B0C400706803682246D3F80C80791901ABC04735
:10B0D400019B1D44E41A002BEED1B3681B78032BAB
:10B0E400EAD04FF4002001F049FCE5E72DE9F04FE8
:10B0F400054685B090460F46002971D00024385D7E
:10B1040003F0BDFC40BB5FFA88FB05F1100A38462A
:10B11400FFF736FFAB685B7E001BA3EB0803984286
:10B1240007EB04091AD94A46002612F8010B0293C8
:10B134000192039203F0A3FCDDE9012320B112F88C
:10B14400013C0A2B35D03346A968487E08EB06013A
:10B1540088422DD90136E8E70134D0E74B46002672
:10B16400B04219D013F8012B0A2A04EB060A1DD1A8
:10B174002869FDF735F832462E4649462846FFF73A
:10B1840095FF56F8100FFFF77FFF5FFA88F13046FE
:10B194000AF10104FFF786FF28693919FDF72BF836
:10B1A400286905B0BDE8F04FFFF76EBF0136D7E759
:10B1B4001E462869FDF714F8324649462846FFF72B
:10B1C40075FF3444385D03F05AFC38B92869FFF739
:10B1D4005BFF59465046FFF765FF98E70134F1E7F6
:10B1E40005B0BDE8F08F00000A4619B102490068B5
:10B1F400FDF701B8704700BF991603000A4619B15C
:10B2040002490068FCF7F7BF704700BF8D160300C2
:10B214002DE9F34106468068414F002480222146EF
:10B22400A1308DF8034003F0F0FE3E493069FCF78D
:10B23400E2FF3069FCF7D4FF4FF47A7547F0010759
:10B24400706803680122D3F810800DF1030101AB8B
:10B25400C047019B5BB94FF6C010B847019B002B58
:10B26400EED1013DADB2002DEAD10D2033E09DF8C1
:10B274000330B1681B2B46D091F8A1201B2AEDD1D5
:10B28400522B40D10C44002384F8A13091F8A22021
:10B294005B2A1DD101F1A300022510F8012B013511
:10B2A400EDB23B2A6CB219D1002C1FDB05F1A104CD
:10B2B4000C44002214F8010BD0B9FA2A28BFFA2250
:10B2C400FA2B28BFFA230A758B7581F8A10002E0D6
:10B2D40081F8A1300B2002B0BDE8F08103EB8303B9
:10B2E40002EB4303303B802D9BB2D6D10C20F2E716
:10B2F40002EB820200EB420001353038EDB282B23B
:10B304002806F3D4D6E70A190134E4B2092C82F8EA
:10B31400A130A3D9002381F8A1300420DBE700BFCA
:10B32400A01603007E1603000CB473B506AB0E46DC
:10B3340053F8045B81680193D1F84C315B070446F0
:10B3440020D5CB7EB3421DD002221B31684603F0C8
:10B3540033FE31462046FFF755FE01AA29462069EF
:10B36400FCF7BEFF9DF800102046FFF74BFE9DF84A
:10B37400011011B12046FFF769FE02B0BDE870402C
:10B3840002B0704701AA29462069FCF7A9FFF4E737
:10B394002DE9F04F044689B07E48DFF81C92174629
:10B3A4000E4603F08CFE05467B4803F088FEA36836
:10B3B400CDF80090794A5B6808212D1A2046FFF7E2
:10B3C400B3FFA3685868FFF7DBFD8046484603F0E7
:10B3D40076FEA36808EB000292B299682046FFF754
:10B3E40085FE6F4A00212046ADB2FFF79DFF3FB1B5
:10B3F40036B14FF00C09B04609FB0769C84527D19F
:10B40400654803F05CFE02300544ADB2614B009325
:10B4140005F10308634A082120462B461FFA88F8E1
:10B42400FFF782FF424660492046FFF75FFE36B1D0
:10B434000C23DFF8709103FB0767BE4222D1A36897
:10B44400D3F80C80B8F1000F5AD109B0BDE8F08FE1
:10B45400D8F80400FFF794FD8246D8F80000FFF7FF
:10B464008FFD5044A8420AD9D8F80400FFF788FD9C
:10B474000546D8F80000FFF783FD0544ADB208F196
:10B484000C08BBE7D6E9002393B34AB30192424ABE
:10B4940000920821454A2046FFF746FF7068FFF7EF
:10B4A4006FFD83463068FFF76BFD82463A4803F030
:10B4B40006FEA5EB0B03A3EB0A031B1AD9B204F196
:10B4C4001000FFF7EFFD3A2239492069FCF793FE9B
:10B4D400B16889B142462046FFF708FE0C36ACE756
:10B4E40000932B464A4608212046FFF71DFFEFE74D
:10B4F400002AEDD00092F4E72069FFF7C5FDEDE7DF
:10B5040000220392174604AE009603AB0121404685
:10B5140002F10109FFF738FD039D5DB12868FFF7CB
:10B524002FFDB84204D9039B1868FFF729FD87B2A1
:10B534004A46E9E7B9F1010F87D01E4ADFF864A053
:10B5440029462046FFF7F0FE2A46BD1CADB203ABE8
:10B5540000960121404602F10109FFF715FD039B06
:10B56400002B3FF472AF1B68009308212B46524610
:10B574002046FFF7D9FE039B596831B17A1D92B278
:10B584002046FFF7B3FD4A46E1E72069FFF77CFD5B
:10B59400F9E700BFA6160300041A0300EA19030022
:10B5A400A1180300AB180300B3180300C618030066
:10B5B40058050300CF180300831603000022114628
:10B5C400FFF7E6BE022910B5044608D18368D3F814
:10B5D4004C319B0703D5BDE81040FFF7EFBF20694E
:10B5E400054A0649FCF707FE2069054A0349BDE8F8
:10B5F4001040FCF700BE00BF6F160300F0190300F3
:10B6040073160300012906D0022906D18368D3F8F2
:10B614004C319B0701D5FFF7D1BF024A0221FFF746
:10B6240083BE00BF9F19030010B58368D3F84C2173
:10B6340092070C4606D500221146FFF7A9FE012405
:10B64400204610BD0029FBD05B68024A0221FFF7A7
:10B654006BFEF5E7CC170300012937B50546144600
:10B6640004D103B0BDE83040FFF7A8BF023918BFCA
:10B674000121FFF7D9FF48B963680193044B009394
:10B68400044A236802212846FFF74EFE03B030BD6A
:10B69400B2FE02003F180300012907B504D103B02C
:10B6A4005DF804EBFFF78ABF02290AD153680193BE
:10B6B400084B00931368084AFFF736FE03B05DF8A1
:10B6C40004FB8CBF0121002103B05DF804EBFFF7FC
:10B6D400ABBF00BFB2FE02003F18030011F1FF31FF
:10B6E40010B518BF01210446FFF79EFF40B9054A73
:10B6F40005492069FCF77FFDA36845F218021A8307
:10B7040010BD00BF78160300F019030001292DE9CC
:10B71400F3410446154637D18668FFF779FD38BBF7
:10B72400A36804F11005FA21284693F814809F7D3C
:10B73400FFF7B0FC20691E49FA22FCF75CFD2046A5
:10B74400FFF766FDA0B9A368197D7176A368A1EB24
:10B7540008019B7D33762846C9B2FFF74FFD317E41
:10B76400C91BC9B2284602B0BDE8F041FFF73CBD91
:10B77400A36845F218021A830E4A0421204602B037
:10B78400BDE8F041FFF7D0BD022994BF002101219B
:10B79400FFF74AFF48B96B680193074B00932B6886
:10B7A400064A02212046FFF7BFFD02B0BDE8F08142
:10B7B4008716030067180300B2FE02003F18030057
:10B7C4002DE9F04111F1FF3186B018BF0121054682
:10B7D400FFF72AFF40BBAB68DFF85480D3F844611D
:10B7E4000446EEB1082C1BD030460023092203A9DD
:10B7F400FCF755FF9DF81420A9683046092301324F
:10B80400A131FCF74CFFAB68049EA1330093671C85
:10B814002346424600212846FFF786FD3C46E0E7E2
:10B82400AB68002283F8A12006B0BDE8F08100BF18
:10B834005D18030011F1FF3110B518BF0121044652
:10B84400FFF7F2FE30B9A368B3F84C2160F382022B
:10B85400A3F84C2110BD11F1FF3110B518BF01211F
:10B864000446FFF7E1FE30B9A268B2F84C3143F068
:10B874000403A2F84C3110BD11F1FF3110B518BF0B
:10B8840001210446FFF7D0FE30B9A368B3F84C2178
:10B8940060F3C302A3F84C2110BD11F1FF3110B5C0
:10B8A40018BF01210446FFF7BFFE30B9A268B2F801
:10B8B4004C3143F00803A2F84C3110BD022973B592
:10B8C4000D4694BF0021012104461646FFF7ACFE45
:10B8D400014658B9022D0BD1736801930C4B0093A8
:10B8E4000C4A336829462046FFF71EFD02B070BD9E
:10B8F400A368094AD3F84C3113F0080F074B18BF5B
:10B904001346074A204602B0BDE87040FFF70CBD5D
:10B91400B2FE02003F180300582903004818030030
:10B924004C18030011F1FF3110B518BF0121044672
:10B93400FFF77AFE48B9A368C3F83801E3685B6887
:10B94400BDE81040186800F0E4B810BD7FB511F1EF
:10B95400FF3118BF01210446FFF766FE0546B8B95A
:10B96400E3685B681E68304600F0D0F8B268A168EE
:10B97400C0B2CDE9010264234343B3FBF2F3DBB26B
:10B984000093D1F83831034A29462046FFF7CCFC0E
:10B9940004B070BD0818030002681368526893422B
:10B9A40091BFD01A80680130801888BFC01A7047D0
:10B9B400036881681A685B688B4234BF01330023D3
:10B9C400D31A584258417047F7B5002304460DF185
:10B9D40007000D468DF80730FCF75AFA2046FFF7AA
:10B9E400E7FF10B1237C002B3CD12268A668536882
:10B9F4005168B14234BF01310021516030B1116846
:10BA0400A068814234BF013100211160E26860689E
:10BA1400511E072920D8DFE801F004101F141F1F4E
:10BA24001F182A78C2542046FFF7B6FF23689A6885
:10BA3400824200D29860002415E02A8820F813205E
:10BA4400F1E72A6840F82320EDE7D5E9006700EB29
:10BA5400C300C0E90067E6E7294602FB030003F0E0
:10BA6400ABFAE0E704249DF80700FCF735FA20461A
:10BA740003B0F0BD036818685B68C31A58425841A4
:10BA8400704773B5002305460DF107000C461646B2
:10BA94008DF80730FCF7FCF92846FFF7EBFF002888
:10BAA40032D129680B682EB90A68A868824238BF67
:10BAB400561C0E60EA686968501E07281ED8DFE825
:10BAC40000F0040E1D121D1D1D16CB5C23700024F6
